{
  "contractName": "Fund",
  "abi": [
    {
      "constant": true,
      "inputs": [
        {
          "name": "",
          "type": "uint256"
        }
      ],
      "name": "owners",
      "outputs": [
        {
          "name": "",
          "type": "address"
        }
      ],
      "payable": false,
      "stateMutability": "view",
      "type": "function"
    },
    {
      "constant": true,
      "inputs": [],
      "name": "crowdsaleEndDate",
      "outputs": [
        {
          "name": "",
          "type": "uint256"
        }
      ],
      "payable": false,
      "stateMutability": "view",
      "type": "function"
    },
    {
      "constant": true,
      "inputs": [],
      "name": "firstWithdrawAmount",
      "outputs": [
        {
          "name": "",
          "type": "uint256"
        }
      ],
      "payable": false,
      "stateMutability": "view",
      "type": "function"
    },
    {
      "constant": true,
      "inputs": [],
      "name": "crowdsaleAddress",
      "outputs": [
        {
          "name": "",
          "type": "address"
        }
      ],
      "payable": false,
      "stateMutability": "view",
      "type": "function"
    },
    {
      "constant": true,
      "inputs": [
        {
          "name": "",
          "type": "address"
        }
      ],
      "name": "contributions",
      "outputs": [
        {
          "name": "",
          "type": "uint256"
        }
      ],
      "payable": false,
      "stateMutability": "view",
      "type": "function"
    },
    {
      "constant": true,
      "inputs": [],
      "name": "manager",
      "outputs": [
        {
          "name": "",
          "type": "address"
        }
      ],
      "payable": false,
      "stateMutability": "view",
      "type": "function"
    },
    {
      "constant": true,
      "inputs": [],
      "name": "teamWallet",
      "outputs": [
        {
          "name": "",
          "type": "address"
        }
      ],
      "payable": false,
      "stateMutability": "view",
      "type": "function"
    },
    {
      "constant": true,
      "inputs": [],
      "name": "refundManager",
      "outputs": [
        {
          "name": "",
          "type": "address"
        }
      ],
      "payable": false,
      "stateMutability": "view",
      "type": "function"
    },
    {
      "constant": true,
      "inputs": [],
      "name": "foundationTokenWallet",
      "outputs": [
        {
          "name": "",
          "type": "address"
        }
      ],
      "payable": false,
      "stateMutability": "view",
      "type": "function"
    },
    {
      "constant": true,
      "inputs": [],
      "name": "INITIAL_TAP",
      "outputs": [
        {
          "name": "",
          "type": "uint256"
        }
      ],
      "payable": false,
      "stateMutability": "view",
      "type": "function"
    },
    {
      "constant": true,
      "inputs": [],
      "name": "reserveTokenWallet",
      "outputs": [
        {
          "name": "",
          "type": "address"
        }
      ],
      "payable": false,
      "stateMutability": "view",
      "type": "function"
    },
    {
      "constant": true,
      "inputs": [],
      "name": "getOwners",
      "outputs": [
        {
          "name": "",
          "type": "address[]"
        }
      ],
      "payable": false,
      "stateMutability": "view",
      "type": "function"
    },
    {
      "constant": true,
      "inputs": [],
      "name": "lockedTokenAddress",
      "outputs": [
        {
          "name": "",
          "type": "address"
        }
      ],
      "payable": false,
      "stateMutability": "view",
      "type": "function"
    },
    {
      "constant": true,
      "inputs": [],
      "name": "lastWithdrawTime",
      "outputs": [
        {
          "name": "",
          "type": "uint256"
        }
      ],
      "payable": false,
      "stateMutability": "view",
      "type": "function"
    },
    {
      "constant": true,
      "inputs": [],
      "name": "state",
      "outputs": [
        {
          "name": "",
          "type": "uint8"
        }
      ],
      "payable": false,
      "stateMutability": "view",
      "type": "function"
    },
    {
      "constant": true,
      "inputs": [],
      "name": "advisorTokenWallet",
      "outputs": [
        {
          "name": "",
          "type": "address"
        }
      ],
      "payable": false,
      "stateMutability": "view",
      "type": "function"
    },
    {
      "constant": true,
      "inputs": [],
      "name": "referralTokenWallet",
      "outputs": [
        {
          "name": "",
          "type": "address"
        }
      ],
      "payable": false,
      "stateMutability": "view",
      "type": "function"
    },
    {
      "constant": true,
      "inputs": [],
      "name": "bountyTokenWallet",
      "outputs": [
        {
          "name": "",
          "type": "address"
        }
      ],
      "payable": false,
      "stateMutability": "view",
      "type": "function"
    },
    {
      "constant": true,
      "inputs": [
        {
          "name": "",
          "type": "address"
        }
      ],
      "name": "ownerByAddress",
      "outputs": [
        {
          "name": "",
          "type": "bool"
        }
      ],
      "payable": false,
      "stateMutability": "view",
      "type": "function"
    },
    {
      "constant": true,
      "inputs": [],
      "name": "companyTokenWallet",
      "outputs": [
        {
          "name": "",
          "type": "address"
        }
      ],
      "payable": false,
      "stateMutability": "view",
      "type": "function"
    },
    {
      "constant": false,
      "inputs": [
        {
          "name": "_owners",
          "type": "address[]"
        }
      ],
      "name": "setOwners",
      "outputs": [],
      "payable": false,
      "stateMutability": "nonpayable",
      "type": "function"
    },
    {
      "constant": true,
      "inputs": [],
      "name": "token",
      "outputs": [
        {
          "name": "",
          "type": "address"
        }
      ],
      "payable": false,
      "stateMutability": "view",
      "type": "function"
    },
    {
      "constant": true,
      "inputs": [],
      "name": "tap",
      "outputs": [
        {
          "name": "",
          "type": "uint256"
        }
      ],
      "payable": false,
      "stateMutability": "view",
      "type": "function"
    },
    {
      "inputs": [
        {
          "name": "_teamWallet",
          "type": "address"
        },
        {
          "name": "_referralTokenWallet",
          "type": "address"
        },
        {
          "name": "_foundationTokenWallet",
          "type": "address"
        },
        {
          "name": "_companyTokenWallet",
          "type": "address"
        },
        {
          "name": "_reserveTokenWallet",
          "type": "address"
        },
        {
          "name": "_bountyTokenWallet",
          "type": "address"
        },
        {
          "name": "_advisorTokenWallet",
          "type": "address"
        },
        {
          "name": "_refundManager",
          "type": "address"
        },
        {
          "name": "_owners",
          "type": "address[]"
        }
      ],
      "payable": false,
      "stateMutability": "nonpayable",
      "type": "constructor"
    },
    {
      "anonymous": false,
      "inputs": [
        {
          "indexed": false,
          "name": "tokenHolder",
          "type": "address"
        },
        {
          "indexed": false,
          "name": "amountWei",
          "type": "uint256"
        },
        {
          "indexed": false,
          "name": "timestamp",
          "type": "uint256"
        }
      ],
      "name": "RefundContributor",
      "type": "event"
    },
    {
      "anonymous": false,
      "inputs": [
        {
          "indexed": false,
          "name": "tokenHolder",
          "type": "address"
        },
        {
          "indexed": false,
          "name": "amountWei",
          "type": "uint256"
        },
        {
          "indexed": false,
          "name": "tokenAmount",
          "type": "uint256"
        },
        {
          "indexed": false,
          "name": "timestamp",
          "type": "uint256"
        }
      ],
      "name": "RefundHolder",
      "type": "event"
    },
    {
      "anonymous": false,
      "inputs": [
        {
          "indexed": false,
          "name": "amountWei",
          "type": "uint256"
        },
        {
          "indexed": false,
          "name": "timestamp",
          "type": "uint256"
        }
      ],
      "name": "Withdraw",
      "type": "event"
    },
    {
      "anonymous": false,
      "inputs": [
        {
          "indexed": false,
          "name": "initiatorAddress",
          "type": "address"
        }
      ],
      "name": "RefundEnabled",
      "type": "event"
    },
    {
      "anonymous": false,
      "inputs": [
        {
          "indexed": false,
          "name": "owners",
          "type": "address[]"
        }
      ],
      "name": "SetOwners",
      "type": "event"
    },
    {
      "constant": false,
      "inputs": [],
      "name": "canWithdraw",
      "outputs": [
        {
          "name": "",
          "type": "bool"
        }
      ],
      "payable": false,
      "stateMutability": "nonpayable",
      "type": "function"
    },
    {
      "constant": false,
      "inputs": [
        {
          "name": "_crowdsaleAddress",
          "type": "address"
        }
      ],
      "name": "setCrowdsaleAddress",
      "outputs": [],
      "payable": false,
      "stateMutability": "nonpayable",
      "type": "function"
    },
    {
      "constant": false,
      "inputs": [
        {
          "name": "_tokenAddress",
          "type": "address"
        }
      ],
      "name": "setTokenAddress",
      "outputs": [],
      "payable": false,
      "stateMutability": "nonpayable",
      "type": "function"
    },
    {
      "constant": false,
      "inputs": [
        {
          "name": "_lockedTokenAddress",
          "type": "address"
        }
      ],
      "name": "setLockedTokenAddress",
      "outputs": [],
      "payable": false,
      "stateMutability": "nonpayable",
      "type": "function"
    },
    {
      "constant": false,
      "inputs": [
        {
          "name": "contributor",
          "type": "address"
        }
      ],
      "name": "processContribution",
      "outputs": [],
      "payable": true,
      "stateMutability": "payable",
      "type": "function"
    },
    {
      "constant": false,
      "inputs": [],
      "name": "onCrowdsaleEnd",
      "outputs": [],
      "payable": false,
      "stateMutability": "nonpayable",
      "type": "function"
    },
    {
      "constant": false,
      "inputs": [],
      "name": "enableCrowdsaleRefund",
      "outputs": [],
      "payable": false,
      "stateMutability": "nonpayable",
      "type": "function"
    },
    {
      "constant": false,
      "inputs": [],
      "name": "refundCrowdsaleContributor",
      "outputs": [],
      "payable": false,
      "stateMutability": "nonpayable",
      "type": "function"
    },
    {
      "constant": false,
      "inputs": [
        {
          "name": "contributorAddress",
          "type": "address"
        }
      ],
      "name": "autoRefundCrowdsaleContributor",
      "outputs": [],
      "payable": false,
      "stateMutability": "nonpayable",
      "type": "function"
    },
    {
      "constant": false,
      "inputs": [
        {
          "name": "_tap",
          "type": "uint256"
        }
      ],
      "name": "decTap",
      "outputs": [],
      "payable": false,
      "stateMutability": "nonpayable",
      "type": "function"
    },
    {
      "constant": true,
      "inputs": [],
      "name": "getCurrentTapAmount",
      "outputs": [
        {
          "name": "",
          "type": "uint256"
        }
      ],
      "payable": false,
      "stateMutability": "view",
      "type": "function"
    },
    {
      "constant": false,
      "inputs": [],
      "name": "firstWithdraw",
      "outputs": [],
      "payable": false,
      "stateMutability": "nonpayable",
      "type": "function"
    },
    {
      "constant": false,
      "inputs": [],
      "name": "withdraw",
      "outputs": [],
      "payable": false,
      "stateMutability": "nonpayable",
      "type": "function"
    },
    {
      "constant": false,
      "inputs": [],
      "name": "refundTokenHolder",
      "outputs": [],
      "payable": false,
      "stateMutability": "nonpayable",
      "type": "function"
    }
  ],
  "bytecode": "0x60806040526000600360006101000a81548160ff021916908360038111156200002457fe5b02179055506000600f5560006010553480156200004057600080fd5b5060405162002dea38038062002dea833981018060405281019080805190602001909291908051906020019092919080519060200190929190805190602001909291908051906020019092919080519060200190929190805190602001909291908051906020019092919080518201929190505050336000806101000a81548173ffffffffffffffffffffffffffffffffffffffff021916908373ffffffffffffffffffffffffffffffffffffffff16021790555088600460006101000a81548173ffffffffffffffffffffffffffffffffffffffff021916908373ffffffffffffffffffffffffffffffffffffffff16021790555087600660006101000a81548173ffffffffffffffffffffffffffffffffffffffff021916908373ffffffffffffffffffffffffffffffffffffffff16021790555086600760006101000a81548173ffffffffffffffffffffffffffffffffffffffff021916908373ffffffffffffffffffffffffffffffffffffffff16021790555085600a60006101000a81548173ffffffffffffffffffffffffffffffffffffffff021916908373ffffffffffffffffffffffffffffffffffffffff16021790555084600860006101000a81548173ffffffffffffffffffffffffffffffffffffffff021916908373ffffffffffffffffffffffffffffffffffffffff16021790555083600960006101000a81548173ffffffffffffffffffffffffffffffffffffffff021916908373ffffffffffffffffffffffffffffffffffffffff16021790555082600b60006101000a81548173ffffffffffffffffffffffffffffffffffffffff021916908373ffffffffffffffffffffffffffffffffffffffff16021790555081600d60006101000a81548173ffffffffffffffffffffffffffffffffffffffff021916908373ffffffffffffffffffffffffffffffffffffffff160217905550620003178162000326640100000000026401000000009004565b505050505050505050620005d6565b600080600091505b600180549050821015620003dc576000600260006001858154811015156200035257fe5b9060005260206000200160009054906101000a900473ffffffffffffffffffffffffffffffffffffffff1673ffffffffffffffffffffffffffffffffffffffff1673ffffffffffffffffffffffffffffffffffffffff16815260200190815260200160002060006101000a81548160ff02191690831515021790555081806001019250506200032e565b600090505b8251811015620004695760016002600085848151811015156200040057fe5b9060200190602002015173ffffffffffffffffffffffffffffffffffffffff1673ffffffffffffffffffffffffffffffffffffffff16815260200190815260200160002060006101000a81548160ff0219169083151502179055508080600101915050620003e1565b82600190805190602001906200048192919062000501565b507f9465cd279c2de393c5568ae444599e3644e3d1864ca2c05ced8a654df2aea3cb836040518080602001828103825283818151815260200191508051906020019060200280838360005b83811015620004e9578082015181840152602081019050620004cc565b505050509050019250505060405180910390a1505050565b8280548282559060005260206000209081019282156200057d579160200282015b828111156200057c5782518260006101000a81548173ffffffffffffffffffffffffffffffffffffffff021916908373ffffffffffffffffffffffffffffffffffffffff1602179055509160200191906001019062000522565b5b5090506200058c919062000590565b5090565b620005d391905b80821115620005cf57600081816101000a81549073ffffffffffffffffffffffffffffffffffffffff02191690555060010162000597565b5090565b90565b61280480620005e66000396000f3006080604052600436106101cd576000357c0100000000000000000000000000000000000000000000000000000000900463ffffffff168063025e7c27146101d2578063192f10761461023f5780631f35bc401461026a57806326a4e8d2146102ad57806326b52faf146102f057806331d2f8911461031b57806336e61cf7146103725780633b64e77e1461039f5780633ccfd60b146103b657806342e94c90146103cd578063481c6a7514610424578063599270441461047b5780636252c127146104d2578063774a97cf146104e95780637ddbf0ed1461051457806387174c3e14610557578063903171ae146105ae5780639054bbb61461060557806392a0fd6414610630578063a0e67e2b14610687578063a666ff3c146106f3578063a78a651a1461074a578063ab23151114610780578063b51459fe146107ab578063c19d93fb146107da578063c5f5ce2114610813578063cc96019f1461086a578063d0e6cfec146108c1578063e2d2a86814610918578063e9b5a2f71461095b578063eb6b192f14610972578063f190a793146109cd578063fa4d369814610a24578063fbbfe83014610a8a578063fc0c546a14610aa1578063fd22103114610af8578063ff01ffa814610b23575b600080fd5b3480156101de57600080fd5b506101fd60048036038101908080359060200190929190505050610b3a565b604051808273ffffffffffffffffffffffffffffffffffffffff1673ffffffffffffffffffffffffffffffffffffffff16815260200191505060405180910390f35b34801561024b57600080fd5b50610254610b78565b6040518082815260200191505060405180910390f35b34801561027657600080fd5b506102ab600480360381019080803573ffffffffffffffffffffffffffffffffffffffff169060200190929190505050610b7e565b005b3480156102b957600080fd5b506102ee600480360381019080803573ffffffffffffffffffffffffffffffffffffffff169060200190929190505050610c7e565b005b3480156102fc57600080fd5b50610305610d7e565b6040518082815260200191505060405180910390f35b34801561032757600080fd5b50610330610d84565b604051808273ffffffffffffffffffffffffffffffffffffffff1673ffffffffffffffffffffffffffffffffffffffff16815260200191505060405180910390f35b34801561037e57600080fd5b5061039d60048036038101908080359060200190929190505050610daa565b005b3480156103ab57600080fd5b506103b4610e57565b005b3480156103c257600080fd5b506103cb610f0d565b005b3480156103d957600080fd5b5061040e600480360381019080803573ffffffffffffffffffffffffffffffffffffffff169060200190929190505050611071565b6040518082815260200191505060405180910390f35b34801561043057600080fd5b50610439611089565b604051808273ffffffffffffffffffffffffffffffffffffffff1673ffffffffffffffffffffffffffffffffffffffff16815260200191505060405180910390f35b34801561048757600080fd5b506104906110ae565b604051808273ffffffffffffffffffffffffffffffffffffffff1673ffffffffffffffffffffffffffffffffffffffff16815260200191505060405180910390f35b3480156104de57600080fd5b506104e76110d4565b005b3480156104f557600080fd5b506104fe611248565b6040518082815260200191505060405180910390f35b34801561052057600080fd5b50610555600480360381019080803573ffffffffffffffffffffffffffffffffffffffff169060200190929190505050611290565b005b34801561056357600080fd5b5061056c611390565b604051808273ffffffffffffffffffffffffffffffffffffffff1673ffffffffffffffffffffffffffffffffffffffff16815260200191505060405180910390f35b3480156105ba57600080fd5b506105c36113b6565b604051808273ffffffffffffffffffffffffffffffffffffffff1673ffffffffffffffffffffffffffffffffffffffff16815260200191505060405180910390f35b34801561061157600080fd5b5061061a6113dc565b6040518082815260200191505060405180910390f35b34801561063c57600080fd5b506106456113e6565b604051808273ffffffffffffffffffffffffffffffffffffffff1673ffffffffffffffffffffffffffffffffffffffff16815260200191505060405180910390f35b34801561069357600080fd5b5061069c61140c565b6040518080602001828103825283818151815260200191508051906020019060200280838360005b838110156106df5780820151818401526020810190506106c4565b505050509050019250505060405180910390f35b3480156106ff57600080fd5b5061070861149a565b604051808273ffffffffffffffffffffffffffffffffffffffff1673ffffffffffffffffffffffffffffffffffffffff16815260200191505060405180910390f35b61077e600480360381019080803573ffffffffffffffffffffffffffffffffffffffff1690602001909291905050506114c0565b005b34801561078c57600080fd5b506107956115e5565b6040518082815260200191505060405180910390f35b3480156107b757600080fd5b506107c06115eb565b604051808215151515815260200191505060405180910390f35b3480156107e657600080fd5b506107ef6115f0565b604051808260038111156107ff57fe5b60ff16815260200191505060405180910390f35b34801561081f57600080fd5b50610828611603565b604051808273ffffffffffffffffffffffffffffffffffffffff1673ffffffffffffffffffffffffffffffffffffffff16815260200191505060405180910390f35b34801561087657600080fd5b5061087f611629565b604051808273ffffffffffffffffffffffffffffffffffffffff1673ffffffffffffffffffffffffffffffffffffffff16815260200191505060405180910390f35b3480156108cd57600080fd5b506108d661164f565b604051808273ffffffffffffffffffffffffffffffffffffffff1673ffffffffffffffffffffffffffffffffffffffff16815260200191505060405180910390f35b34801561092457600080fd5b50610959600480360381019080803573ffffffffffffffffffffffffffffffffffffffff169060200190929190505050611675565b005b34801561096757600080fd5b50610970611ac9565b005b34801561097e57600080fd5b506109b3600480360381019080803573ffffffffffffffffffffffffffffffffffffffff169060200190929190505050611c06565b604051808215151515815260200191505060405180910390f35b3480156109d957600080fd5b506109e2611c26565b604051808273ffffffffffffffffffffffffffffffffffffffff1673ffffffffffffffffffffffffffffffffffffffff16815260200191505060405180910390f35b348015610a3057600080fd5b50610a8860048036038101908080359060200190820180359060200190808060200260200160405190810160405280939291908181526020018383602002808284378201915050505050509192919290505050611c4c565b005b348015610a9657600080fd5b50610a9f611cb3565b005b348015610aad57600080fd5b50610ab6612090565b604051808273ffffffffffffffffffffffffffffffffffffffff1673ffffffffffffffffffffffffffffffffffffffff16815260200191505060405180910390f35b348015610b0457600080fd5b50610b0d6120b6565b6040518082815260200191505060405180910390f35b348015610b2f57600080fd5b50610b386120bc565b005b600181815481101515610b4957fe5b906000526020600020016000915054906101000a900473ffffffffffffffffffffffffffffffffffffffff1681565b60055481565b60011515600260003373ffffffffffffffffffffffffffffffffffffffff1673ffffffffffffffffffffffffffffffffffffffff16815260200190815260200160002060009054906101000a900460ff161515141515610bdd57600080fd5b600073ffffffffffffffffffffffffffffffffffffffff16601160009054906101000a900473ffffffffffffffffffffffffffffffffffffffff1673ffffffffffffffffffffffffffffffffffffffff16141515610c3a57600080fd5b80601160006101000a81548173ffffffffffffffffffffffffffffffffffffffff021916908373ffffffffffffffffffffffffffffffffffffffff16021790555050565b60011515600260003373ffffffffffffffffffffffffffffffffffffffff1673ffffffffffffffffffffffffffffffffffffffff16815260200190815260200160002060009054906101000a900460ff161515141515610cdd57600080fd5b600073ffffffffffffffffffffffffffffffffffffffff16600360019054906101000a900473ffffffffffffffffffffffffffffffffffffffff1673ffffffffffffffffffffffffffffffffffffffff16141515610d3a57600080fd5b80600360016101000a81548173ffffffffffffffffffffffffffffffffffffffff021916908373ffffffffffffffffffffffffffffffffffffffff16021790555050565b60105481565b601160009054906101000a900473ffffffffffffffffffffffffffffffffffffffff1681565b60011515600260003373ffffffffffffffffffffffffffffffffffffffff1673ffffffffffffffffffffffffffffffffffffffff16815260200190815260200160002060009054906101000a900460ff161515141515610e0957600080fd5b60026003811115610e1657fe5b600360009054906101000a900460ff166003811115610e3157fe5b141515610e3d57600080fd5b600e5481101515610e4d57600080fd5b80600e8190555050565b601160009054906101000a900473ffffffffffffffffffffffffffffffffffffffff1673ffffffffffffffffffffffffffffffffffffffff163373ffffffffffffffffffffffffffffffffffffffff16141515610eb357600080fd5b60006003811115610ec057fe5b600360009054906101000a900460ff166003811115610edb57fe5b141515610ee757600080fd5b6001600360006101000a81548160ff02191690836003811115610f0657fe5b0217905550565b600060011515600260003373ffffffffffffffffffffffffffffffffffffffff1673ffffffffffffffffffffffffffffffffffffffff16815260200190815260200160002060009054906101000a900460ff161515141515610f6e57600080fd5b610f766115eb565b1515610f8157600080fd5b60026003811115610f8e57fe5b600360009054906101000a900460ff166003811115610fa957fe5b141515610fb557600080fd5b610fbd612458565b905042600f81905550600460009054906101000a900473ffffffffffffffffffffffffffffffffffffffff1673ffffffffffffffffffffffffffffffffffffffff166108fc829081150290604051600060405180830381858888f1935050505015801561102e573d6000803e3d6000fd5b507f56ca301a9219608c91e7bcee90e083c19671d2cdcc96752c7af291cee5f9c8c88142604051808381526020018281526020019250505060405180910390a150565b60126020528060005260406000206000915090505481565b6000809054906101000a900473ffffffffffffffffffffffffffffffffffffffff1681565b600460009054906101000a900473ffffffffffffffffffffffffffffffffffffffff1681565b6000601160009054906101000a900473ffffffffffffffffffffffffffffffffffffffff1673ffffffffffffffffffffffffffffffffffffffff163373ffffffffffffffffffffffffffffffffffffffff1614151561113257600080fd5b6002600360006101000a81548160ff0219169083600381111561115157fe5b0217905550601160009054906101000a900473ffffffffffffffffffffffffffffffffffffffff1690506112248173ffffffffffffffffffffffffffffffffffffffff16634d52a5126040518163ffffffff167c0100000000000000000000000000000000000000000000000000000000028152600401602060405180830381600087803b1580156111e257600080fd5b505af11580156111f6573d6000803e3d6000fd5b505050506040513d602081101561120c57600080fd5b810190808051906020019092919050505060026124b5565b60108190555042600f8190555065af7151902add600e819055504260058190555050565b60006002600381111561125757fe5b600360009054906101000a900460ff16600381111561127257fe5b141515611282576000905061128d565b61128a612458565b90505b90565b60011515600260003373ffffffffffffffffffffffffffffffffffffffff1673ffffffffffffffffffffffffffffffffffffffff16815260200190815260200160002060009054906101000a900460ff1615151415156112ef57600080fd5b600073ffffffffffffffffffffffffffffffffffffffff16600c60009054906101000a900473ffffffffffffffffffffffffffffffffffffffff1673ffffffffffffffffffffffffffffffffffffffff1614151561134c57600080fd5b80600c60006101000a81548173ffffffffffffffffffffffffffffffffffffffff021916908373ffffffffffffffffffffffffffffffffffffffff16021790555050565b600d60009054906101000a900473ffffffffffffffffffffffffffffffffffffffff1681565b600760009054906101000a900473ffffffffffffffffffffffffffffffffffffffff1681565b65af7151902add81565b600860009054906101000a900473ffffffffffffffffffffffffffffffffffffffff1681565b6060600180548060200260200160405190810160405280929190818152602001828054801561149057602002820191906000526020600020905b8160009054906101000a900473ffffffffffffffffffffffffffffffffffffffff1673ffffffffffffffffffffffffffffffffffffffff1681526020019060010190808311611446575b5050505050905090565b600c60009054906101000a900473ffffffffffffffffffffffffffffffffffffffff1681565b6000601160009054906101000a900473ffffffffffffffffffffffffffffffffffffffff1673ffffffffffffffffffffffffffffffffffffffff163373ffffffffffffffffffffffffffffffffffffffff1614151561151e57600080fd5b6000600381111561152b57fe5b600360009054906101000a900460ff16600381111561154657fe5b14151561155257600080fd5b61159b601260008473ffffffffffffffffffffffffffffffffffffffff1673ffffffffffffffffffffffffffffffffffffffff16815260200190815260200160002054346124d0565b905080601260008473ffffffffffffffffffffffffffffffffffffffff1673ffffffffffffffffffffffffffffffffffffffff168152602001908152602001600020819055505050565b600f5481565b600090565b600360009054906101000a900460ff1681565b600b60009054906101000a900473ffffffffffffffffffffffffffffffffffffffff1681565b600660009054906101000a900473ffffffffffffffffffffffffffffffffffffffff1681565b600960009054906101000a900473ffffffffffffffffffffffffffffffffffffffff1681565b600060011515600260003373ffffffffffffffffffffffffffffffffffffffff1673ffffffffffffffffffffffffffffffffffffffff16815260200190815260200160002060009054906101000a900460ff16151514806117235750600d60009054906101000a900473ffffffffffffffffffffffffffffffffffffffff1673ffffffffffffffffffffffffffffffffffffffff163373ffffffffffffffffffffffffffffffffffffffff16145b151561172e57600080fd5b6001600381111561173b57fe5b600360009054906101000a900460ff16600381111561175657fe5b14151561176257600080fd5b6000601260008473ffffffffffffffffffffffffffffffffffffffff1673ffffffffffffffffffffffffffffffffffffffff168152602001908152602001600020541115156117b057600080fd5b601260008373ffffffffffffffffffffffffffffffffffffffff1673ffffffffffffffffffffffffffffffffffffffff1681526020019081526020016000205490506000601260008473ffffffffffffffffffffffffffffffffffffffff1673ffffffffffffffffffffffffffffffffffffffff16815260200190815260200160002081905550600360019054906101000a900473ffffffffffffffffffffffffffffffffffffffff1673ffffffffffffffffffffffffffffffffffffffff1663a24835d183600360019054906101000a900473ffffffffffffffffffffffffffffffffffffffff1673ffffffffffffffffffffffffffffffffffffffff166370a08231866040518263ffffffff167c0100000000000000000000000000000000000000000000000000000000028152600401808273ffffffffffffffffffffffffffffffffffffffff1673ffffffffffffffffffffffffffffffffffffffff168152602001915050602060405180830381600087803b15801561193357600080fd5b505af1158015611947573d6000803e3d6000fd5b505050506040513d602081101561195d57600080fd5b81019080805190602001909291905050506040518363ffffffff167c0100000000000000000000000000000000000000000000000000000000028152600401808373ffffffffffffffffffffffffffffffffffffffff1673ffffffffffffffffffffffffffffffffffffffff16815260200182815260200192505050600060405180830381600087803b1580156119f357600080fd5b505af1158015611a07573d6000803e3d6000fd5b505050508173ffffffffffffffffffffffffffffffffffffffff166108fc829081150290604051600060405180830381858888f19350505050158015611a51573d6000803e3d6000fd5b507fec44c8b7c9108bd9d48e9a929c78d5a448562d61b1113d016ba7fd99d7dc3c7c828242604051808473ffffffffffffffffffffffffffffffffffffffff1673ffffffffffffffffffffffffffffffffffffffff168152602001838152602001828152602001935050505060405180910390a15050565b600060011515600260003373ffffffffffffffffffffffffffffffffffffffff1673ffffffffffffffffffffffffffffffffffffffff16815260200190815260200160002060009054906101000a900460ff161515141515611b2a57600080fd5b611b326115eb565b1515611b3d57600080fd5b6000601054111515611b4e57600080fd5b60105490506000601081905550600460009054906101000a900473ffffffffffffffffffffffffffffffffffffffff1673ffffffffffffffffffffffffffffffffffffffff166108fc829081150290604051600060405180830381858888f19350505050158015611bc3573d6000803e3d6000fd5b507f56ca301a9219608c91e7bcee90e083c19671d2cdcc96752c7af291cee5f9c8c88142604051808381526020018281526020019250505060405180910390a150565b60026020528060005260406000206000915054906101000a900460ff1681565b600a60009054906101000a900473ffffffffffffffffffffffffffffffffffffffff1681565b6000809054906101000a900473ffffffffffffffffffffffffffffffffffffffff1673ffffffffffffffffffffffffffffffffffffffff163373ffffffffffffffffffffffffffffffffffffffff16141515611ca757600080fd5b611cb0816124ee565b50565b600080600380811115611cc257fe5b600360009054906101000a900460ff166003811115611cdd57fe5b141515611ce957600080fd5b600360019054906101000a900473ffffffffffffffffffffffffffffffffffffffff1673ffffffffffffffffffffffffffffffffffffffff166370a08231336040518263ffffffff167c0100000000000000000000000000000000000000000000000000000000028152600401808273ffffffffffffffffffffffffffffffffffffffff1673ffffffffffffffffffffffffffffffffffffffff168152602001915050602060405180830381600087803b158015611da657600080fd5b505af1158015611dba573d6000803e3d6000fd5b505050506040513d6020811015611dd057600080fd5b81019080805190602001909291905050509150600082111515611df257600080fd5b611edc611e16833073ffffffffffffffffffffffffffffffffffffffff16316126bf565b600360019054906101000a900473ffffffffffffffffffffffffffffffffffffffff1673ffffffffffffffffffffffffffffffffffffffff166318160ddd6040518163ffffffff167c0100000000000000000000000000000000000000000000000000000000028152600401602060405180830381600087803b158015611e9c57600080fd5b505af1158015611eb0573d6000803e3d6000fd5b505050506040513d6020811015611ec657600080fd5b81019080805190602001909291905050506124b5565b9050600081111515611eed57600080fd5b600360019054906101000a900473ffffffffffffffffffffffffffffffffffffffff1673ffffffffffffffffffffffffffffffffffffffff1663a24835d133846040518363ffffffff167c0100000000000000000000000000000000000000000000000000000000028152600401808373ffffffffffffffffffffffffffffffffffffffff1673ffffffffffffffffffffffffffffffffffffffff16815260200182815260200192505050600060405180830381600087803b158015611fb257600080fd5b505af1158015611fc6573d6000803e3d6000fd5b505050503373ffffffffffffffffffffffffffffffffffffffff166108fc829081150290604051600060405180830381858888f19350505050158015612010573d6000803e3d6000fd5b507f2fe53133356d775fd6784d23de274186e0721e0d93074ae2392acb8968bb2e5133828442604051808573ffffffffffffffffffffffffffffffffffffffff1673ffffffffffffffffffffffffffffffffffffffff16815260200184815260200183815260200182815260200194505050505060405180910390a15050565b600360019054906101000a900473ffffffffffffffffffffffffffffffffffffffff1681565b600e5481565b6000600160038111156120cb57fe5b600360009054906101000a900460ff1660038111156120e657fe5b1415156120f257600080fd5b6000601260003373ffffffffffffffffffffffffffffffffffffffff1673ffffffffffffffffffffffffffffffffffffffff1681526020019081526020016000205411151561214057600080fd5b601260003373ffffffffffffffffffffffffffffffffffffffff1673ffffffffffffffffffffffffffffffffffffffff1681526020019081526020016000205490506000601260003373ffffffffffffffffffffffffffffffffffffffff1673ffffffffffffffffffffffffffffffffffffffff16815260200190815260200160002081905550600360019054906101000a900473ffffffffffffffffffffffffffffffffffffffff1673ffffffffffffffffffffffffffffffffffffffff1663a24835d133600360019054906101000a900473ffffffffffffffffffffffffffffffffffffffff1673ffffffffffffffffffffffffffffffffffffffff166370a08231336040518263ffffffff167c0100000000000000000000000000000000000000000000000000000000028152600401808273ffffffffffffffffffffffffffffffffffffffff1673ffffffffffffffffffffffffffffffffffffffff168152602001915050602060405180830381600087803b1580156122c357600080fd5b505af11580156122d7573d6000803e3d6000fd5b505050506040513d60208110156122ed57600080fd5b81019080805190602001909291905050506040518363ffffffff167c0100000000000000000000000000000000000000000000000000000000028152600401808373ffffffffffffffffffffffffffffffffffffffff1673ffffffffffffffffffffffffffffffffffffffff16815260200182815260200192505050600060405180830381600087803b15801561238357600080fd5b505af1158015612397573d6000803e3d6000fd5b505050503373ffffffffffffffffffffffffffffffffffffffff166108fc829081150290604051600060405180830381858888f193505050501580156123e1573d6000803e3d6000fd5b507fec44c8b7c9108bd9d48e9a929c78d5a448562d61b1113d016ba7fd99d7dc3c7c338242604051808473ffffffffffffffffffffffffffffffffffffffff1673ffffffffffffffffffffffffffffffffffffffff168152602001838152602001828152602001935050505060405180910390a150565b60008061247261246a42600f546126f2565b600e546126bf565b9050803073ffffffffffffffffffffffffffffffffffffffff163110156124ae573073ffffffffffffffffffffffffffffffffffffffff163190505b8091505090565b60008082848115156124c357fe5b0490508091505092915050565b60008082840190508381101515156124e457fe5b8091505092915050565b600080600091505b6001805490508210156125a15760006002600060018581548110151561251857fe5b9060005260206000200160009054906101000a900473ffffffffffffffffffffffffffffffffffffffff1673ffffffffffffffffffffffffffffffffffffffff1673ffffffffffffffffffffffffffffffffffffffff16815260200190815260200160002060006101000a81548160ff02191690831515021790555081806001019250506124f6565b600090505b825181101561262b5760016002600085848151811015156125c357fe5b9060200190602002015173ffffffffffffffffffffffffffffffffffffffff1673ffffffffffffffffffffffffffffffffffffffff16815260200190815260200160002060006101000a81548160ff02191690831515021790555080806001019150506125a6565b826001908051906020019061264192919061270b565b507f9465cd279c2de393c5568ae444599e3644e3d1864ca2c05ced8a654df2aea3cb836040518080602001828103825283818151815260200191508051906020019060200280838360005b838110156126a757808201518184015260208101905061268c565b505050509050019250505060405180910390a1505050565b600080828402905060008414806126e057508284828115156126dd57fe5b04145b15156126e857fe5b8091505092915050565b600081831015151561270057fe5b818303905092915050565b828054828255906000526020600020908101928215612784579160200282015b828111156127835782518260006101000a81548173ffffffffffffffffffffffffffffffffffffffff021916908373ffffffffffffffffffffffffffffffffffffffff1602179055509160200191906001019061272b565b5b5090506127919190612795565b5090565b6127d591905b808211156127d157600081816101000a81549073ffffffffffffffffffffffffffffffffffffffff02191690555060010161279b565b5090565b905600a165627a7a72305820e94ac95ab0384e2ce9c5cabfd5d3e8e6c987b1168ad705d15555e4fee05d16400029",
  "source": "pragma solidity ^0.4.21;\n\nimport './fund/ICrowdsaleFund.sol';\nimport './math/SafeMath.sol';\nimport './ownership/MultiOwnable.sol';\nimport './token/ManagedToken.sol';\nimport './ISimpleCrowdsale.sol';\n\n\ncontract Fund is ICrowdsaleFund, SafeMath, MultiOwnable {\n    enum FundState {\n        Crowdsale,\n        CrowdsaleRefund,\n        TeamWithdraw,\n        Refund\n    }\n\n    FundState public state = FundState.Crowdsale;\n    ManagedToken public token;\n\n    uint256 public constant INITIAL_TAP = 192901234567901; // (wei/sec) == 500 ether/month\n\n    address public teamWallet;\n    uint256 public crowdsaleEndDate;\n\n    address public referralTokenWallet;\n    address public foundationTokenWallet;\n    address public reserveTokenWallet;\n    address public bountyTokenWallet;\n    address public companyTokenWallet;\n    address public advisorTokenWallet;\n    address public lockedTokenAddress;\n    address public refundManager;\n\n    uint256 public tap;\n    uint256 public lastWithdrawTime = 0;\n    uint256 public firstWithdrawAmount = 0;\n\n    address public crowdsaleAddress;\n    mapping(address => uint256) public contributions;\n\n    event RefundContributor(address tokenHolder, uint256 amountWei, uint256 timestamp);\n    event RefundHolder(address tokenHolder, uint256 amountWei, uint256 tokenAmount, uint256 timestamp);\n    event Withdraw(uint256 amountWei, uint256 timestamp);\n    event RefundEnabled(address initiatorAddress);\n\n    /**\n     * @dev Fund constructor\n     * @param _teamWallet Withdraw functions transfers ether to this address\n     * @param _referralTokenWallet Referral wallet address\n     * @param _companyTokenWallet Company wallet address\n     * @param _reserveTokenWallet Reserve wallet address\n     * @param _bountyTokenWallet Bounty wallet address\n     * @param _advisorTokenWallet Advisor wallet address\n     * @param _refundManager Refund manager address\n     * @param _owners Contract owners\n     */\n    function Fund(\n        address _teamWallet,\n        address _referralTokenWallet,\n        address _foundationTokenWallet,\n        address _companyTokenWallet,\n        address _reserveTokenWallet,\n        address _bountyTokenWallet,\n        address _advisorTokenWallet,\n        address _refundManager,\n        address[] _owners\n    ) public\n    {\n        teamWallet = _teamWallet;\n        referralTokenWallet = _referralTokenWallet;\n        foundationTokenWallet = _foundationTokenWallet;\n        companyTokenWallet = _companyTokenWallet;\n        reserveTokenWallet = _reserveTokenWallet;\n        bountyTokenWallet = _bountyTokenWallet;\n        advisorTokenWallet = _advisorTokenWallet;\n        refundManager = _refundManager;\n        _setOwners(_owners);\n    }\n\n    modifier withdrawEnabled() {\n        require(canWithdraw());\n        _;\n    }\n\n    modifier onlyCrowdsale() {\n        require(msg.sender == crowdsaleAddress);\n        _;\n    }\n\n    function canWithdraw() public returns(bool) {\n\n    }\n\n    function setCrowdsaleAddress(address _crowdsaleAddress) public onlyOwner {\n        require(crowdsaleAddress == address(0));\n        crowdsaleAddress = _crowdsaleAddress;\n    }\n\n    function setTokenAddress(address _tokenAddress) public onlyOwner {\n        require(address(token) == address(0));\n        token = ManagedToken(_tokenAddress);\n    }\n\n    function setLockedTokenAddress(address _lockedTokenAddress) public onlyOwner {\n        require(address(lockedTokenAddress) == address(0));\n        lockedTokenAddress = _lockedTokenAddress;\n    }\n\n    /**\n     * @dev Process crowdsale contribution\n     */\n    function processContribution(address contributor) external payable onlyCrowdsale {\n        require(state == FundState.Crowdsale);\n        uint256 totalContribution = safeAdd(contributions[contributor], msg.value);\n        contributions[contributor] = totalContribution;\n    }\n\n    /**\n     * @dev Callback is called after crowdsale finalization if soft cap is reached\n     */\n    function onCrowdsaleEnd() external onlyCrowdsale {\n        state = FundState.TeamWithdraw;\n        ISimpleCrowdsale crowdsale = ISimpleCrowdsale(crowdsaleAddress);\n        firstWithdrawAmount = safeDiv(crowdsale.getSoftCap(), 2);\n        lastWithdrawTime = now;\n        tap = INITIAL_TAP;\n        crowdsaleEndDate = now;\n    }\n\n    /**\n     * @dev Callback is called after crowdsale finalization if soft cap is not reached\n     */\n    function enableCrowdsaleRefund() external onlyCrowdsale {\n        require(state == FundState.Crowdsale);\n        state = FundState.CrowdsaleRefund;\n    }\n\n    /**\n    * @dev Function is called by contributor to refund payments if crowdsale failed to reach soft cap\n    */\n    function refundCrowdsaleContributor() external {\n        require(state == FundState.CrowdsaleRefund);\n        require(contributions[msg.sender] > 0);\n\n        uint256 refundAmount = contributions[msg.sender];\n        contributions[msg.sender] = 0;\n        token.destroy(msg.sender, token.balanceOf(msg.sender));\n        msg.sender.transfer(refundAmount);\n        RefundContributor(msg.sender, refundAmount, now);\n    }\n\n    /**\n    * @dev Function is called by owner to refund payments if crowdsale failed to reach soft cap\n    */\n    function autoRefundCrowdsaleContributor(address contributorAddress) external {\n        require(ownerByAddress[msg.sender] == true || msg.sender == refundManager);\n        require(state == FundState.CrowdsaleRefund);\n        require(contributions[contributorAddress] > 0);\n\n        uint256 refundAmount = contributions[contributorAddress];\n        contributions[contributorAddress] = 0;\n        token.destroy(contributorAddress, token.balanceOf(contributorAddress));\n        contributorAddress.transfer(refundAmount);\n        RefundContributor(contributorAddress, refundAmount, now);\n    }\n\n    /**\n     * @dev Decrease tap amount\n     * @param _tap New tap value\n     */\n    function decTap(uint256 _tap) external onlyOwner {\n        require(state == FundState.TeamWithdraw);\n        require(_tap < tap);\n        tap = _tap;\n    }\n\n    function getCurrentTapAmount() public constant returns(uint256) {\n        if(state != FundState.TeamWithdraw) {\n            return 0;\n        }\n        return calcTapAmount();\n    }\n\n    function calcTapAmount() internal view returns(uint256) {\n        uint256 amount = safeMul(safeSub(now, lastWithdrawTime), tap);\n        if(address(this).balance < amount) {\n            amount = address(this).balance;\n        }\n        return amount;\n    }\n\n    function firstWithdraw() public onlyOwner withdrawEnabled {\n        require(firstWithdrawAmount > 0);\n        uint256 amount = firstWithdrawAmount;\n        firstWithdrawAmount = 0;\n        teamWallet.transfer(amount);\n        Withdraw(amount, now);\n    }\n\n    /**\n     * @dev Withdraw tap amount\n     */\n    function withdraw() public onlyOwner withdrawEnabled {\n        require(state == FundState.TeamWithdraw);\n        uint256 amount = calcTapAmount();\n        lastWithdrawTime = now;\n        teamWallet.transfer(amount);\n        Withdraw(amount, now);\n    }\n\n    // Refund\n    /**\n     * @dev Called to start refunding\n     */\n    function enableRefund() internal {\n        require(state == FundState.TeamWithdraw);\n        state = FundState.Refund;\n        token.destroy(lockedTokenAddress, token.balanceOf(lockedTokenAddress));\n        token.destroy(companyTokenWallet, token.balanceOf(companyTokenWallet));\n        token.destroy(reserveTokenWallet, token.balanceOf(reserveTokenWallet));\n        token.destroy(foundationTokenWallet, token.balanceOf(foundationTokenWallet));\n        token.destroy(bountyTokenWallet, token.balanceOf(bountyTokenWallet));\n        token.destroy(referralTokenWallet, token.balanceOf(referralTokenWallet));\n        token.destroy(advisorTokenWallet, token.balanceOf(advisorTokenWallet));\n        RefundEnabled(msg.sender);\n    }\n\n    /**\n    * @dev Function is called by contributor to refund\n    * Buy user tokens for refundTokenPrice and destroy them\n    */\n    function refundTokenHolder() public {\n        require(state == FundState.Refund);\n\n        uint256 tokenBalance = token.balanceOf(msg.sender);\n        require(tokenBalance > 0);\n        uint256 refundAmount = safeDiv(safeMul(tokenBalance, address(this).balance), token.totalSupply());\n        require(refundAmount > 0);\n\n        token.destroy(msg.sender, tokenBalance);\n        msg.sender.transfer(refundAmount);\n\n        RefundHolder(msg.sender, refundAmount, tokenBalance, now);\n    }\n}\n",
  "sourcePath": "/Users/peterpolman/Sites/daico/contracts/Fund.sol",
  "compiler": {
    "name": "solc",
    "version": "0.4.23+commit.124ca40d.Emscripten.clang"
  },
  "schemaVersion": "2.0.0",
  "updatedAt": "2018-04-28T15:10:38.440Z"
}