{
  "contractName": "LockedTokens",
  "abi": [
    {
      "constant": true,
      "inputs": [],
      "name": "crowdsaleAddress",
      "outputs": [
        {
          "name": "",
          "type": "address"
        }
      ],
      "payable": false,
      "stateMutability": "view",
      "type": "function"
    },
    {
      "constant": true,
      "inputs": [
        {
          "name": "",
          "type": "address"
        },
        {
          "name": "",
          "type": "uint256"
        }
      ],
      "name": "walletTokens",
      "outputs": [
        {
          "name": "amount",
          "type": "uint256"
        },
        {
          "name": "lockEndTime",
          "type": "uint256"
        },
        {
          "name": "released",
          "type": "bool"
        }
      ],
      "payable": false,
      "stateMutability": "view",
      "type": "function"
    },
    {
      "constant": true,
      "inputs": [],
      "name": "token",
      "outputs": [
        {
          "name": "",
          "type": "address"
        }
      ],
      "payable": false,
      "stateMutability": "view",
      "type": "function"
    },
    {
      "inputs": [
        {
          "name": "_token",
          "type": "address"
        },
        {
          "name": "_crowdsaleAddress",
          "type": "address"
        }
      ],
      "payable": false,
      "stateMutability": "nonpayable",
      "type": "constructor"
    },
    {
      "anonymous": false,
      "inputs": [
        {
          "indexed": false,
          "name": "_to",
          "type": "address"
        },
        {
          "indexed": false,
          "name": "_value",
          "type": "uint256"
        }
      ],
      "name": "TokensUnlocked",
      "type": "event"
    },
    {
      "constant": false,
      "inputs": [
        {
          "name": "_to",
          "type": "address"
        },
        {
          "name": "_amount",
          "type": "uint256"
        },
        {
          "name": "_lockEndTime",
          "type": "uint256"
        }
      ],
      "name": "addTokens",
      "outputs": [],
      "payable": false,
      "stateMutability": "nonpayable",
      "type": "function"
    },
    {
      "constant": false,
      "inputs": [],
      "name": "releaseTokens",
      "outputs": [],
      "payable": false,
      "stateMutability": "nonpayable",
      "type": "function"
    }
  ],
  "bytecode": "0x608060405234801561001057600080fd5b506040516040806108e28339810180604052810190808051906020019092919080519060200190929190505050816000806101000a81548173ffffffffffffffffffffffffffffffffffffffff021916908373ffffffffffffffffffffffffffffffffffffffff16021790555080600160006101000a81548173ffffffffffffffffffffffffffffffffffffffff021916908373ffffffffffffffffffffffffffffffffffffffff1602179055505050610813806100cf6000396000f30060806040526004361061006d576000357c0100000000000000000000000000000000000000000000000000000000900463ffffffff16806331d2f8911461007257806375090b67146100c9578063a96f86681461013c578063ca056aed14610153578063fc0c546a146101aa575b600080fd5b34801561007e57600080fd5b50610087610201565b604051808273ffffffffffffffffffffffffffffffffffffffff1673ffffffffffffffffffffffffffffffffffffffff16815260200191505060405180910390f35b3480156100d557600080fd5b50610114600480360381019080803573ffffffffffffffffffffffffffffffffffffffff16906020019092919080359060200190929190505050610227565b6040518084815260200183815260200182151515158152602001935050505060405180910390f35b34801561014857600080fd5b5061015161027a565b005b34801561015f57600080fd5b506101a8600480360381019080803573ffffffffffffffffffffffffffffffffffffffff16906020019092919080359060200190929190803590602001909291905050506106a1565b005b3480156101b657600080fd5b506101bf6107c2565b604051808273ffffffffffffffffffffffffffffffffffffffff1673ffffffffffffffffffffffffffffffffffffffff16815260200191505060405180910390f35b600160009054906101000a900473ffffffffffffffffffffffffffffffffffffffff1681565b60026020528160005260406000208181548110151561024257fe5b9060005260206000209060030201600091509150508060000154908060010154908060020160009054906101000a900460ff16905083565b600080600260003373ffffffffffffffffffffffffffffffffffffffff1673ffffffffffffffffffffffffffffffffffffffff168152602001908152602001600020805490501115156102cc57600080fd5b600090505b600260003373ffffffffffffffffffffffffffffffffffffffff1673ffffffffffffffffffffffffffffffffffffffff1681526020019081526020016000208054905081101561069e57600260003373ffffffffffffffffffffffffffffffffffffffff1673ffffffffffffffffffffffffffffffffffffffff1681526020019081526020016000208181548110151561036757fe5b906000526020600020906003020160020160009054906101000a900460ff161580156103f05750600260003373ffffffffffffffffffffffffffffffffffffffff1673ffffffffffffffffffffffffffffffffffffffff168152602001908152602001600020818154811015156103da57fe5b9060005260206000209060030201600101544210155b15610691576001600260003373ffffffffffffffffffffffffffffffffffffffff1673ffffffffffffffffffffffffffffffffffffffff1681526020019081526020016000208281548110151561044357fe5b906000526020600020906003020160020160006101000a81548160ff0219169083151502179055506000809054906101000a900473ffffffffffffffffffffffffffffffffffffffff1673ffffffffffffffffffffffffffffffffffffffff1663a9059cbb33600260003373ffffffffffffffffffffffffffffffffffffffff1673ffffffffffffffffffffffffffffffffffffffff168152602001908152602001600020848154811015156104f557fe5b9060005260206000209060030201600001546040518363ffffffff167c0100000000000000000000000000000000000000000000000000000000028152600401808373ffffffffffffffffffffffffffffffffffffffff1673ffffffffffffffffffffffffffffffffffffffff16815260200182815260200192505050602060405180830381600087803b15801561058c57600080fd5b505af11580156105a0573d6000803e3d6000fd5b505050506040513d60208110156105b657600080fd5b8101908080519060200190929190505050507fe7b379c6c1fa169e9079c25e9143b127637eef8ec8c9d5c06ddb4ab3e119588833600260003373ffffffffffffffffffffffffffffffffffffffff1673ffffffffffffffffffffffffffffffffffffffff1681526020019081526020016000208381548110151561063657fe5b906000526020600020906003020160000154604051808373ffffffffffffffffffffffffffffffffffffffff1673ffffffffffffffffffffffffffffffffffffffff1681526020018281526020019250505060405180910390a15b80806001019150506102d1565b50565b600160009054906101000a900473ffffffffffffffffffffffffffffffffffffffff1673ffffffffffffffffffffffffffffffffffffffff163373ffffffffffffffffffffffffffffffffffffffff161415156106fd57600080fd5b600260008473ffffffffffffffffffffffffffffffffffffffff1673ffffffffffffffffffffffffffffffffffffffff1681526020019081526020016000206060604051908101604052808481526020018381526020016000151581525090806001815401808255809150509060018203906000526020600020906003020160009091929091909150600082015181600001556020820151816001015560408201518160020160006101000a81548160ff021916908315150217905550505050505050565b6000809054906101000a900473ffffffffffffffffffffffffffffffffffffffff16815600a165627a7a72305820f1611ccacedb3f4f4fae0ebe0b71c1bd7634a86f8d4d1b58b68a929507d6308a0029",
  "source": "pragma solidity ^0.4.21;\n\nimport '../math/SafeMath.sol';\nimport './IERC20Token.sol';\n\n\n/**\n * @title LockedTokens\n * @dev Lock tokens for certain period of time\n */\ncontract LockedTokens is SafeMath {\n    struct Tokens {\n        uint256 amount;\n        uint256 lockEndTime;\n        bool released;\n    }\n\n    event TokensUnlocked(address _to, uint256 _value);\n\n    IERC20Token public token;\n    address public crowdsaleAddress;\n    mapping(address => Tokens[]) public walletTokens;\n\n    /**\n     * @dev LockedTokens constructor\n     * @param _token ERC20 compatible token contract\n     * @param _crowdsaleAddress Crowdsale contract address\n     */\n    function LockedTokens(IERC20Token _token, address _crowdsaleAddress) public {\n        token = _token;\n        crowdsaleAddress = _crowdsaleAddress;\n    }\n\n    /**\n     * @dev Functions locks tokens\n     * @param _to Wallet address to transfer tokens after _lockEndTime\n     * @param _amount Amount of tokens to lock\n     * @param _lockEndTime End of lock period\n     */\n    function addTokens(address _to, uint256 _amount, uint256 _lockEndTime) external {\n        require(msg.sender == crowdsaleAddress);\n        walletTokens[_to].push(Tokens({amount: _amount, lockEndTime: _lockEndTime, released: false}));\n    }\n\n    /**\n     * @dev Called by owner of locked tokens to release them\n     */\n    function releaseTokens() public {\n        require(walletTokens[msg.sender].length > 0);\n\n        for(uint256 i = 0; i < walletTokens[msg.sender].length; i++) {\n            if(!walletTokens[msg.sender][i].released && now >= walletTokens[msg.sender][i].lockEndTime) {\n                walletTokens[msg.sender][i].released = true;\n                token.transfer(msg.sender, walletTokens[msg.sender][i].amount);\n                TokensUnlocked(msg.sender, walletTokens[msg.sender][i].amount);\n            }\n        }\n    }\n}",
  "sourcePath": "/Users/peterpolman/Sites/daico/contracts/token/LockedTokens.sol",
  "compiler": {
    "name": "solc",
    "version": "0.4.23+commit.124ca40d.Emscripten.clang"
  },
  "schemaVersion": "2.0.0",
  "updatedAt": "2018-04-28T15:10:38.452Z"
}