{
  "contractName": "MultiOwnable",
  "abi": [
    {
      "constant": true,
      "inputs": [
        {
          "name": "",
          "type": "uint256"
        }
      ],
      "name": "owners",
      "outputs": [
        {
          "name": "",
          "type": "address"
        }
      ],
      "payable": false,
      "stateMutability": "view",
      "type": "function"
    },
    {
      "constant": true,
      "inputs": [],
      "name": "manager",
      "outputs": [
        {
          "name": "",
          "type": "address"
        }
      ],
      "payable": false,
      "stateMutability": "view",
      "type": "function"
    },
    {
      "constant": true,
      "inputs": [
        {
          "name": "",
          "type": "address"
        }
      ],
      "name": "ownerByAddress",
      "outputs": [
        {
          "name": "",
          "type": "bool"
        }
      ],
      "payable": false,
      "stateMutability": "view",
      "type": "function"
    },
    {
      "inputs": [],
      "payable": false,
      "stateMutability": "nonpayable",
      "type": "constructor"
    },
    {
      "anonymous": false,
      "inputs": [
        {
          "indexed": false,
          "name": "owners",
          "type": "address[]"
        }
      ],
      "name": "SetOwners",
      "type": "event"
    },
    {
      "constant": false,
      "inputs": [
        {
          "name": "_owners",
          "type": "address[]"
        }
      ],
      "name": "setOwners",
      "outputs": [],
      "payable": false,
      "stateMutability": "nonpayable",
      "type": "function"
    },
    {
      "constant": true,
      "inputs": [],
      "name": "getOwners",
      "outputs": [
        {
          "name": "",
          "type": "address[]"
        }
      ],
      "payable": false,
      "stateMutability": "view",
      "type": "function"
    }
  ],
  "bytecode": "0x608060405234801561001057600080fd5b50336000806101000a81548173ffffffffffffffffffffffffffffffffffffffff021916908373ffffffffffffffffffffffffffffffffffffffff1602179055506106a5806100606000396000f30060806040526004361061006d576000357c0100000000000000000000000000000000000000000000000000000000900463ffffffff168063025e7c2714610072578063481c6a75146100df578063a0e67e2b14610136578063eb6b192f146101a2578063fa4d3698146101fd575b600080fd5b34801561007e57600080fd5b5061009d60048036038101908080359060200190929190505050610263565b604051808273ffffffffffffffffffffffffffffffffffffffff1673ffffffffffffffffffffffffffffffffffffffff16815260200191505060405180910390f35b3480156100eb57600080fd5b506100f46102a1565b604051808273ffffffffffffffffffffffffffffffffffffffff1673ffffffffffffffffffffffffffffffffffffffff16815260200191505060405180910390f35b34801561014257600080fd5b5061014b6102c6565b6040518080602001828103825283818151815260200191508051906020019060200280838360005b8381101561018e578082015181840152602081019050610173565b505050509050019250505060405180910390f35b3480156101ae57600080fd5b506101e3600480360381019080803573ffffffffffffffffffffffffffffffffffffffff169060200190929190505050610354565b604051808215151515815260200191505060405180910390f35b34801561020957600080fd5b5061026160048036038101908080359060200190820180359060200190808060200260200160405190810160405280939291908181526020018383602002808284378201915050505050509192919290505050610374565b005b60018181548110151561027257fe5b906000526020600020016000915054906101000a900473ffffffffffffffffffffffffffffffffffffffff1681565b6000809054906101000a900473ffffffffffffffffffffffffffffffffffffffff1681565b6060600180548060200260200160405190810160405280929190818152602001828054801561034a57602002820191906000526020600020905b8160009054906101000a900473ffffffffffffffffffffffffffffffffffffffff1673ffffffffffffffffffffffffffffffffffffffff1681526020019060010190808311610300575b5050505050905090565b60026020528060005260406000206000915054906101000a900460ff1681565b6000809054906101000a900473ffffffffffffffffffffffffffffffffffffffff1673ffffffffffffffffffffffffffffffffffffffff163373ffffffffffffffffffffffffffffffffffffffff161415156103cf57600080fd5b6103d8816103db565b50565b600080600091505b60018054905082101561048e5760006002600060018581548110151561040557fe5b9060005260206000200160009054906101000a900473ffffffffffffffffffffffffffffffffffffffff1673ffffffffffffffffffffffffffffffffffffffff1673ffffffffffffffffffffffffffffffffffffffff16815260200190815260200160002060006101000a81548160ff02191690831515021790555081806001019250506103e3565b600090505b82518110156105185760016002600085848151811015156104b057fe5b9060200190602002015173ffffffffffffffffffffffffffffffffffffffff1673ffffffffffffffffffffffffffffffffffffffff16815260200190815260200160002060006101000a81548160ff0219169083151502179055508080600101915050610493565b826001908051906020019061052e9291906105ac565b507f9465cd279c2de393c5568ae444599e3644e3d1864ca2c05ced8a654df2aea3cb836040518080602001828103825283818151815260200191508051906020019060200280838360005b83811015610594578082015181840152602081019050610579565b505050509050019250505060405180910390a1505050565b828054828255906000526020600020908101928215610625579160200282015b828111156106245782518260006101000a81548173ffffffffffffffffffffffffffffffffffffffff021916908373ffffffffffffffffffffffffffffffffffffffff160217905550916020019190600101906105cc565b5b5090506106329190610636565b5090565b61067691905b8082111561067257600081816101000a81549073ffffffffffffffffffffffffffffffffffffffff02191690555060010161063c565b5090565b905600a165627a7a72305820acfd77b63ccba000553c96d88239aca55f9f017d385403f29d3a7fe6d5db15560029",
  "source": "pragma solidity ^0.4.21;\n\n\n/**\n * @title MultiOwnable\n * @dev The MultiOwnable contract has owners addresses and provides basic authorization control\n * functions, this simplifies the implementation of \"users permissions\".\n */\ncontract MultiOwnable {\n    address public manager; // address used to set owners\n    address[] public owners;\n    mapping(address => bool) public ownerByAddress;\n\n    event SetOwners(address[] owners);\n\n    modifier onlyOwner() {\n        require(ownerByAddress[msg.sender] == true);\n        _;\n    }\n\n    /**\n     * @dev MultiOwnable constructor sets the manager\n     */\n    function MultiOwnable() public {\n        manager = msg.sender;\n    }\n\n    /**\n     * @dev Function to set owners addresses\n     */\n    function setOwners(address[] _owners) public {\n        require(msg.sender == manager);\n        _setOwners(_owners);\n\n    }\n\n    function _setOwners(address[] _owners) internal {\n        for(uint256 i = 0; i < owners.length; i++) {\n            ownerByAddress[owners[i]] = false;\n        }\n\n\n        for(uint256 j = 0; j < _owners.length; j++) {\n            ownerByAddress[_owners[j]] = true;\n        }\n        owners = _owners;\n        SetOwners(_owners);\n    }\n\n    function getOwners() public constant returns (address[]) {\n        return owners;\n    }\n}",
  "sourcePath": "/Users/peterpolman/Sites/daico/contracts/ownership/MultiOwnable.sol",
  "compiler": {
    "name": "solc",
    "version": "0.4.23+commit.124ca40d.Emscripten.clang"
  },
  "schemaVersion": "2.0.0",
  "updatedAt": "2018-04-28T15:10:38.449Z"
}