{
  "contractName": "PollManagedFund",
  "abi": [
    {
      "constant": true,
      "inputs": [
        {
          "name": "",
          "type": "uint256"
        }
      ],
      "name": "owners",
      "outputs": [
        {
          "name": "",
          "type": "address"
        }
      ],
      "payable": false,
      "stateMutability": "view",
      "type": "function"
    },
    {
      "constant": true,
      "inputs": [],
      "name": "TAP_POLL_DURATION",
      "outputs": [
        {
          "name": "",
          "type": "uint256"
        }
      ],
      "payable": false,
      "stateMutability": "view",
      "type": "function"
    },
    {
      "constant": true,
      "inputs": [],
      "name": "REFUND_POLL_DURATION",
      "outputs": [
        {
          "name": "",
          "type": "uint256"
        }
      ],
      "payable": false,
      "stateMutability": "view",
      "type": "function"
    },
    {
      "constant": true,
      "inputs": [],
      "name": "crowdsaleEndDate",
      "outputs": [
        {
          "name": "",
          "type": "uint256"
        }
      ],
      "payable": false,
      "stateMutability": "view",
      "type": "function"
    },
    {
      "constant": false,
      "inputs": [
        {
          "name": "_crowdsaleAddress",
          "type": "address"
        }
      ],
      "name": "setCrowdsaleAddress",
      "outputs": [],
      "payable": false,
      "stateMutability": "nonpayable",
      "type": "function"
    },
    {
      "constant": false,
      "inputs": [
        {
          "name": "_tokenAddress",
          "type": "address"
        }
      ],
      "name": "setTokenAddress",
      "outputs": [],
      "payable": false,
      "stateMutability": "nonpayable",
      "type": "function"
    },
    {
      "constant": true,
      "inputs": [],
      "name": "firstWithdrawAmount",
      "outputs": [
        {
          "name": "",
          "type": "uint256"
        }
      ],
      "payable": false,
      "stateMutability": "view",
      "type": "function"
    },
    {
      "constant": true,
      "inputs": [],
      "name": "crowdsaleAddress",
      "outputs": [
        {
          "name": "",
          "type": "address"
        }
      ],
      "payable": false,
      "stateMutability": "view",
      "type": "function"
    },
    {
      "constant": false,
      "inputs": [
        {
          "name": "_tap",
          "type": "uint256"
        }
      ],
      "name": "decTap",
      "outputs": [],
      "payable": false,
      "stateMutability": "nonpayable",
      "type": "function"
    },
    {
      "constant": false,
      "inputs": [],
      "name": "enableCrowdsaleRefund",
      "outputs": [],
      "payable": false,
      "stateMutability": "nonpayable",
      "type": "function"
    },
    {
      "constant": false,
      "inputs": [],
      "name": "withdraw",
      "outputs": [],
      "payable": false,
      "stateMutability": "nonpayable",
      "type": "function"
    },
    {
      "constant": true,
      "inputs": [
        {
          "name": "timestamp",
          "type": "uint256"
        }
      ],
      "name": "getHour",
      "outputs": [
        {
          "name": "",
          "type": "uint8"
        }
      ],
      "payable": false,
      "stateMutability": "pure",
      "type": "function"
    },
    {
      "constant": true,
      "inputs": [
        {
          "name": "",
          "type": "address"
        }
      ],
      "name": "contributions",
      "outputs": [
        {
          "name": "",
          "type": "uint256"
        }
      ],
      "payable": false,
      "stateMutability": "view",
      "type": "function"
    },
    {
      "constant": true,
      "inputs": [],
      "name": "manager",
      "outputs": [
        {
          "name": "",
          "type": "address"
        }
      ],
      "payable": false,
      "stateMutability": "view",
      "type": "function"
    },
    {
      "constant": true,
      "inputs": [
        {
          "name": "timestamp",
          "type": "uint256"
        }
      ],
      "name": "getWeekday",
      "outputs": [
        {
          "name": "",
          "type": "uint8"
        }
      ],
      "payable": false,
      "stateMutability": "pure",
      "type": "function"
    },
    {
      "constant": true,
      "inputs": [],
      "name": "teamWallet",
      "outputs": [
        {
          "name": "",
          "type": "address"
        }
      ],
      "payable": false,
      "stateMutability": "view",
      "type": "function"
    },
    {
      "constant": true,
      "inputs": [
        {
          "name": "",
          "type": "uint256"
        }
      ],
      "name": "refundPollDates",
      "outputs": [
        {
          "name": "",
          "type": "uint256"
        }
      ],
      "payable": false,
      "stateMutability": "view",
      "type": "function"
    },
    {
      "constant": false,
      "inputs": [],
      "name": "onCrowdsaleEnd",
      "outputs": [],
      "payable": false,
      "stateMutability": "nonpayable",
      "type": "function"
    },
    {
      "constant": true,
      "inputs": [
        {
          "name": "year",
          "type": "uint16"
        },
        {
          "name": "month",
          "type": "uint8"
        },
        {
          "name": "day",
          "type": "uint8"
        },
        {
          "name": "hour",
          "type": "uint8"
        },
        {
          "name": "minute",
          "type": "uint8"
        }
      ],
      "name": "toTimestamp",
      "outputs": [
        {
          "name": "timestamp",
          "type": "uint256"
        }
      ],
      "payable": false,
      "stateMutability": "pure",
      "type": "function"
    },
    {
      "constant": true,
      "inputs": [
        {
          "name": "timestamp",
          "type": "uint256"
        }
      ],
      "name": "getDay",
      "outputs": [
        {
          "name": "",
          "type": "uint8"
        }
      ],
      "payable": false,
      "stateMutability": "pure",
      "type": "function"
    },
    {
      "constant": true,
      "inputs": [],
      "name": "getCurrentTapAmount",
      "outputs": [
        {
          "name": "",
          "type": "uint256"
        }
      ],
      "payable": false,
      "stateMutability": "view",
      "type": "function"
    },
    {
      "constant": false,
      "inputs": [
        {
          "name": "_lockedTokenAddress",
          "type": "address"
        }
      ],
      "name": "setLockedTokenAddress",
      "outputs": [],
      "payable": false,
      "stateMutability": "nonpayable",
      "type": "function"
    },
    {
      "constant": true,
      "inputs": [
        {
          "name": "year",
          "type": "uint16"
        },
        {
          "name": "month",
          "type": "uint8"
        },
        {
          "name": "day",
          "type": "uint8"
        },
        {
          "name": "hour",
          "type": "uint8"
        }
      ],
      "name": "toTimestamp",
      "outputs": [
        {
          "name": "timestamp",
          "type": "uint256"
        }
      ],
      "payable": false,
      "stateMutability": "pure",
      "type": "function"
    },
    {
      "constant": true,
      "inputs": [],
      "name": "minVotedTokensPerc",
      "outputs": [
        {
          "name": "",
          "type": "uint256"
        }
      ],
      "payable": false,
      "stateMutability": "view",
      "type": "function"
    },
    {
      "constant": true,
      "inputs": [],
      "name": "refundManager",
      "outputs": [
        {
          "name": "",
          "type": "address"
        }
      ],
      "payable": false,
      "stateMutability": "view",
      "type": "function"
    },
    {
      "constant": true,
      "inputs": [],
      "name": "isWithdrawEnabled",
      "outputs": [
        {
          "name": "",
          "type": "bool"
        }
      ],
      "payable": false,
      "stateMutability": "view",
      "type": "function"
    },
    {
      "constant": true,
      "inputs": [
        {
          "name": "timestamp",
          "type": "uint256"
        }
      ],
      "name": "getSecond",
      "outputs": [
        {
          "name": "",
          "type": "uint8"
        }
      ],
      "payable": false,
      "stateMutability": "pure",
      "type": "function"
    },
    {
      "constant": true,
      "inputs": [
        {
          "name": "year",
          "type": "uint16"
        },
        {
          "name": "month",
          "type": "uint8"
        },
        {
          "name": "day",
          "type": "uint8"
        }
      ],
      "name": "toTimestamp",
      "outputs": [
        {
          "name": "timestamp",
          "type": "uint256"
        }
      ],
      "payable": false,
      "stateMutability": "pure",
      "type": "function"
    },
    {
      "constant": true,
      "inputs": [],
      "name": "foundationTokenWallet",
      "outputs": [
        {
          "name": "",
          "type": "address"
        }
      ],
      "payable": false,
      "stateMutability": "view",
      "type": "function"
    },
    {
      "constant": true,
      "inputs": [],
      "name": "INITIAL_TAP",
      "outputs": [
        {
          "name": "",
          "type": "uint256"
        }
      ],
      "payable": false,
      "stateMutability": "view",
      "type": "function"
    },
    {
      "constant": true,
      "inputs": [
        {
          "name": "year",
          "type": "uint16"
        },
        {
          "name": "month",
          "type": "uint8"
        },
        {
          "name": "day",
          "type": "uint8"
        },
        {
          "name": "hour",
          "type": "uint8"
        },
        {
          "name": "minute",
          "type": "uint8"
        },
        {
          "name": "second",
          "type": "uint8"
        }
      ],
      "name": "toTimestamp",
      "outputs": [
        {
          "name": "timestamp",
          "type": "uint256"
        }
      ],
      "payable": false,
      "stateMutability": "pure",
      "type": "function"
    },
    {
      "constant": true,
      "inputs": [],
      "name": "reserveTokenWallet",
      "outputs": [
        {
          "name": "",
          "type": "address"
        }
      ],
      "payable": false,
      "stateMutability": "view",
      "type": "function"
    },
    {
      "constant": true,
      "inputs": [
        {
          "name": "timestamp",
          "type": "uint256"
        }
      ],
      "name": "getYear",
      "outputs": [
        {
          "name": "",
          "type": "uint16"
        }
      ],
      "payable": false,
      "stateMutability": "pure",
      "type": "function"
    },
    {
      "constant": true,
      "inputs": [],
      "name": "MAX_VOTED_TOKEN_PERC",
      "outputs": [
        {
          "name": "",
          "type": "uint256"
        }
      ],
      "payable": false,
      "stateMutability": "view",
      "type": "function"
    },
    {
      "constant": true,
      "inputs": [],
      "name": "getOwners",
      "outputs": [
        {
          "name": "",
          "type": "address[]"
        }
      ],
      "payable": false,
      "stateMutability": "view",
      "type": "function"
    },
    {
      "constant": true,
      "inputs": [
        {
          "name": "timestamp",
          "type": "uint256"
        }
      ],
      "name": "getMonth",
      "outputs": [
        {
          "name": "",
          "type": "uint8"
        }
      ],
      "payable": false,
      "stateMutability": "pure",
      "type": "function"
    },
    {
      "constant": true,
      "inputs": [],
      "name": "lockedTokenAddress",
      "outputs": [
        {
          "name": "",
          "type": "address"
        }
      ],
      "payable": false,
      "stateMutability": "view",
      "type": "function"
    },
    {
      "constant": true,
      "inputs": [
        {
          "name": "year",
          "type": "uint16"
        }
      ],
      "name": "isLeapYear",
      "outputs": [
        {
          "name": "",
          "type": "bool"
        }
      ],
      "payable": false,
      "stateMutability": "pure",
      "type": "function"
    },
    {
      "constant": false,
      "inputs": [
        {
          "name": "contributor",
          "type": "address"
        }
      ],
      "name": "processContribution",
      "outputs": [],
      "payable": true,
      "stateMutability": "payable",
      "type": "function"
    },
    {
      "constant": true,
      "inputs": [],
      "name": "lastWithdrawTime",
      "outputs": [
        {
          "name": "",
          "type": "uint256"
        }
      ],
      "payable": false,
      "stateMutability": "view",
      "type": "function"
    },
    {
      "constant": true,
      "inputs": [
        {
          "name": "year",
          "type": "uint256"
        }
      ],
      "name": "leapYearsBefore",
      "outputs": [
        {
          "name": "",
          "type": "uint256"
        }
      ],
      "payable": false,
      "stateMutability": "pure",
      "type": "function"
    },
    {
      "constant": true,
      "inputs": [
        {
          "name": "month",
          "type": "uint8"
        },
        {
          "name": "year",
          "type": "uint16"
        }
      ],
      "name": "getDaysInMonth",
      "outputs": [
        {
          "name": "",
          "type": "uint8"
        }
      ],
      "payable": false,
      "stateMutability": "pure",
      "type": "function"
    },
    {
      "constant": true,
      "inputs": [],
      "name": "secondRefundPollDate",
      "outputs": [
        {
          "name": "",
          "type": "uint256"
        }
      ],
      "payable": false,
      "stateMutability": "view",
      "type": "function"
    },
    {
      "constant": true,
      "inputs": [],
      "name": "state",
      "outputs": [
        {
          "name": "",
          "type": "uint8"
        }
      ],
      "payable": false,
      "stateMutability": "view",
      "type": "function"
    },
    {
      "constant": true,
      "inputs": [],
      "name": "advisorTokenWallet",
      "outputs": [
        {
          "name": "",
          "type": "address"
        }
      ],
      "payable": false,
      "stateMutability": "view",
      "type": "function"
    },
    {
      "constant": true,
      "inputs": [],
      "name": "tapPoll",
      "outputs": [
        {
          "name": "",
          "type": "address"
        }
      ],
      "payable": false,
      "stateMutability": "view",
      "type": "function"
    },
    {
      "constant": true,
      "inputs": [],
      "name": "referralTokenWallet",
      "outputs": [
        {
          "name": "",
          "type": "address"
        }
      ],
      "payable": false,
      "stateMutability": "view",
      "type": "function"
    },
    {
      "constant": true,
      "inputs": [],
      "name": "bountyTokenWallet",
      "outputs": [
        {
          "name": "",
          "type": "address"
        }
      ],
      "payable": false,
      "stateMutability": "view",
      "type": "function"
    },
    {
      "constant": true,
      "inputs": [],
      "name": "refundPoll",
      "outputs": [
        {
          "name": "",
          "type": "address"
        }
      ],
      "payable": false,
      "stateMutability": "view",
      "type": "function"
    },
    {
      "constant": false,
      "inputs": [
        {
          "name": "contributorAddress",
          "type": "address"
        }
      ],
      "name": "autoRefundCrowdsaleContributor",
      "outputs": [],
      "payable": false,
      "stateMutability": "nonpayable",
      "type": "function"
    },
    {
      "constant": false,
      "inputs": [],
      "name": "firstWithdraw",
      "outputs": [],
      "payable": false,
      "stateMutability": "nonpayable",
      "type": "function"
    },
    {
      "constant": true,
      "inputs": [
        {
          "name": "",
          "type": "address"
        }
      ],
      "name": "ownerByAddress",
      "outputs": [
        {
          "name": "",
          "type": "bool"
        }
      ],
      "payable": false,
      "stateMutability": "view",
      "type": "function"
    },
    {
      "constant": true,
      "inputs": [],
      "name": "companyTokenWallet",
      "outputs": [
        {
          "name": "",
          "type": "address"
        }
      ],
      "payable": false,
      "stateMutability": "view",
      "type": "function"
    },
    {
      "constant": false,
      "inputs": [
        {
          "name": "_owners",
          "type": "address[]"
        }
      ],
      "name": "setOwners",
      "outputs": [],
      "payable": false,
      "stateMutability": "nonpayable",
      "type": "function"
    },
    {
      "constant": true,
      "inputs": [
        {
          "name": "timestamp",
          "type": "uint256"
        }
      ],
      "name": "getMinute",
      "outputs": [
        {
          "name": "",
          "type": "uint8"
        }
      ],
      "payable": false,
      "stateMutability": "pure",
      "type": "function"
    },
    {
      "constant": false,
      "inputs": [],
      "name": "refundTokenHolder",
      "outputs": [],
      "payable": false,
      "stateMutability": "nonpayable",
      "type": "function"
    },
    {
      "constant": true,
      "inputs": [],
      "name": "token",
      "outputs": [
        {
          "name": "",
          "type": "address"
        }
      ],
      "payable": false,
      "stateMutability": "view",
      "type": "function"
    },
    {
      "constant": true,
      "inputs": [],
      "name": "tap",
      "outputs": [
        {
          "name": "",
          "type": "uint256"
        }
      ],
      "payable": false,
      "stateMutability": "view",
      "type": "function"
    },
    {
      "constant": false,
      "inputs": [],
      "name": "refundCrowdsaleContributor",
      "outputs": [],
      "payable": false,
      "stateMutability": "nonpayable",
      "type": "function"
    },
    {
      "inputs": [
        {
          "name": "_teamWallet",
          "type": "address"
        },
        {
          "name": "_referralTokenWallet",
          "type": "address"
        },
        {
          "name": "_foundationTokenWallet",
          "type": "address"
        },
        {
          "name": "_companyTokenWallet",
          "type": "address"
        },
        {
          "name": "_reserveTokenWallet",
          "type": "address"
        },
        {
          "name": "_bountyTokenWallet",
          "type": "address"
        },
        {
          "name": "_advisorTokenWallet",
          "type": "address"
        },
        {
          "name": "_refundManager",
          "type": "address"
        },
        {
          "name": "_owners",
          "type": "address[]"
        }
      ],
      "payable": false,
      "stateMutability": "nonpayable",
      "type": "constructor"
    },
    {
      "anonymous": false,
      "inputs": [],
      "name": "TapPollCreated",
      "type": "event"
    },
    {
      "anonymous": false,
      "inputs": [
        {
          "indexed": false,
          "name": "approved",
          "type": "bool"
        },
        {
          "indexed": false,
          "name": "_tap",
          "type": "uint256"
        }
      ],
      "name": "TapPollFinished",
      "type": "event"
    },
    {
      "anonymous": false,
      "inputs": [],
      "name": "RefundPollCreated",
      "type": "event"
    },
    {
      "anonymous": false,
      "inputs": [
        {
          "indexed": false,
          "name": "approved",
          "type": "bool"
        }
      ],
      "name": "RefundPollFinished",
      "type": "event"
    },
    {
      "anonymous": false,
      "inputs": [
        {
          "indexed": false,
          "name": "tokenHolder",
          "type": "address"
        },
        {
          "indexed": false,
          "name": "amountWei",
          "type": "uint256"
        },
        {
          "indexed": false,
          "name": "timestamp",
          "type": "uint256"
        }
      ],
      "name": "RefundContributor",
      "type": "event"
    },
    {
      "anonymous": false,
      "inputs": [
        {
          "indexed": false,
          "name": "tokenHolder",
          "type": "address"
        },
        {
          "indexed": false,
          "name": "amountWei",
          "type": "uint256"
        },
        {
          "indexed": false,
          "name": "tokenAmount",
          "type": "uint256"
        },
        {
          "indexed": false,
          "name": "timestamp",
          "type": "uint256"
        }
      ],
      "name": "RefundHolder",
      "type": "event"
    },
    {
      "anonymous": false,
      "inputs": [
        {
          "indexed": false,
          "name": "amountWei",
          "type": "uint256"
        },
        {
          "indexed": false,
          "name": "timestamp",
          "type": "uint256"
        }
      ],
      "name": "Withdraw",
      "type": "event"
    },
    {
      "anonymous": false,
      "inputs": [
        {
          "indexed": false,
          "name": "initiatorAddress",
          "type": "address"
        }
      ],
      "name": "RefundEnabled",
      "type": "event"
    },
    {
      "anonymous": false,
      "inputs": [
        {
          "indexed": false,
          "name": "owners",
          "type": "address[]"
        }
      ],
      "name": "SetOwners",
      "type": "event"
    },
    {
      "constant": false,
      "inputs": [],
      "name": "canWithdraw",
      "outputs": [
        {
          "name": "",
          "type": "bool"
        }
      ],
      "payable": false,
      "stateMutability": "nonpayable",
      "type": "function"
    },
    {
      "constant": false,
      "inputs": [
        {
          "name": "_from",
          "type": "address"
        },
        {
          "name": "",
          "type": "address"
        },
        {
          "name": "_value",
          "type": "uint256"
        }
      ],
      "name": "onTokenTransfer",
      "outputs": [],
      "payable": false,
      "stateMutability": "nonpayable",
      "type": "function"
    },
    {
      "constant": false,
      "inputs": [
        {
          "name": "tapIncPerc",
          "type": "uint8"
        }
      ],
      "name": "createTapPoll",
      "outputs": [],
      "payable": false,
      "stateMutability": "nonpayable",
      "type": "function"
    },
    {
      "constant": false,
      "inputs": [
        {
          "name": "agree",
          "type": "bool"
        },
        {
          "name": "_tap",
          "type": "uint256"
        }
      ],
      "name": "onTapPollFinish",
      "outputs": [],
      "payable": false,
      "stateMutability": "nonpayable",
      "type": "function"
    },
    {
      "constant": false,
      "inputs": [],
      "name": "createRefundPoll",
      "outputs": [],
      "payable": false,
      "stateMutability": "nonpayable",
      "type": "function"
    },
    {
      "constant": false,
      "inputs": [
        {
          "name": "agree",
          "type": "bool"
        }
      ],
      "name": "onRefundPollFinish",
      "outputs": [],
      "payable": false,
      "stateMutability": "nonpayable",
      "type": "function"
    },
    {
      "constant": false,
      "inputs": [],
      "name": "forceRefund",
      "outputs": [],
      "payable": false,
      "stateMutability": "nonpayable",
      "type": "function"
    }
  ],
  "bytecode": "0x60806040526000600360006101000a81548160ff021916908360038111156200002457fe5b02179055506000600f556000601055600060155560006016556001601760006101000a81548160ff02191690831515021790555061010060405190810160405280635b38198063ffffffff168152602001635bb1638063ffffffff168152602001635c2aad8063ffffffff168152602001635ca1548063ffffffff168152602001635d194d0063ffffffff168152602001635d92970063ffffffff168152602001635e0be10063ffffffff168152602001635e83d98063ffffffff168152506018906008620000f5929190620005d6565b503480156200010357600080fd5b5060405162008e6a38038062008e6a833981018060405281019080805190602001909291908051906020019092919080519060200190929190805190602001909291908051906020019092919080519060200190929190805190602001909291908051906020019092919080518201929190505050888888888888888888336000806101000a81548173ffffffffffffffffffffffffffffffffffffffff021916908373ffffffffffffffffffffffffffffffffffffffff16021790555088600460006101000a81548173ffffffffffffffffffffffffffffffffffffffff021916908373ffffffffffffffffffffffffffffffffffffffff16021790555087600660006101000a81548173ffffffffffffffffffffffffffffffffffffffff021916908373ffffffffffffffffffffffffffffffffffffffff16021790555086600760006101000a81548173ffffffffffffffffffffffffffffffffffffffff021916908373ffffffffffffffffffffffffffffffffffffffff16021790555085600a60006101000a81548173ffffffffffffffffffffffffffffffffffffffff021916908373ffffffffffffffffffffffffffffffffffffffff16021790555084600860006101000a81548173ffffffffffffffffffffffffffffffffffffffff021916908373ffffffffffffffffffffffffffffffffffffffff16021790555083600960006101000a81548173ffffffffffffffffffffffffffffffffffffffff021916908373ffffffffffffffffffffffffffffffffffffffff16021790555082600b60006101000a81548173ffffffffffffffffffffffffffffffffffffffff021916908373ffffffffffffffffffffffffffffffffffffffff16021790555081600d60006101000a81548173ffffffffffffffffffffffffffffffffffffffff021916908373ffffffffffffffffffffffffffffffffffffffff160217905550620003e381620003fb640100000000026401000000009004565b5050505050505050505050505050505050506200072d565b600080600091505b600180549050821015620004b1576000600260006001858154811015156200042757fe5b9060005260206000200160009054906101000a900473ffffffffffffffffffffffffffffffffffffffff1673ffffffffffffffffffffffffffffffffffffffff1673ffffffffffffffffffffffffffffffffffffffff16815260200190815260200160002060006101000a81548160ff021916908315150217905550818060010192505062000403565b600090505b82518110156200053e576001600260008584815181101515620004d557fe5b9060200190602002015173ffffffffffffffffffffffffffffffffffffffff1673ffffffffffffffffffffffffffffffffffffffff16815260200190815260200160002060006101000a81548160ff0219169083151502179055508080600101915050620004b6565b82600190805190602001906200055692919062000630565b507f9465cd279c2de393c5568ae444599e3644e3d1864ca2c05ced8a654df2aea3cb836040518080602001828103825283818151815260200191508051906020019060200280838360005b83811015620005be578082015181840152602081019050620005a1565b505050509050019250505060405180910390a1505050565b8280548282559060005260206000209081019282156200061d579160200282015b828111156200061c578251829063ffffffff16905591602001919060010190620005f7565b5b5090506200062c9190620006bf565b5090565b828054828255906000526020600020908101928215620006ac579160200282015b82811115620006ab5782518260006101000a81548173ffffffffffffffffffffffffffffffffffffffff021916908373ffffffffffffffffffffffffffffffffffffffff1602179055509160200191906001019062000651565b5b509050620006bb9190620006e7565b5090565b620006e491905b80821115620006e0576000816000905550600101620006c6565b5090565b90565b6200072a91905b808211156200072657600081816101000a81549073ffffffffffffffffffffffffffffffffffffffff021916905550600101620006ee565b5090565b90565b61872d806200073d6000396000f3006080604052600436106200034f576000357c0100000000000000000000000000000000000000000000000000000000900463ffffffff168063025e7c271462000354578063026eca1214620003c457806302fc28c414620003f757806308867fc21462000425578063192f107614620004535780631f35bc40146200048157806326a4e8d214620004c757806326b52faf146200050d57806329c90b63146200053b57806331d2f891146200057757806336e61cf714620005d15780633b64e77e14620006015780633ccfd60b146200061b5780633e239e1a146200063557806340e6b00a146200067f57806342e94c901462000699578063481c6a7514620006f35780634ac1ad78146200074d5780635992704414620007975780635f58384614620007f15780636252c127146200083557806362ba9687146200084f57806365c7284014620008cb578063677ba3d31462000915578063774a97cf14620009855780637ddbf0ed14620009b35780637f79183314620009f9578063842192041462000a6857806387174c3e1462000a96578063880dc4e61462000af057806389ea2cb71462000b225780638aa001fc1462000b545780638c8d98a01462000b9e578063903171ae1462000c005780639054bbb61462000c5a5780639054bdec1462000c8857806392a0fd641462000d1157806392d663131462000d6b578063962c9c8d1462000db7578063a0e67e2b1462000de5578063a324ad241462000e56578063a666ff3c1462000ea0578063a6f0e5771462000efa578063a78a651a1462000f46578063ab2315111462000f7e578063b19999371462000fac578063b238ad0e1462000ff0578063b465e52f146200104b578063b51459fe1462001079578063bd7427f814620010ab578063c19d93fb14620010c5578063c5f5ce211462001102578063cae6b9c5146200115c578063cc96019f14620011b6578063d0e6cfec1462001210578063d66f146d146200126a578063e2d2a86814620012c4578063e9b5a2f7146200130a578063eb6b192f1462001324578063f190a7931462001382578063fa4d369814620013dc578063fa93f8831462001445578063fbbfe830146200148f578063fc0c546a14620014a9578063fd2210311462001503578063ff01ffa81462001531575b600080fd5b3480156200036157600080fd5b5062000382600480360381019080803590602001909291905050506200154b565b604051808273ffffffffffffffffffffffffffffffffffffffff1673ffffffffffffffffffffffffffffffffffffffff16815260200191505060405180910390f35b348015620003d157600080fd5b50620003f5600480360381019080803560ff1690602001909291905050506200158a565b005b3480156200040457600080fd5b506200040f62001835565b6040518082815260200191505060405180910390f35b3480156200043257600080fd5b506200043d6200183c565b6040518082815260200191505060405180910390f35b3480156200046057600080fd5b506200046b62001843565b6040518082815260200191505060405180910390f35b3480156200048e57600080fd5b50620004c5600480360381019080803573ffffffffffffffffffffffffffffffffffffffff16906020019092919050505062001849565b005b348015620004d457600080fd5b506200050b600480360381019080803573ffffffffffffffffffffffffffffffffffffffff1690602001909291905050506200194b565b005b3480156200051a57600080fd5b506200052562001a4d565b6040518082815260200191505060405180910390f35b3480156200054857600080fd5b50620005756004803603810190808035151590602001909291908035906020019092919050505062001a53565b005b3480156200058457600080fd5b506200058f62001cc6565b604051808273ffffffffffffffffffffffffffffffffffffffff1673ffffffffffffffffffffffffffffffffffffffff16815260200191505060405180910390f35b348015620005de57600080fd5b50620005ff6004803603810190808035906020019092919050505062001cec565b005b3480156200060e57600080fd5b506200061962001d9e565b005b3480156200062857600080fd5b506200063362001e59565b005b3480156200064257600080fd5b50620006636004803603810190808035906020019092919050505062001fc7565b604051808260ff1660ff16815260200191505060405180910390f35b3480156200068c57600080fd5b506200069762001ff7565b005b348015620006a657600080fd5b50620006dd600480360381019080803573ffffffffffffffffffffffffffffffffffffffff16906020019092919050505062002374565b6040518082815260200191505060405180910390f35b3480156200070057600080fd5b506200070b6200238c565b604051808273ffffffffffffffffffffffffffffffffffffffff1673ffffffffffffffffffffffffffffffffffffffff16815260200191505060405180910390f35b3480156200075a57600080fd5b506200077b60048036038101908080359060200190929190505050620023b1565b604051808260ff1660ff16815260200191505060405180910390f35b348015620007a457600080fd5b50620007af620023da565b604051808273ffffffffffffffffffffffffffffffffffffffff1673ffffffffffffffffffffffffffffffffffffffff16815260200191505060405180910390f35b348015620007fe57600080fd5b506200081f6004803603810190808035906020019092919050505062002400565b6040518082815260200191505060405180910390f35b3480156200084257600080fd5b506200084d62002424565b005b3480156200085c57600080fd5b50620008b5600480360381019080803561ffff169060200190929190803560ff169060200190929190803560ff169060200190929190803560ff169060200190929190803560ff1690602001909291905050506200259f565b6040518082815260200191505060405180910390f35b348015620008d857600080fd5b50620008f960048036038101908080359060200190929190505050620025bd565b604051808260ff1660ff16815260200191505060405180910390f35b3480156200092257600080fd5b5062000983600480360381019080803573ffffffffffffffffffffffffffffffffffffffff169060200190929190803573ffffffffffffffffffffffffffffffffffffffff16906020019092919080359060200190929190505050620025d5565b005b3480156200099257600080fd5b506200099d62002a45565b6040518082815260200191505060405180910390f35b348015620009c057600080fd5b50620009f7600480360381019080803573ffffffffffffffffffffffffffffffffffffffff16906020019092919050505062002a93565b005b34801562000a0657600080fd5b5062000a52600480360381019080803561ffff169060200190929190803560ff169060200190929190803560ff169060200190929190803560ff16906020019092919050505062002b95565b6040518082815260200191505060405180910390f35b34801562000a7557600080fd5b5062000a8062002bb2565b6040518082815260200191505060405180910390f35b34801562000aa357600080fd5b5062000aae62002bb8565b604051808273ffffffffffffffffffffffffffffffffffffffff1673ffffffffffffffffffffffffffffffffffffffff16815260200191505060405180910390f35b34801562000afd57600080fd5b5062000b0862002bde565b604051808215151515815260200191505060405180910390f35b34801562000b2f57600080fd5b5062000b5260048036038101908080351515906020019092919050505062002bf1565b005b34801562000b6157600080fd5b5062000b826004803603810190808035906020019092919050505062002edb565b604051808260ff1660ff16815260200191505060405180910390f35b34801562000bab57600080fd5b5062000bea600480360381019080803561ffff169060200190929190803560ff169060200190929190803560ff16906020019092919050505062002ef2565b6040518082815260200191505060405180910390f35b34801562000c0d57600080fd5b5062000c1862002f0f565b604051808273ffffffffffffffffffffffffffffffffffffffff1673ffffffffffffffffffffffffffffffffffffffff16815260200191505060405180910390f35b34801562000c6757600080fd5b5062000c7262002f35565b6040518082815260200191505060405180910390f35b34801562000c9557600080fd5b5062000cfb600480360381019080803561ffff169060200190929190803560ff169060200190929190803560ff169060200190929190803560ff169060200190929190803560ff169060200190929190803560ff16906020019092919050505062002f3f565b6040518082815260200191505060405180910390f35b34801562000d1e57600080fd5b5062000d2962003202565b604051808273ffffffffffffffffffffffffffffffffffffffff1673ffffffffffffffffffffffffffffffffffffffff16815260200191505060405180910390f35b34801562000d7857600080fd5b5062000d996004803603810190808035906020019092919050505062003228565b604051808261ffff1661ffff16815260200191505060405180910390f35b34801562000dc457600080fd5b5062000dcf620032de565b6040518082815260200191505060405180910390f35b34801562000df257600080fd5b5062000dfd620032e3565b6040518080602001828103825283818151815260200191508051906020019060200280838360005b8381101562000e4257808201518184015260208101905062000e25565b505050509050019250505060405180910390f35b34801562000e6357600080fd5b5062000e846004803603810190808035906020019092919050505062003373565b604051808260ff1660ff16815260200191505060405180910390f35b34801562000ead57600080fd5b5062000eb86200338b565b604051808273ffffffffffffffffffffffffffffffffffffffff1673ffffffffffffffffffffffffffffffffffffffff16815260200191505060405180910390f35b34801562000f0757600080fd5b5062000f2c600480360381019080803561ffff169060200190929190505050620033b1565b604051808215151515815260200191505060405180910390f35b62000f7c600480360381019080803573ffffffffffffffffffffffffffffffffffffffff1690602001909291905050506200343b565b005b34801562000f8b57600080fd5b5062000f9662003566565b6040518082815260200191505060405180910390f35b34801562000fb957600080fd5b5062000fda600480360381019080803590602001909291905050506200356c565b6040518082815260200191505060405180910390f35b34801562000ffd57600080fd5b506200102f600480360381019080803560ff169060200190929190803561ffff169060200190929190505050620035a8565b604051808260ff1660ff16815260200191505060405180910390f35b3480156200105857600080fd5b506200106362003685565b6040518082815260200191505060405180910390f35b3480156200108657600080fd5b50620010916200368b565b604051808215151515815260200191505060405180910390f35b348015620010b857600080fd5b50620010c362003a40565b005b348015620010d257600080fd5b50620010dd62003aa9565b60405180826003811115620010ee57fe5b60ff16815260200191505060405180910390f35b3480156200110f57600080fd5b506200111a62003abc565b604051808273ffffffffffffffffffffffffffffffffffffffff1673ffffffffffffffffffffffffffffffffffffffff16815260200191505060405180910390f35b3480156200116957600080fd5b506200117462003ae2565b604051808273ffffffffffffffffffffffffffffffffffffffff1673ffffffffffffffffffffffffffffffffffffffff16815260200191505060405180910390f35b348015620011c357600080fd5b50620011ce62003b08565b604051808273ffffffffffffffffffffffffffffffffffffffff1673ffffffffffffffffffffffffffffffffffffffff16815260200191505060405180910390f35b3480156200121d57600080fd5b506200122862003b2e565b604051808273ffffffffffffffffffffffffffffffffffffffff1673ffffffffffffffffffffffffffffffffffffffff16815260200191505060405180910390f35b3480156200127757600080fd5b506200128262003b54565b604051808273ffffffffffffffffffffffffffffffffffffffff1673ffffffffffffffffffffffffffffffffffffffff16815260200191505060405180910390f35b348015620012d157600080fd5b5062001308600480360381019080803573ffffffffffffffffffffffffffffffffffffffff16906020019092919050505062003b7a565b005b3480156200131757600080fd5b506200132262003fda565b005b3480156200133157600080fd5b5062001368600480360381019080803573ffffffffffffffffffffffffffffffffffffffff1690602001909291905050506200411d565b604051808215151515815260200191505060405180910390f35b3480156200138f57600080fd5b506200139a6200413d565b604051808273ffffffffffffffffffffffffffffffffffffffff1673ffffffffffffffffffffffffffffffffffffffff16815260200191505060405180910390f35b348015620013e957600080fd5b50620014436004803603810190808035906020019082018035906020019080806020026020016040519081016040528093929190818152602001838360200280828437820191505050505050919291929050505062004163565b005b3480156200145257600080fd5b506200147360048036038101908080359060200190929190505050620041cd565b604051808260ff1660ff16815260200191505060405180910390f35b3480156200149c57600080fd5b50620014a7620041f0565b005b348015620014b657600080fd5b50620014c1620045df565b604051808273ffffffffffffffffffffffffffffffffffffffff1673ffffffffffffffffffffffffffffffffffffffff16815260200191505060405180910390f35b3480156200151057600080fd5b506200151b62004605565b6040518082815260200191505060405180910390f35b3480156200153e57600080fd5b50620015496200460b565b005b6001818154811015156200155b57fe5b906000526020600020016000915054906101000a900473ffffffffffffffffffffffffffffffffffffffff1681565b600080600060011515600260003373ffffffffffffffffffffffffffffffffffffffff1673ffffffffffffffffffffffffffffffffffffffff16815260200190815260200160002060009054906101000a900460ff161515141515620015ef57600080fd5b60026003811115620015fd57fe5b600360009054906101000a900460ff1660038111156200161957fe5b1415156200162657600080fd5b600073ffffffffffffffffffffffffffffffffffffffff16601360009054906101000a900473ffffffffffffffffffffffffffffffffffffffff1673ffffffffffffffffffffffffffffffffffffffff161415156200168457600080fd5b600a6200169142620025bd565b60ff16141515620016a157600080fd5b60328460ff1611151515620016b557600080fd5b620016df600e54620016d9620016d1600e548860ff16620049b1565b6064620049e7565b62004a03565b92504291506203f4808201905082600360019054906101000a900473ffffffffffffffffffffffffffffffffffffffff163084846015546200172062005ec4565b808781526020018673ffffffffffffffffffffffffffffffffffffffff1673ffffffffffffffffffffffffffffffffffffffff1681526020018573ffffffffffffffffffffffffffffffffffffffff1673ffffffffffffffffffffffffffffffffffffffff1681526020018481526020018381526020018281526020019650505050505050604051809103906000f080158015620017c2573d6000803e3d6000fd5b50601360006101000a81548173ffffffffffffffffffffffffffffffffffffffff021916908373ffffffffffffffffffffffffffffffffffffffff1602179055507f330d2f37998c8839fca77205925adc69e2c4aa616175f8b357f42f84d06c454960405160405180910390a150505050565b6203f48081565b62093a8081565b60055481565b60011515600260003373ffffffffffffffffffffffffffffffffffffffff1673ffffffffffffffffffffffffffffffffffffffff16815260200190815260200160002060009054906101000a900460ff161515141515620018a957600080fd5b600073ffffffffffffffffffffffffffffffffffffffff16601160009054906101000a900473ffffffffffffffffffffffffffffffffffffffff1673ffffffffffffffffffffffffffffffffffffffff161415156200190757600080fd5b80601160006101000a81548173ffffffffffffffffffffffffffffffffffffffff021916908373ffffffffffffffffffffffffffffffffffffffff16021790555050565b60011515600260003373ffffffffffffffffffffffffffffffffffffffff1673ffffffffffffffffffffffffffffffffffffffff16815260200190815260200160002060009054906101000a900460ff161515141515620019ab57600080fd5b600073ffffffffffffffffffffffffffffffffffffffff16600360019054906101000a900473ffffffffffffffffffffffffffffffffffffffff1673ffffffffffffffffffffffffffffffffffffffff1614151562001a0957600080fd5b80600360016101000a81548173ffffffffffffffffffffffffffffffffffffffff021916908373ffffffffffffffffffffffffffffffffffffffff16021790555050565b60105481565b601360009054906101000a900473ffffffffffffffffffffffffffffffffffffffff1673ffffffffffffffffffffffffffffffffffffffff163373ffffffffffffffffffffffffffffffffffffffff1614801562001b715750601360009054906101000a900473ffffffffffffffffffffffffffffffffffffffff1673ffffffffffffffffffffffffffffffffffffffff1663b3f05b976040518163ffffffff167c0100000000000000000000000000000000000000000000000000000000028152600401602060405180830381600087803b15801562001b3357600080fd5b505af115801562001b48573d6000803e3d6000fd5b505050506040513d602081101562001b5f57600080fd5b81019080805190602001909291905050505b151562001b7d57600080fd5b811562001b8c5780600e819055505b62001c5a601360009054906101000a900473ffffffffffffffffffffffffffffffffffffffff1673ffffffffffffffffffffffffffffffffffffffff16632c24909c6040518163ffffffff167c0100000000000000000000000000000000000000000000000000000000028152600401602060405180830381600087803b15801562001c1757600080fd5b505af115801562001c2c573d6000803e3d6000fd5b505050506040513d602081101562001c4357600080fd5b810190808051906020019092919050505062004a22565b7fecb94f7dd81b39de2b8d95fa8a4d9f0a8723d7a974187fef4fa5305ca5d16248828260405180831515151581526020018281526020019250505060405180910390a1601360006101000a81549073ffffffffffffffffffffffffffffffffffffffff02191690555050565b601160009054906101000a900473ffffffffffffffffffffffffffffffffffffffff1681565b60011515600260003373ffffffffffffffffffffffffffffffffffffffff1673ffffffffffffffffffffffffffffffffffffffff16815260200190815260200160002060009054906101000a900460ff16151514151562001d4c57600080fd5b6002600381111562001d5a57fe5b600360009054906101000a900460ff16600381111562001d7657fe5b14151562001d8357600080fd5b600e548110151562001d9457600080fd5b80600e8190555050565b601160009054906101000a900473ffffffffffffffffffffffffffffffffffffffff1673ffffffffffffffffffffffffffffffffffffffff163373ffffffffffffffffffffffffffffffffffffffff1614151562001dfb57600080fd5b6000600381111562001e0957fe5b600360009054906101000a900460ff16600381111562001e2557fe5b14151562001e3257600080fd5b6001600360006101000a81548160ff0219169083600381111562001e5257fe5b0217905550565b600060011515600260003373ffffffffffffffffffffffffffffffffffffffff1673ffffffffffffffffffffffffffffffffffffffff16815260200190815260200160002060009054906101000a900460ff16151514151562001ebb57600080fd5b62001ec56200368b565b151562001ed157600080fd5b6002600381111562001edf57fe5b600360009054906101000a900460ff16600381111562001efb57fe5b14151562001f0857600080fd5b62001f1262004a57565b905042600f81905550600460009054906101000a900473ffffffffffffffffffffffffffffffffffffffff1673ffffffffffffffffffffffffffffffffffffffff166108fc829081150290604051600060405180830381858888f1935050505015801562001f84573d6000803e3d6000fd5b507f56ca301a9219608c91e7bcee90e083c19671d2cdcc96752c7af291cee5f9c8c88142604051808381526020018281526020019250505060405180910390a150565b60006018603c808481151562001fd957fe5b0481151562001fe457fe5b0481151562001fef57fe5b069050919050565b6000806000806000600360019054906101000a900473ffffffffffffffffffffffffffffffffffffffff1673ffffffffffffffffffffffffffffffffffffffff166370a08231336040518263ffffffff167c0100000000000000000000000000000000000000000000000000000000028152600401808273ffffffffffffffffffffffffffffffffffffffff1673ffffffffffffffffffffffffffffffffffffffff168152602001915050602060405180830381600087803b158015620020bd57600080fd5b505af1158015620020d2573d6000803e3d6000fd5b505050506040513d6020811015620020e957600080fd5b81019080805190602001909291905050501115156200210757600080fd5b600260038111156200211557fe5b600360009054906101000a900460ff1660038111156200213157fe5b1415156200213e57600080fd5b600073ffffffffffffffffffffffffffffffffffffffff16601460009054906101000a900473ffffffffffffffffffffffffffffffffffffffff1673ffffffffffffffffffffffffffffffffffffffff161415156200219c57600080fd5b620021a662004ab9565b1515620021b257600080fd5b6000601654118015620021d45750620021d16016546201518062004a03565b42115b15620021e35760006016819055505b42935062093a80840192506000601654149150600090508115620022295762002226620022108562003228565b60016200221d8762003373565b01600162002ef2565b90505b600360019054906101000a900473ffffffffffffffffffffffffffffffffffffffff1630858584866200225b62005ed5565b808773ffffffffffffffffffffffffffffffffffffffff1673ffffffffffffffffffffffffffffffffffffffff1681526020018673ffffffffffffffffffffffffffffffffffffffff1673ffffffffffffffffffffffffffffffffffffffff168152602001858152602001848152602001838152602001821515151581526020019650505050505050604051809103906000f08015801562002301573d6000803e3d6000fd5b50601460006101000a81548173ffffffffffffffffffffffffffffffffffffffff021916908373ffffffffffffffffffffffffffffffffffffffff1602179055507fd1a79c97f023d07d5c5533b0887300f81e113759deeb9531a541b93341ceab7f60405160405180910390a150505050565b60126020528060005260406000206000915090505481565b6000809054906101000a900473ffffffffffffffffffffffffffffffffffffffff1681565b6000600760046201518084811515620023c657fe5b0401811515620023d257fe5b069050919050565b600460009054906101000a900473ffffffffffffffffffffffffffffffffffffffff1681565b6018818154811015156200241057fe5b906000526020600020016000915090505481565b6000601160009054906101000a900473ffffffffffffffffffffffffffffffffffffffff1673ffffffffffffffffffffffffffffffffffffffff163373ffffffffffffffffffffffffffffffffffffffff161415156200248357600080fd5b6002600360006101000a81548160ff02191690836003811115620024a357fe5b0217905550601160009054906101000a900473ffffffffffffffffffffffffffffffffffffffff1690506200257b8173ffffffffffffffffffffffffffffffffffffffff16634d52a5126040518163ffffffff167c0100000000000000000000000000000000000000000000000000000000028152600401602060405180830381600087803b1580156200253657600080fd5b505af11580156200254b573d6000803e3d6000fd5b505050506040513d60208110156200256257600080fd5b81019080805190602001909291905050506002620049e7565b60108190555042600f8190555065af7151902add600e819055504260058190555050565b6000620025b28686868686600062002f3f565b905095945050505050565b6000620025ca8262004b87565b604001519050919050565b600360019054906101000a900473ffffffffffffffffffffffffffffffffffffffff1673ffffffffffffffffffffffffffffffffffffffff163373ffffffffffffffffffffffffffffffffffffffff161415156200263257600080fd5b600073ffffffffffffffffffffffffffffffffffffffff16601360009054906101000a900473ffffffffffffffffffffffffffffffffffffffff1673ffffffffffffffffffffffffffffffffffffffff1614158015620027535750601360009054906101000a900473ffffffffffffffffffffffffffffffffffffffff1673ffffffffffffffffffffffffffffffffffffffff1663b3f05b976040518163ffffffff167c0100000000000000000000000000000000000000000000000000000000028152600401602060405180830381600087803b1580156200271457600080fd5b505af115801562002729573d6000803e3d6000fd5b505050506040513d60208110156200274057600080fd5b8101908080519060200190929190505050155b156200283957601360009054906101000a900473ffffffffffffffffffffffffffffffffffffffff1673ffffffffffffffffffffffffffffffffffffffff1663c734f91784836040518363ffffffff167c0100000000000000000000000000000000000000000000000000000000028152600401808373ffffffffffffffffffffffffffffffffffffffff1673ffffffffffffffffffffffffffffffffffffffff16815260200182815260200192505050600060405180830381600087803b1580156200281f57600080fd5b505af115801562002834573d6000803e3d6000fd5b505050505b600073ffffffffffffffffffffffffffffffffffffffff16601460009054906101000a900473ffffffffffffffffffffffffffffffffffffffff1673ffffffffffffffffffffffffffffffffffffffff16141580156200295a5750601460009054906101000a900473ffffffffffffffffffffffffffffffffffffffff1673ffffffffffffffffffffffffffffffffffffffff1663b3f05b976040518163ffffffff167c0100000000000000000000000000000000000000000000000000000000028152600401602060405180830381600087803b1580156200291b57600080fd5b505af115801562002930573d6000803e3d6000fd5b505050506040513d60208110156200294757600080fd5b8101908080519060200190929190505050155b1562002a4057601460009054906101000a900473ffffffffffffffffffffffffffffffffffffffff1673ffffffffffffffffffffffffffffffffffffffff1663c734f91784836040518363ffffffff167c0100000000000000000000000000000000000000000000000000000000028152600401808373ffffffffffffffffffffffffffffffffffffffff1673ffffffffffffffffffffffffffffffffffffffff16815260200182815260200192505050600060405180830381600087803b15801562002a2657600080fd5b505af115801562002a3b573d6000803e3d6000fd5b505050505b505050565b60006002600381111562002a5557fe5b600360009054906101000a900460ff16600381111562002a7157fe5b14151562002a83576000905062002a90565b62002a8d62004a57565b90505b90565b60011515600260003373ffffffffffffffffffffffffffffffffffffffff1673ffffffffffffffffffffffffffffffffffffffff16815260200190815260200160002060009054906101000a900460ff16151514151562002af357600080fd5b600073ffffffffffffffffffffffffffffffffffffffff16600c60009054906101000a900473ffffffffffffffffffffffffffffffffffffffff1673ffffffffffffffffffffffffffffffffffffffff1614151562002b5157600080fd5b80600c60006101000a81548173ffffffffffffffffffffffffffffffffffffffff021916908373ffffffffffffffffffffffffffffffffffffffff16021790555050565b600062002ba88585858560008062002f3f565b9050949350505050565b60155481565b600d60009054906101000a900473ffffffffffffffffffffffffffffffffffffffff1681565b601760009054906101000a900460ff1681565b6000601460009054906101000a900473ffffffffffffffffffffffffffffffffffffffff1673ffffffffffffffffffffffffffffffffffffffff163373ffffffffffffffffffffffffffffffffffffffff1614801562002d115750601460009054906101000a900473ffffffffffffffffffffffffffffffffffffffff1673ffffffffffffffffffffffffffffffffffffffff1663b3f05b976040518163ffffffff167c0100000000000000000000000000000000000000000000000000000000028152600401602060405180830381600087803b15801562002cd357600080fd5b505af115801562002ce8573d6000803e3d6000fd5b505050506040513d602081101562002cff57600080fd5b81019080805190602001909291905050505b151562002d1d57600080fd5b811562002e53576000601654111562002d405762002d3a62004d44565b62002e4d565b601460009054906101000a900473ffffffffffffffffffffffffffffffffffffffff1673ffffffffffffffffffffffffffffffffffffffff166378e979256040518163ffffffff167c0100000000000000000000000000000000000000000000000000000000028152600401602060405180830381600087803b15801562002dc757600080fd5b505af115801562002ddc573d6000803e3d6000fd5b505050506040513d602081101562002df357600080fd5b8101908080519060200190929190505050905062002e2b62002e158262003228565b600262002e228462003373565b01600162002ef2565b6016819055506000601760006101000a81548160ff0219169083151502179055505b62002e77565b60006016819055506001601760006101000a81548160ff0219169083151502179055505b7f9ab7d9b3f53fbde0442a57f23d2eca52d14cd437e392cf8896a96f3647dff6db82604051808215151515815260200191505060405180910390a1601460006101000a81549073ffffffffffffffffffffffffffffffffffffffff02191690555050565b6000603c8281151562002eea57fe5b069050919050565b600062002f06848484600080600062002f3f565b90509392505050565b600760009054906101000a900473ffffffffffffffffffffffffffffffffffffffff1681565b65af7151902add81565b60008062002f4c62005ee6565b6107b291505b8861ffff168261ffff16101562002f9b5762002f6e82620033b1565b1562002f83576301e285008301925062002f8d565b6301e13380830192505b818060010192505062002f52565b601f816000600c8110151562002fad57fe5b602002019060ff16908160ff168152505062002fc989620033b1565b1562002ff857601d816001600c8110151562002fe157fe5b602002019060ff16908160ff16815250506200301c565b601c816001600c811015156200300a57fe5b602002019060ff16908160ff16815250505b601f816002600c811015156200302e57fe5b602002019060ff16908160ff1681525050601e816003600c811015156200305157fe5b602002019060ff16908160ff1681525050601f816004600c811015156200307457fe5b602002019060ff16908160ff1681525050601e816005600c811015156200309757fe5b602002019060ff16908160ff1681525050601f816006600c81101515620030ba57fe5b602002019060ff16908160ff1681525050601f816007600c81101515620030dd57fe5b602002019060ff16908160ff1681525050601e816008600c811015156200310057fe5b602002019060ff16908160ff1681525050601f816009600c811015156200312357fe5b602002019060ff16908160ff1681525050601e81600a600c811015156200314657fe5b602002019060ff16908160ff1681525050601f81600b600c811015156200316957fe5b602002019060ff16908160ff1681525050600191505b8760ff168261ffff161015620031c457806001830361ffff16600c81101515620031a557fe5b602002015160ff1662015180028301925081806001019250506200317f565b6001870360ff166201518002830192508560ff16610e1002830192508460ff16603c02830192508360ff168301925082925050509695505050505050565b600860009054906101000a900473ffffffffffffffffffffffffffffffffffffffff1681565b600080600080600092506301e13380858115156200324257fe5b046107b261ffff160191506200325e6107b261ffff166200356c565b6200326d8361ffff166200356c565b039050806301e285000283019250806107b2830361ffff16036301e1338002830192505b84831115620032d357620032a860018303620033b1565b15620032bd576301e2850083039250620032c7565b6301e13380830392505b60018203915062003291565b819350505050919050565b600a81565b606060018054806020026020016040519081016040528092919081815260200182805480156200336957602002820191906000526020600020905b8160009054906101000a900473ffffffffffffffffffffffffffffffffffffffff1673ffffffffffffffffffffffffffffffffffffffff16815260200190600101908083116200331e575b5050505050905090565b6000620033808262004b87565b602001519050919050565b600c60009054906101000a900473ffffffffffffffffffffffffffffffffffffffff1681565b60008060048361ffff16811515620033c557fe5b0661ffff16141515620033dc576000905062003436565b600060648361ffff16811515620033ef57fe5b0661ffff1614151562003406576001905062003436565b60006101908361ffff168115156200341a57fe5b0661ffff1614151562003431576000905062003436565b600190505b919050565b6000601160009054906101000a900473ffffffffffffffffffffffffffffffffffffffff1673ffffffffffffffffffffffffffffffffffffffff163373ffffffffffffffffffffffffffffffffffffffff161415156200349a57600080fd5b60006003811115620034a857fe5b600360009054906101000a900460ff166003811115620034c457fe5b141515620034d157600080fd5b6200351c601260008473ffffffffffffffffffffffffffffffffffffffff1673ffffffffffffffffffffffffffffffffffffffff168152602001908152602001600020543462004a03565b905080601260008473ffffffffffffffffffffffffffffffffffffffff1673ffffffffffffffffffffffffffffffffffffffff168152602001908152602001600020819055505050565b600f5481565b6000600182039150610190828115156200358257fe5b046064838115156200359057fe5b046004848115156200359e57fe5b0403019050919050565b600060018360ff161480620035c0575060038360ff16145b80620035cf575060058360ff16145b80620035de575060078360ff16145b80620035ed575060088360ff16145b80620035fc5750600a8360ff16145b806200360b5750600c8360ff16145b156200361b57601f90506200367f565b60048360ff16148062003631575060068360ff16145b8062003640575060098360ff16145b806200364f5750600b8360ff16145b156200365f57601e90506200367f565b6200366a82620033b1565b156200367a57601d90506200367f565b601c90505b92915050565b60165481565b60008073ffffffffffffffffffffffffffffffffffffffff16601460009054906101000a900473ffffffffffffffffffffffffffffffffffffffff1673ffffffffffffffffffffffffffffffffffffffff1614158015620037ad5750601460009054906101000a900473ffffffffffffffffffffffffffffffffffffffff1673ffffffffffffffffffffffffffffffffffffffff1663b3f05b976040518163ffffffff167c0100000000000000000000000000000000000000000000000000000000028152600401602060405180830381600087803b1580156200376e57600080fd5b505af115801562003783573d6000803e3d6000fd5b505050506040513d60208110156200379a57600080fd5b8101908080519060200190929190505050155b80156200387d57506000601460009054906101000a900473ffffffffffffffffffffffffffffffffffffffff1673ffffffffffffffffffffffffffffffffffffffff1663728b482b6040518163ffffffff167c0100000000000000000000000000000000000000000000000000000000028152600401602060405180830381600087803b1580156200383e57600080fd5b505af115801562003853573d6000803e3d6000fd5b505050506040513d60208110156200386a57600080fd5b8101908080519060200190929190505050115b80156200394d5750601460009054906101000a900473ffffffffffffffffffffffffffffffffffffffff1673ffffffffffffffffffffffffffffffffffffffff1663728b482b6040518163ffffffff167c0100000000000000000000000000000000000000000000000000000000028152600401602060405180830381600087803b1580156200390c57600080fd5b505af115801562003921573d6000803e3d6000fd5b505050506040513d60208110156200393857600080fd5b81019080805190602001909291905050504210155b801562003a1a5750601460009054906101000a900473ffffffffffffffffffffffffffffffffffffffff1673ffffffffffffffffffffffffffffffffffffffff166380322cbd6040518163ffffffff167c0100000000000000000000000000000000000000000000000000000000028152600401602060405180830381600087803b158015620039dc57600080fd5b505af1158015620039f1573d6000803e3d6000fd5b505050506040513d602081101562003a0857600080fd5b81019080805190602001909291905050505b1562003a2a576000905062003a3d565b601760009054906101000a900460ff1690505b90565b600d60009054906101000a900473ffffffffffffffffffffffffffffffffffffffff1673ffffffffffffffffffffffffffffffffffffffff163373ffffffffffffffffffffffffffffffffffffffff1614151562003a9d57600080fd5b62003aa762004d44565b565b600360009054906101000a900460ff1681565b600b60009054906101000a900473ffffffffffffffffffffffffffffffffffffffff1681565b601360009054906101000a900473ffffffffffffffffffffffffffffffffffffffff1681565b600660009054906101000a900473ffffffffffffffffffffffffffffffffffffffff1681565b600960009054906101000a900473ffffffffffffffffffffffffffffffffffffffff1681565b601460009054906101000a900473ffffffffffffffffffffffffffffffffffffffff1681565b600060011515600260003373ffffffffffffffffffffffffffffffffffffffff1673ffffffffffffffffffffffffffffffffffffffff16815260200190815260200160002060009054906101000a900460ff161515148062003c295750600d60009054906101000a900473ffffffffffffffffffffffffffffffffffffffff1673ffffffffffffffffffffffffffffffffffffffff163373ffffffffffffffffffffffffffffffffffffffff16145b151562003c3557600080fd5b6001600381111562003c4357fe5b600360009054906101000a900460ff16600381111562003c5f57fe5b14151562003c6c57600080fd5b6000601260008473ffffffffffffffffffffffffffffffffffffffff1673ffffffffffffffffffffffffffffffffffffffff1681526020019081526020016000205411151562003cbb57600080fd5b601260008373ffffffffffffffffffffffffffffffffffffffff1673ffffffffffffffffffffffffffffffffffffffff1681526020019081526020016000205490506000601260008473ffffffffffffffffffffffffffffffffffffffff1673ffffffffffffffffffffffffffffffffffffffff16815260200190815260200160002081905550600360019054906101000a900473ffffffffffffffffffffffffffffffffffffffff1673ffffffffffffffffffffffffffffffffffffffff1663a24835d183600360019054906101000a900473ffffffffffffffffffffffffffffffffffffffff1673ffffffffffffffffffffffffffffffffffffffff166370a08231866040518263ffffffff167c0100000000000000000000000000000000000000000000000000000000028152600401808273ffffffffffffffffffffffffffffffffffffffff1673ffffffffffffffffffffffffffffffffffffffff168152602001915050602060405180830381600087803b15801562003e3f57600080fd5b505af115801562003e54573d6000803e3d6000fd5b505050506040513d602081101562003e6b57600080fd5b81019080805190602001909291905050506040518363ffffffff167c0100000000000000000000000000000000000000000000000000000000028152600401808373ffffffffffffffffffffffffffffffffffffffff1673ffffffffffffffffffffffffffffffffffffffff16815260200182815260200192505050600060405180830381600087803b15801562003f0257600080fd5b505af115801562003f17573d6000803e3d6000fd5b505050508173ffffffffffffffffffffffffffffffffffffffff166108fc829081150290604051600060405180830381858888f1935050505015801562003f62573d6000803e3d6000fd5b507fec44c8b7c9108bd9d48e9a929c78d5a448562d61b1113d016ba7fd99d7dc3c7c828242604051808473ffffffffffffffffffffffffffffffffffffffff1673ffffffffffffffffffffffffffffffffffffffff168152602001838152602001828152602001935050505060405180910390a15050565b600060011515600260003373ffffffffffffffffffffffffffffffffffffffff1673ffffffffffffffffffffffffffffffffffffffff16815260200190815260200160002060009054906101000a900460ff1615151415156200403c57600080fd5b620040466200368b565b15156200405257600080fd5b60006010541115156200406457600080fd5b60105490506000601081905550600460009054906101000a900473ffffffffffffffffffffffffffffffffffffffff1673ffffffffffffffffffffffffffffffffffffffff166108fc829081150290604051600060405180830381858888f19350505050158015620040da573d6000803e3d6000fd5b507f56ca301a9219608c91e7bcee90e083c19671d2cdcc96752c7af291cee5f9c8c88142604051808381526020018281526020019250505060405180910390a150565b60026020528060005260406000206000915054906101000a900460ff1681565b600a60009054906101000a900473ffffffffffffffffffffffffffffffffffffffff1681565b6000809054906101000a900473ffffffffffffffffffffffffffffffffffffffff1673ffffffffffffffffffffffffffffffffffffffff163373ffffffffffffffffffffffffffffffffffffffff16141515620041bf57600080fd5b620041ca8162005ccf565b50565b6000603c8083811515620041dd57fe5b04811515620041e857fe5b069050919050565b6000806003808111156200420057fe5b600360009054906101000a900460ff1660038111156200421c57fe5b1415156200422957600080fd5b600360019054906101000a900473ffffffffffffffffffffffffffffffffffffffff1673ffffffffffffffffffffffffffffffffffffffff166370a08231336040518263ffffffff167c0100000000000000000000000000000000000000000000000000000000028152600401808273ffffffffffffffffffffffffffffffffffffffff1673ffffffffffffffffffffffffffffffffffffffff168152602001915050602060405180830381600087803b158015620042e757600080fd5b505af1158015620042fc573d6000803e3d6000fd5b505050506040513d60208110156200431357600080fd5b810190808051906020019092919050505091506000821115156200433657600080fd5b620044276200435d833073ffffffffffffffffffffffffffffffffffffffff1631620049b1565b600360019054906101000a900473ffffffffffffffffffffffffffffffffffffffff1673ffffffffffffffffffffffffffffffffffffffff166318160ddd6040518163ffffffff167c0100000000000000000000000000000000000000000000000000000000028152600401602060405180830381600087803b158015620043e457600080fd5b505af1158015620043f9573d6000803e3d6000fd5b505050506040513d60208110156200441057600080fd5b8101908080519060200190929190505050620049e7565b90506000811115156200443957600080fd5b600360019054906101000a900473ffffffffffffffffffffffffffffffffffffffff1673ffffffffffffffffffffffffffffffffffffffff1663a24835d133846040518363ffffffff167c0100000000000000000000000000000000000000000000000000000000028152600401808373ffffffffffffffffffffffffffffffffffffffff1673ffffffffffffffffffffffffffffffffffffffff16815260200182815260200192505050600060405180830381600087803b158015620044ff57600080fd5b505af115801562004514573d6000803e3d6000fd5b505050503373ffffffffffffffffffffffffffffffffffffffff166108fc829081150290604051600060405180830381858888f193505050501580156200455f573d6000803e3d6000fd5b507f2fe53133356d775fd6784d23de274186e0721e0d93074ae2392acb8968bb2e5133828442604051808573ffffffffffffffffffffffffffffffffffffffff1673ffffffffffffffffffffffffffffffffffffffff16815260200184815260200183815260200182815260200194505050505060405180910390a15050565b600360019054906101000a900473ffffffffffffffffffffffffffffffffffffffff1681565b600e5481565b6000600160038111156200461b57fe5b600360009054906101000a900460ff1660038111156200463757fe5b1415156200464457600080fd5b6000601260003373ffffffffffffffffffffffffffffffffffffffff1673ffffffffffffffffffffffffffffffffffffffff168152602001908152602001600020541115156200469357600080fd5b601260003373ffffffffffffffffffffffffffffffffffffffff1673ffffffffffffffffffffffffffffffffffffffff1681526020019081526020016000205490506000601260003373ffffffffffffffffffffffffffffffffffffffff1673ffffffffffffffffffffffffffffffffffffffff16815260200190815260200160002081905550600360019054906101000a900473ffffffffffffffffffffffffffffffffffffffff1673ffffffffffffffffffffffffffffffffffffffff1663a24835d133600360019054906101000a900473ffffffffffffffffffffffffffffffffffffffff1673ffffffffffffffffffffffffffffffffffffffff166370a08231336040518263ffffffff167c0100000000000000000000000000000000000000000000000000000000028152600401808273ffffffffffffffffffffffffffffffffffffffff1673ffffffffffffffffffffffffffffffffffffffff168152602001915050602060405180830381600087803b1580156200481757600080fd5b505af11580156200482c573d6000803e3d6000fd5b505050506040513d60208110156200484357600080fd5b81019080805190602001909291905050506040518363ffffffff167c0100000000000000000000000000000000000000000000000000000000028152600401808373ffffffffffffffffffffffffffffffffffffffff1673ffffffffffffffffffffffffffffffffffffffff16815260200182815260200192505050600060405180830381600087803b158015620048da57600080fd5b505af1158015620048ef573d6000803e3d6000fd5b505050503373ffffffffffffffffffffffffffffffffffffffff166108fc829081150290604051600060405180830381858888f193505050501580156200493a573d6000803e3d6000fd5b507fec44c8b7c9108bd9d48e9a929c78d5a448562d61b1113d016ba7fd99d7dc3c7c338242604051808473ffffffffffffffffffffffffffffffffffffffff1673ffffffffffffffffffffffffffffffffffffffff168152602001838152602001828152602001935050505060405180910390a150565b60008082840290506000841480620049d45750828482811515620049d157fe5b04145b1515620049dd57fe5b8091505092915050565b6000808284811515620049f657fe5b0490508091505092915050565b600080828401905083811015151562004a1857fe5b8091505092915050565b600062004a31826002620049e7565b9050600a81111562004a4b57600a60158190555062004a53565b806015819055505b5050565b60008062004a7562004a6c42600f5462005eaa565b600e54620049b1565b9050803073ffffffffffffffffffffffffffffffffffffffff1631101562004ab2573073ffffffffffffffffffffffffffffffffffffffff163190505b8091505090565b600080600060165411801562004ad157506016544210155b801562004aee575062004aea6016546201518062004a03565b4211155b1562004afe576001915062004b83565b5b60188054905081101562004b7e5760188181548110151562004b1d57fe5b9060005260206000200154421015801562004b60575062004b5c60188281548110151562004b4757fe5b90600052602060002001546201518062004a03565b4211155b1562004b70576001915062004b83565b808060010191505062004aff565b600091505b5090565b62004b9162005f0a565b6000806000806000935062004ba68662003228565b856000019061ffff16908161ffff168152505062004bca6107b261ffff166200356c565b62004bdd866000015161ffff166200356c565b039250826301e285000284019350826107b286600001510361ffff16036301e133800284019350600191505b600c8260ff1611151562004c675762004c27828660000151620035a8565b60ff166201518002905085848201111562004c545781856020019060ff16908160ff168152505062004c67565b8084019350818060010192505062004c09565b600191505b62004c8085602001518660000151620035a8565b60ff168260ff1611151562004ccb5785846201518001111562004cb55781856040019060ff16908160ff168152505062004ccb565b6201518084019350818060010192505062004c6c565b62004cd68662001fc7565b856060019060ff16908160ff168152505062004cf286620041cd565b856080019060ff16908160ff168152505062004d0e8662002edb565b8560a0019060ff16908160ff168152505062004d2a86620023b1565b8560c0019060ff16908160ff168152505050505050919050565b6002600381111562004d5257fe5b600360009054906101000a900460ff16600381111562004d6e57fe5b14151562004d7b57600080fd5b60038060006101000a81548160ff0219169083600381111562004d9a57fe5b0217905550600360019054906101000a900473ffffffffffffffffffffffffffffffffffffffff1673ffffffffffffffffffffffffffffffffffffffff1663a24835d1600c60009054906101000a900473ffffffffffffffffffffffffffffffffffffffff16600360019054906101000a900473ffffffffffffffffffffffffffffffffffffffff1673ffffffffffffffffffffffffffffffffffffffff166370a08231600c60009054906101000a900473ffffffffffffffffffffffffffffffffffffffff166040518263ffffffff167c0100000000000000000000000000000000000000000000000000000000028152600401808273ffffffffffffffffffffffffffffffffffffffff1673ffffffffffffffffffffffffffffffffffffffff168152602001915050602060405180830381600087803b15801562004ee057600080fd5b505af115801562004ef5573d6000803e3d6000fd5b505050506040513d602081101562004f0c57600080fd5b81019080805190602001909291905050506040518363ffffffff167c0100000000000000000000000000000000000000000000000000000000028152600401808373ffffffffffffffffffffffffffffffffffffffff1673ffffffffffffffffffffffffffffffffffffffff16815260200182815260200192505050600060405180830381600087803b15801562004fa357600080fd5b505af115801562004fb8573d6000803e3d6000fd5b50505050600360019054906101000a900473ffffffffffffffffffffffffffffffffffffffff1673ffffffffffffffffffffffffffffffffffffffff1663a24835d1600a60009054906101000a900473ffffffffffffffffffffffffffffffffffffffff16600360019054906101000a900473ffffffffffffffffffffffffffffffffffffffff1673ffffffffffffffffffffffffffffffffffffffff166370a08231600a60009054906101000a900473ffffffffffffffffffffffffffffffffffffffff166040518263ffffffff167c0100000000000000000000000000000000000000000000000000000000028152600401808273ffffffffffffffffffffffffffffffffffffffff1673ffffffffffffffffffffffffffffffffffffffff168152602001915050602060405180830381600087803b158015620050fd57600080fd5b505af115801562005112573d6000803e3d6000fd5b505050506040513d60208110156200512957600080fd5b81019080805190602001909291905050506040518363ffffffff167c0100000000000000000000000000000000000000000000000000000000028152600401808373ffffffffffffffffffffffffffffffffffffffff1673ffffffffffffffffffffffffffffffffffffffff16815260200182815260200192505050600060405180830381600087803b158015620051c057600080fd5b505af1158015620051d5573d6000803e3d6000fd5b50505050600360019054906101000a900473ffffffffffffffffffffffffffffffffffffffff1673ffffffffffffffffffffffffffffffffffffffff1663a24835d1600860009054906101000a900473ffffffffffffffffffffffffffffffffffffffff16600360019054906101000a900473ffffffffffffffffffffffffffffffffffffffff1673ffffffffffffffffffffffffffffffffffffffff166370a08231600860009054906101000a900473ffffffffffffffffffffffffffffffffffffffff166040518263ffffffff167c0100000000000000000000000000000000000000000000000000000000028152600401808273ffffffffffffffffffffffffffffffffffffffff1673ffffffffffffffffffffffffffffffffffffffff168152602001915050602060405180830381600087803b1580156200531a57600080fd5b505af11580156200532f573d6000803e3d6000fd5b505050506040513d60208110156200534657600080fd5b81019080805190602001909291905050506040518363ffffffff167c0100000000000000000000000000000000000000000000000000000000028152600401808373ffffffffffffffffffffffffffffffffffffffff1673ffffffffffffffffffffffffffffffffffffffff16815260200182815260200192505050600060405180830381600087803b158015620053dd57600080fd5b505af1158015620053f2573d6000803e3d6000fd5b50505050600360019054906101000a900473ffffffffffffffffffffffffffffffffffffffff1673ffffffffffffffffffffffffffffffffffffffff1663a24835d1600760009054906101000a900473ffffffffffffffffffffffffffffffffffffffff16600360019054906101000a900473ffffffffffffffffffffffffffffffffffffffff1673ffffffffffffffffffffffffffffffffffffffff166370a08231600760009054906101000a900473ffffffffffffffffffffffffffffffffffffffff166040518263ffffffff167c0100000000000000000000000000000000000000000000000000000000028152600401808273ffffffffffffffffffffffffffffffffffffffff1673ffffffffffffffffffffffffffffffffffffffff168152602001915050602060405180830381600087803b1580156200553757600080fd5b505af11580156200554c573d6000803e3d6000fd5b505050506040513d60208110156200556357600080fd5b81019080805190602001909291905050506040518363ffffffff167c0100000000000000000000000000000000000000000000000000000000028152600401808373ffffffffffffffffffffffffffffffffffffffff1673ffffffffffffffffffffffffffffffffffffffff16815260200182815260200192505050600060405180830381600087803b158015620055fa57600080fd5b505af11580156200560f573d6000803e3d6000fd5b50505050600360019054906101000a900473ffffffffffffffffffffffffffffffffffffffff1673ffffffffffffffffffffffffffffffffffffffff1663a24835d1600960009054906101000a900473ffffffffffffffffffffffffffffffffffffffff16600360019054906101000a900473ffffffffffffffffffffffffffffffffffffffff1673ffffffffffffffffffffffffffffffffffffffff166370a08231600960009054906101000a900473ffffffffffffffffffffffffffffffffffffffff166040518263ffffffff167c0100000000000000000000000000000000000000000000000000000000028152600401808273ffffffffffffffffffffffffffffffffffffffff1673ffffffffffffffffffffffffffffffffffffffff168152602001915050602060405180830381600087803b1580156200575457600080fd5b505af115801562005769573d6000803e3d6000fd5b505050506040513d60208110156200578057600080fd5b81019080805190602001909291905050506040518363ffffffff167c0100000000000000000000000000000000000000000000000000000000028152600401808373ffffffffffffffffffffffffffffffffffffffff1673ffffffffffffffffffffffffffffffffffffffff16815260200182815260200192505050600060405180830381600087803b1580156200581757600080fd5b505af11580156200582c573d6000803e3d6000fd5b50505050600360019054906101000a900473ffffffffffffffffffffffffffffffffffffffff1673ffffffffffffffffffffffffffffffffffffffff1663a24835d1600660009054906101000a900473ffffffffffffffffffffffffffffffffffffffff16600360019054906101000a900473ffffffffffffffffffffffffffffffffffffffff1673ffffffffffffffffffffffffffffffffffffffff166370a08231600660009054906101000a900473ffffffffffffffffffffffffffffffffffffffff166040518263ffffffff167c0100000000000000000000000000000000000000000000000000000000028152600401808273ffffffffffffffffffffffffffffffffffffffff1673ffffffffffffffffffffffffffffffffffffffff168152602001915050602060405180830381600087803b1580156200597157600080fd5b505af115801562005986573d6000803e3d6000fd5b505050506040513d60208110156200599d57600080fd5b81019080805190602001909291905050506040518363ffffffff167c0100000000000000000000000000000000000000000000000000000000028152600401808373ffffffffffffffffffffffffffffffffffffffff1673ffffffffffffffffffffffffffffffffffffffff16815260200182815260200192505050600060405180830381600087803b15801562005a3457600080fd5b505af115801562005a49573d6000803e3d6000fd5b50505050600360019054906101000a900473ffffffffffffffffffffffffffffffffffffffff1673ffffffffffffffffffffffffffffffffffffffff1663a24835d1600b60009054906101000a900473ffffffffffffffffffffffffffffffffffffffff16600360019054906101000a900473ffffffffffffffffffffffffffffffffffffffff1673ffffffffffffffffffffffffffffffffffffffff166370a08231600b60009054906101000a900473ffffffffffffffffffffffffffffffffffffffff166040518263ffffffff167c0100000000000000000000000000000000000000000000000000000000028152600401808273ffffffffffffffffffffffffffffffffffffffff1673ffffffffffffffffffffffffffffffffffffffff168152602001915050602060405180830381600087803b15801562005b8e57600080fd5b505af115801562005ba3573d6000803e3d6000fd5b505050506040513d602081101562005bba57600080fd5b81019080805190602001909291905050506040518363ffffffff167c0100000000000000000000000000000000000000000000000000000000028152600401808373ffffffffffffffffffffffffffffffffffffffff1673ffffffffffffffffffffffffffffffffffffffff16815260200182815260200192505050600060405180830381600087803b15801562005c5157600080fd5b505af115801562005c66573d6000803e3d6000fd5b505050507f32a9af620b9010e46c598870c64620a9c1b65816b3140fbd73ea13f2e50cdb2333604051808273ffffffffffffffffffffffffffffffffffffffff1673ffffffffffffffffffffffffffffffffffffffff16815260200191505060405180910390a1565b600080600091505b60018054905082101562005d855760006002600060018581548110151562005cfb57fe5b9060005260206000200160009054906101000a900473ffffffffffffffffffffffffffffffffffffffff1673ffffffffffffffffffffffffffffffffffffffff1673ffffffffffffffffffffffffffffffffffffffff16815260200190815260200160002060006101000a81548160ff021916908315150217905550818060010192505062005cd7565b600090505b825181101562005e1257600160026000858481518110151562005da957fe5b9060200190602002015173ffffffffffffffffffffffffffffffffffffffff1673ffffffffffffffffffffffffffffffffffffffff16815260200190815260200160002060006101000a81548160ff021916908315150217905550808060010191505062005d8a565b826001908051906020019062005e2a92919062005f5e565b507f9465cd279c2de393c5568ae444599e3644e3d1864ca2c05ced8a654df2aea3cb836040518080602001828103825283818151815260200191508051906020019060200280838360005b8381101562005e9257808201518184015260208101905062005e75565b505050509050019250505060405180910390a1505050565b600081831015151562005eb957fe5b818303905092915050565b6040516113cc806200603483390190565b604051611302806200740083390190565b61018060405190810160405280600c90602082028038833980820191505090505090565b60e060405190810160405280600061ffff168152602001600060ff168152602001600060ff168152602001600060ff168152602001600060ff168152602001600060ff168152602001600060ff1681525090565b82805482825590600052602060002090810192821562005fda579160200282015b8281111562005fd95782518260006101000a81548173ffffffffffffffffffffffffffffffffffffffff021916908373ffffffffffffffffffffffffffffffffffffffff1602179055509160200191906001019062005f7f565b5b50905062005fe9919062005fed565b5090565b6200603091905b808211156200602c57600081816101000a81549073ffffffffffffffffffffffffffffffffffffffff02191690555060010162005ff4565b5090565b90560060806040526000600555600060065560006007556000600b5534801561002457600080fd5b5060405160c0806113cc8339810180604052810190808051906020019092919080519060200190929190805190602001909291908051906020019092919080519060200190929190805190602001909291905050508484848460008073ffffffffffffffffffffffffffffffffffffffff168573ffffffffffffffffffffffffffffffffffffffff16141515156100ba57600080fd5b4283101580156100c957508282115b15156100d457600080fd5b846000806101000a81548173ffffffffffffffffffffffffffffffffffffffff021916908373ffffffffffffffffffffffffffffffffffffffff16021790555083600160006101000a81548173ffffffffffffffffffffffffffffffffffffffff021916908373ffffffffffffffffffffffffffffffffffffffff16021790555082600281905550816003819055506000600860006101000a81548160ff02191690831515021790555080600460006101000a81548160ff021916908315150217905550505050505085600a8190555080600b8190555050505050505061120c806101c06000396000f3006080604052600436106100fc576000357c0100000000000000000000000000000000000000000000000000000000900463ffffffff1680632c24909c146101015780633197cbb61461012c578063361810261461015757806341fdade61461018657806343c14b22146101b15780634b9f5c98146101c857806364a90292146101f75780636f6a97621461022257806378e979251461024d57806380322cbd14610278578063a7491b48146102a7578063b3a2273f14610310578063b3f05b971461033b578063c734f9171461036a578063d74689e4146103b7578063e82bef29146103e2578063fc0c546a14610439578063fd22103114610490575b600080fd5b34801561010d57600080fd5b506101166104bb565b6040518082815260200191505060405180910390f35b34801561013857600080fd5b506101416105a2565b6040518082815260200191505060405180910390f35b34801561016357600080fd5b5061016c6105a8565b604051808215151515815260200191505060405180910390f35b34801561019257600080fd5b5061019b61060c565b6040518082815260200191505060405180910390f35b3480156101bd57600080fd5b506101c6610612565b005b3480156101d457600080fd5b506101f560048036038101908080351515906020019092919050505061084e565b005b34801561020357600080fd5b5061020c610bc9565b6040518082815260200191505060405180910390f35b34801561022e57600080fd5b50610237610bcf565b6040518082815260200191505060405180910390f35b34801561025957600080fd5b50610262610bd5565b6040518082815260200191505060405180910390f35b34801561028457600080fd5b5061028d610bdb565b604051808215151515815260200191505060405180910390f35b3480156102b357600080fd5b506102e8600480360381019080803573ffffffffffffffffffffffffffffffffffffffff169060200190929190505050610bea565b6040518084815260200183815260200182151515158152602001935050505060405180910390f35b34801561031c57600080fd5b50610325610c21565b6040518082815260200191505060405180910390f35b34801561034757600080fd5b50610350610c27565b604051808215151515815260200191505060405180910390f35b34801561037657600080fd5b506103b5600480360381019080803573ffffffffffffffffffffffffffffffffffffffff16906020019092919080359060200190929190505050610c3a565b005b3480156103c357600080fd5b506103cc611021565b6040518082815260200191505060405180910390f35b3480156103ee57600080fd5b506103f7611027565b604051808273ffffffffffffffffffffffffffffffffffffffff1673ffffffffffffffffffffffffffffffffffffffff16815260200191505060405180910390f35b34801561044557600080fd5b5061044e61104d565b604051808273ffffffffffffffffffffffffffffffffffffffff1673ffffffffffffffffffffffffffffffffffffffff16815260200191505060405180910390f35b34801561049c57600080fd5b506104a5611072565b6040518082815260200191505060405180910390f35b600061059d6104d86104d1600554600654611078565b6064611096565b6000809054906101000a900473ffffffffffffffffffffffffffffffffffffffff1673ffffffffffffffffffffffffffffffffffffffff166318160ddd6040518163ffffffff167c0100000000000000000000000000000000000000000000000000000000028152600401602060405180830381600087803b15801561055d57600080fd5b505af1158015610571573d6000803e3d6000fd5b505050506040513d602081101561058757600080fd5b81019080805190602001909291905050506110c9565b905090565b60035481565b6000600860009054906101000a900460ff161515156105c657600080fd5b6003544210156105d95760009050610609565b6001600860006101000a81548160ff0219169083151502179055506106046105ff6110e4565b611107565b600190505b90565b6103e881565b600080600254421015801561062957506003544211155b151561063457600080fd5b6000600960003373ffffffffffffffffffffffffffffffffffffffff1673ffffffffffffffffffffffffffffffffffffffff1681526020019081526020016000206000015411151561068557600080fd5b600960003373ffffffffffffffffffffffffffffffffffffffff1673ffffffffffffffffffffffffffffffffffffffff168152602001908152602001600020600101549150600960003373ffffffffffffffffffffffffffffffffffffffff1673ffffffffffffffffffffffffffffffffffffffff16815260200190815260200160002060020160009054906101000a900460ff1690506000600960003373ffffffffffffffffffffffffffffffffffffffff1673ffffffffffffffffffffffffffffffffffffffff168152602001908152602001600020600001819055506000600960003373ffffffffffffffffffffffffffffffffffffffff1673ffffffffffffffffffffffffffffffffffffffff168152602001908152602001600020600101819055506000600960003373ffffffffffffffffffffffffffffffffffffffff1673ffffffffffffffffffffffffffffffffffffffff16815260200190815260200160002060020160006101000a81548160ff02191690831515021790555061081460075460016111c7565b60078190555080156108375761082c600554836111c7565b60058190555061084a565b610843600654836111c7565b6006819055505b5050565b600080600254421015801561086557506003544211155b151561087057600080fd5b6000600960003373ffffffffffffffffffffffffffffffffffffffff1673ffffffffffffffffffffffffffffffffffffffff168152602001908152602001600020600001541415156108c157600080fd5b6000809054906101000a900473ffffffffffffffffffffffffffffffffffffffff1673ffffffffffffffffffffffffffffffffffffffff166370a08231336040518263ffffffff167c0100000000000000000000000000000000000000000000000000000000028152600401808273ffffffffffffffffffffffffffffffffffffffff1673ffffffffffffffffffffffffffffffffffffffff168152602001915050602060405180830381600087803b15801561097d57600080fd5b505af1158015610991573d6000803e3d6000fd5b505050506040513d60208110156109a757600080fd5b81019080805190602001909291905050509150610a856000809054906101000a900473ffffffffffffffffffffffffffffffffffffffff1673ffffffffffffffffffffffffffffffffffffffff166318160ddd6040518163ffffffff167c0100000000000000000000000000000000000000000000000000000000028152600401602060405180830381600087803b158015610a4257600080fd5b505af1158015610a56573d6000803e3d6000fd5b505050506040513d6020811015610a6c57600080fd5b81019080805190602001909291905050506103e86110c9565b905080821115610a955780610a97565b815b91508215610ab657610aab60055483611078565b600581905550610ac9565b610ac260065483611078565b6006819055505b42600960003373ffffffffffffffffffffffffffffffffffffffff1673ffffffffffffffffffffffffffffffffffffffff1681526020019081526020016000206000018190555081600960003373ffffffffffffffffffffffffffffffffffffffff1673ffffffffffffffffffffffffffffffffffffffff1681526020019081526020016000206001018190555082600960003373ffffffffffffffffffffffffffffffffffffffff1673ffffffffffffffffffffffffffffffffffffffff16815260200190815260200160002060020160006101000a81548160ff021916908315150217905550610bbe6007546001611078565b600781905550505050565b60065481565b600b5481565b60025481565b6000610be56110e4565b905090565b60096020528060005260406000206000915090508060000154908060010154908060020160009054906101000a900460ff16905083565b60075481565b600860009054906101000a900460ff1681565b6000600160009054906101000a900473ffffffffffffffffffffffffffffffffffffffff1673ffffffffffffffffffffffffffffffffffffffff163373ffffffffffffffffffffffffffffffffffffffff16141515610c9857600080fd5b6000600960008573ffffffffffffffffffffffffffffffffffffffff1673ffffffffffffffffffffffffffffffffffffffff168152602001908152602001600020600001541415610ce85761101c565b600460009054906101000a900460ff161515610d3157600860009054906101000a900460ff1680610d265750600254421080610d25575060035442115b5b15610d305761101c565b5b600960008473ffffffffffffffffffffffffffffffffffffffff1673ffffffffffffffffffffffffffffffffffffffff168152602001908152602001600020600101546000809054906101000a900473ffffffffffffffffffffffffffffffffffffffff1673ffffffffffffffffffffffffffffffffffffffff166370a08231856040518263ffffffff167c0100000000000000000000000000000000000000000000000000000000028152600401808273ffffffffffffffffffffffffffffffffffffffff1673ffffffffffffffffffffffffffffffffffffffff168152602001915050602060405180830381600087803b158015610e3057600080fd5b505af1158015610e44573d6000803e3d6000fd5b505050506040513d6020811015610e5a57600080fd5b8101908080519060200190929190505050101515610e775761101c565b819050600960008473ffffffffffffffffffffffffffffffffffffffff1673ffffffffffffffffffffffffffffffffffffffff16815260200190815260200160002060010154821115610f0a57600960008473ffffffffffffffffffffffffffffffffffffffff1673ffffffffffffffffffffffffffffffffffffffff1681526020019081526020016000206001015490505b600960008473ffffffffffffffffffffffffffffffffffffffff1673ffffffffffffffffffffffffffffffffffffffff16815260200190815260200160002060020160009054906101000a900460ff1615610f7657610f6b600554826111c7565b600581905550610f89565b610f82600654826111c7565b6006819055505b610fd5600960008573ffffffffffffffffffffffffffffffffffffffff1673ffffffffffffffffffffffffffffffffffffffff16815260200190815260200160002060010154826111c7565b600960008573ffffffffffffffffffffffffffffffffffffffff1673ffffffffffffffffffffffffffffffffffffffff168152602001908152602001600020600101819055505b505050565b60055481565b600160009054906101000a900473ffffffffffffffffffffffffffffffffffffffff1681565b6000809054906101000a900473ffffffffffffffffffffffffffffffffffffffff1681565b600a5481565b600080828401905083811015151561108c57fe5b8091505092915050565b600080828402905060008414806110b757508284828115156110b457fe5b04145b15156110bf57fe5b8091505092915050565b60008082848115156110d757fe5b0490508091505092915050565b60006006546005541180156111025750600b546110ff6104bb565b10155b905090565b6000600160009054906101000a900473ffffffffffffffffffffffffffffffffffffffff1690508073ffffffffffffffffffffffffffffffffffffffff166329c90b6383600a546040518363ffffffff167c0100000000000000000000000000000000000000000000000000000000028152600401808315151515815260200182815260200192505050600060405180830381600087803b1580156111ab57600080fd5b505af11580156111bf573d6000803e3d6000fd5b505050505050565b60008183101515156111d557fe5b8183039050929150505600a165627a7a723058205f21708ad9095139390f6f4fbbca312af86d3cc9200c6510369aed759a315451002960806040526000600555600060065560006007556000600a5534801561002457600080fd5b5060405160c0806113028339810180604052810190808051906020019092919080519060200190929190805190602001909291908051906020019092919080519060200190929190805190602001909291905050508585858584600073ffffffffffffffffffffffffffffffffffffffff168573ffffffffffffffffffffffffffffffffffffffff16141515156100ba57600080fd5b4283101580156100c957508282115b15156100d457600080fd5b846000806101000a81548173ffffffffffffffffffffffffffffffffffffffff021916908373ffffffffffffffffffffffffffffffffffffffff16021790555083600160006101000a81548173ffffffffffffffffffffffffffffffffffffffff021916908373ffffffffffffffffffffffffffffffffffffffff16021790555082600281905550816003819055506000600860006101000a81548160ff02191690831515021790555080600460006101000a81548160ff021916908315150217905550505050505081600a81905550505050505050611149806101b96000396000f3006080604052600436106100e6576000357c0100000000000000000000000000000000000000000000000000000000900463ffffffff1680633197cbb6146100eb578063361810261461011657806341fdade61461014557806343c14b22146101705780634b9f5c981461018757806364a90292146101b6578063728b482b146101e157806378e979251461020c57806380322cbd14610237578063a7491b4814610266578063b3a2273f146102cf578063b3f05b97146102fa578063c734f91714610329578063d74689e414610376578063e82bef29146103a1578063fc0c546a146103f8575b600080fd5b3480156100f757600080fd5b5061010061044f565b6040518082815260200191505060405180910390f35b34801561012257600080fd5b5061012b610455565b604051808215151515815260200191505060405180910390f35b34801561015157600080fd5b5061015a6104ca565b6040518082815260200191505060405180910390f35b34801561017c57600080fd5b506101856104d0565b005b34801561019357600080fd5b506101b460048036038101908080351515906020019092919050505061070c565b005b3480156101c257600080fd5b506101cb610a87565b6040518082815260200191505060405180910390f35b3480156101ed57600080fd5b506101f6610a8d565b6040518082815260200191505060405180910390f35b34801561021857600080fd5b50610221610a93565b6040518082815260200191505060405180910390f35b34801561024357600080fd5b5061024c610a99565b604051808215151515815260200191505060405180910390f35b34801561027257600080fd5b506102a7600480360381019080803573ffffffffffffffffffffffffffffffffffffffff169060200190929190505050610aa8565b6040518084815260200183815260200182151515158152602001935050505060405180910390f35b3480156102db57600080fd5b506102e4610adf565b6040518082815260200191505060405180910390f35b34801561030657600080fd5b5061030f610ae5565b604051808215151515815260200191505060405180910390f35b34801561033557600080fd5b50610374600480360381019080803573ffffffffffffffffffffffffffffffffffffffff16906020019092919080359060200190929190505050610af8565b005b34801561038257600080fd5b5061038b610edf565b6040518082815260200191505060405180910390f35b3480156103ad57600080fd5b506103b6610ee5565b604051808273ffffffffffffffffffffffffffffffffffffffff1673ffffffffffffffffffffffffffffffffffffffff16815260200191505060405180910390f35b34801561040457600080fd5b5061040d610f0b565b604051808273ffffffffffffffffffffffffffffffffffffffff1673ffffffffffffffffffffffffffffffffffffffff16815260200191505060405180910390f35b60035481565b600080600a5411801561046b5750600354600a54115b1561048657600a54421015151561048157600080fd5b610498565b600354421015151561049757600080fd5b5b6001600860006101000a81548160ff0219169083151502179055506104c36104be610f30565b611015565b6001905090565b6103e881565b60008060025442101580156104e757506003544211155b15156104f257600080fd5b6000600960003373ffffffffffffffffffffffffffffffffffffffff1673ffffffffffffffffffffffffffffffffffffffff1681526020019081526020016000206000015411151561054357600080fd5b600960003373ffffffffffffffffffffffffffffffffffffffff1673ffffffffffffffffffffffffffffffffffffffff168152602001908152602001600020600101549150600960003373ffffffffffffffffffffffffffffffffffffffff1673ffffffffffffffffffffffffffffffffffffffff16815260200190815260200160002060020160009054906101000a900460ff1690506000600960003373ffffffffffffffffffffffffffffffffffffffff1673ffffffffffffffffffffffffffffffffffffffff168152602001908152602001600020600001819055506000600960003373ffffffffffffffffffffffffffffffffffffffff1673ffffffffffffffffffffffffffffffffffffffff168152602001908152602001600020600101819055506000600960003373ffffffffffffffffffffffffffffffffffffffff1673ffffffffffffffffffffffffffffffffffffffff16815260200190815260200160002060020160006101000a81548160ff0219169083151502179055506106d260075460016110cb565b60078190555080156106f5576106ea600554836110cb565b600581905550610708565b610701600654836110cb565b6006819055505b5050565b600080600254421015801561072357506003544211155b151561072e57600080fd5b6000600960003373ffffffffffffffffffffffffffffffffffffffff1673ffffffffffffffffffffffffffffffffffffffff1681526020019081526020016000206000015414151561077f57600080fd5b6000809054906101000a900473ffffffffffffffffffffffffffffffffffffffff1673ffffffffffffffffffffffffffffffffffffffff166370a08231336040518263ffffffff167c0100000000000000000000000000000000000000000000000000000000028152600401808273ffffffffffffffffffffffffffffffffffffffff1673ffffffffffffffffffffffffffffffffffffffff168152602001915050602060405180830381600087803b15801561083b57600080fd5b505af115801561084f573d6000803e3d6000fd5b505050506040513d602081101561086557600080fd5b810190808051906020019092919050505091506109436000809054906101000a900473ffffffffffffffffffffffffffffffffffffffff1673ffffffffffffffffffffffffffffffffffffffff166318160ddd6040518163ffffffff167c0100000000000000000000000000000000000000000000000000000000028152600401602060405180830381600087803b15801561090057600080fd5b505af1158015610914573d6000803e3d6000fd5b505050506040513d602081101561092a57600080fd5b81019080805190602001909291905050506103e86110e4565b9050808211156109535780610955565b815b9150821561097457610969600554836110ff565b600581905550610987565b610980600654836110ff565b6006819055505b42600960003373ffffffffffffffffffffffffffffffffffffffff1673ffffffffffffffffffffffffffffffffffffffff1681526020019081526020016000206000018190555081600960003373ffffffffffffffffffffffffffffffffffffffff1673ffffffffffffffffffffffffffffffffffffffff1681526020019081526020016000206001018190555082600960003373ffffffffffffffffffffffffffffffffffffffff1673ffffffffffffffffffffffffffffffffffffffff16815260200190815260200160002060020160006101000a81548160ff021916908315150217905550610a7c60075460016110ff565b600781905550505050565b60065481565b600a5481565b60025481565b6000610aa3610f30565b905090565b60096020528060005260406000206000915090508060000154908060010154908060020160009054906101000a900460ff16905083565b60075481565b600860009054906101000a900460ff1681565b6000600160009054906101000a900473ffffffffffffffffffffffffffffffffffffffff1673ffffffffffffffffffffffffffffffffffffffff163373ffffffffffffffffffffffffffffffffffffffff16141515610b5657600080fd5b6000600960008573ffffffffffffffffffffffffffffffffffffffff1673ffffffffffffffffffffffffffffffffffffffff168152602001908152602001600020600001541415610ba657610eda565b600460009054906101000a900460ff161515610bef57600860009054906101000a900460ff1680610be45750600254421080610be3575060035442115b5b15610bee57610eda565b5b600960008473ffffffffffffffffffffffffffffffffffffffff1673ffffffffffffffffffffffffffffffffffffffff168152602001908152602001600020600101546000809054906101000a900473ffffffffffffffffffffffffffffffffffffffff1673ffffffffffffffffffffffffffffffffffffffff166370a08231856040518263ffffffff167c0100000000000000000000000000000000000000000000000000000000028152600401808273ffffffffffffffffffffffffffffffffffffffff1673ffffffffffffffffffffffffffffffffffffffff168152602001915050602060405180830381600087803b158015610cee57600080fd5b505af1158015610d02573d6000803e3d6000fd5b505050506040513d6020811015610d1857600080fd5b8101908080519060200190929190505050101515610d3557610eda565b819050600960008473ffffffffffffffffffffffffffffffffffffffff1673ffffffffffffffffffffffffffffffffffffffff16815260200190815260200160002060010154821115610dc857600960008473ffffffffffffffffffffffffffffffffffffffff1673ffffffffffffffffffffffffffffffffffffffff1681526020019081526020016000206001015490505b600960008473ffffffffffffffffffffffffffffffffffffffff1673ffffffffffffffffffffffffffffffffffffffff16815260200190815260200160002060020160009054906101000a900460ff1615610e3457610e29600554826110cb565b600581905550610e47565b610e40600654826110cb565b6006819055505b610e93600960008573ffffffffffffffffffffffffffffffffffffffff1673ffffffffffffffffffffffffffffffffffffffff16815260200190815260200160002060010154826110cb565b600960008573ffffffffffffffffffffffffffffffffffffffff1673ffffffffffffffffffffffffffffffffffffffff168152602001908152602001600020600101819055505b505050565b60055481565b600160009054906101000a900473ffffffffffffffffffffffffffffffffffffffff1681565b6000809054906101000a900473ffffffffffffffffffffffffffffffffffffffff1681565b6000600654600554118015611010575061100a6000809054906101000a900473ffffffffffffffffffffffffffffffffffffffff1673ffffffffffffffffffffffffffffffffffffffff166318160ddd6040518163ffffffff167c0100000000000000000000000000000000000000000000000000000000028152600401602060405180830381600087803b158015610fc857600080fd5b505af1158015610fdc573d6000803e3d6000fd5b505050506040513d6020811015610ff257600080fd5b810190808051906020019092919050505060036110e4565b60055410155b905090565b6000600160009054906101000a900473ffffffffffffffffffffffffffffffffffffffff1690508073ffffffffffffffffffffffffffffffffffffffff166389ea2cb7836040518263ffffffff167c01000000000000000000000000000000000000000000000000000000000281526004018082151515158152602001915050600060405180830381600087803b1580156110af57600080fd5b505af11580156110c3573d6000803e3d6000fd5b505050505050565b60008183101515156110d957fe5b818303905092915050565b60008082848115156110f257fe5b0490508091505092915050565b600080828401905083811015151561111357fe5b80915050929150505600a165627a7a7230582078146ee64e5c52f2aaf56cb3d7f6dd78beb5aeb2a8a920919859603ce4e784cb0029a165627a7a7230582054ddfac0c7f52a21fd51e2171f56b3b46cded8170c3483b5ec6ed3574b65b57c0029",
  "source": "pragma solidity ^0.4.21;\n\nimport './DateTime.sol';\nimport './Fund.sol';\nimport './TapPoll.sol';\nimport './RefundPoll.sol';\nimport './fund/IPollManagedFund.sol';\nimport './token/ITokenEventListener.sol';\n\n/**\n * @title PollManagedFund\n * @dev Fund controlled by users\n */\ncontract PollManagedFund is Fund, DateTime, ITokenEventListener {\n    uint256 public constant TAP_POLL_DURATION = 3 days;\n    uint256 public constant REFUND_POLL_DURATION = 7 days;\n    uint256 public constant MAX_VOTED_TOKEN_PERC = 10;\n\n    TapPoll public tapPoll;\n    RefundPoll public refundPoll;\n\n    uint256 public minVotedTokensPerc = 0;\n    uint256 public secondRefundPollDate = 0;\n    bool public isWithdrawEnabled = true;\n\n    uint256[] public refundPollDates = [\n        1530403200, // 01.07.2018\n        1538352000, // 01.10.2018\n        1546300800, // 01.01.2019\n        1554076800, // 01.04.2019\n        1561939200, // 01.07.2019\n        1569888000, // 01.10.2019\n        1577836800, // 01.01.2020\n        1585699200  // 01.04.2020\n    ];\n\n    modifier onlyTokenHolder() {\n        require(token.balanceOf(msg.sender) > 0);\n        _;\n    }\n\n    event TapPollCreated();\n    event TapPollFinished(bool approved, uint256 _tap);\n    event RefundPollCreated();\n    event RefundPollFinished(bool approved);\n\n    /**\n     * @dev PollManagedFund constructor\n     * params - see Fund constructor\n     */\n    function PollManagedFund (\n        address _teamWallet,\n        address _referralTokenWallet,\n        address _foundationTokenWallet,\n        address _companyTokenWallet,\n        address _reserveTokenWallet,\n        address _bountyTokenWallet,\n        address _advisorTokenWallet,\n        address _refundManager,\n        address[] _owners\n        ) public\n    Fund(_teamWallet, _referralTokenWallet, _foundationTokenWallet, _companyTokenWallet, _reserveTokenWallet, _bountyTokenWallet, _advisorTokenWallet, _refundManager, _owners)\n    {\n    }\n\n    function canWithdraw() public returns(bool) {\n        if(\n            address(refundPoll) != address(0) &&\n            !refundPoll.finalized() &&\n            refundPoll.holdEndTime() > 0 &&\n            now >= refundPoll.holdEndTime() &&\n            refundPoll.isNowApproved()\n        ) {\n            return false;\n        }\n        return isWithdrawEnabled;\n    }\n\n    /**\n     * @dev ITokenEventListener implementation. Notify active poll contracts about token transfers\n     */\n    function onTokenTransfer(address _from, address /*_to*/, uint256 _value) external {\n        require(msg.sender == address(token));\n        if(address(tapPoll) != address(0) && !tapPoll.finalized()) {\n            tapPoll.onTokenTransfer(_from, _value);\n        }\n         if(address(refundPoll) != address(0) && !refundPoll.finalized()) {\n            refundPoll.onTokenTransfer(_from, _value);\n        }\n    }\n\n    /**\n     * @dev Update minVotedTokensPerc value after tap poll.\n     * Set new value == 50% from current voted tokens amount\n     */\n    function updateMinVotedTokens(uint256 _minVotedTokensPerc) internal {\n        uint256 newPerc = safeDiv(_minVotedTokensPerc, 2);\n        if(newPerc > MAX_VOTED_TOKEN_PERC) {\n            minVotedTokensPerc = MAX_VOTED_TOKEN_PERC;\n            return;\n        }\n        minVotedTokensPerc = newPerc;\n    }\n\n    // Tap poll\n    function createTapPoll(uint8 tapIncPerc) public onlyOwner {\n        require(state == FundState.TeamWithdraw);\n        require(tapPoll == address(0));\n        require(getDay(now) == 10);\n        require(tapIncPerc <= 50);\n        uint256 _tap = safeAdd(tap, safeDiv(safeMul(tap, tapIncPerc), 100));\n        uint256 startTime = now;\n        uint256 endTime = startTime + TAP_POLL_DURATION;\n        tapPoll = new TapPoll(_tap, token, this, startTime, endTime, minVotedTokensPerc);\n        TapPollCreated();\n    }\n\n    function onTapPollFinish(bool agree, uint256 _tap) external {\n        require(msg.sender == address(tapPoll) && tapPoll.finalized());\n        if(agree) {\n            tap = _tap;\n        }\n        updateMinVotedTokens(tapPoll.getVotedTokensPerc());\n        TapPollFinished(agree, _tap);\n        delete tapPoll;\n    }\n\n    // Refund poll\n    function checkRefundPollDate() internal view returns(bool) {\n        if(secondRefundPollDate > 0 && now >= secondRefundPollDate && now <= safeAdd(secondRefundPollDate, 1 days)) {\n            return true;\n        }\n\n        for(uint i; i < refundPollDates.length; i++) {\n            if(now >= refundPollDates[i] && now <= safeAdd(refundPollDates[i], 1 days)) {\n                return true;\n            }\n        }\n        return false;\n    }\n\n    function createRefundPoll() public onlyTokenHolder {\n        require(state == FundState.TeamWithdraw);\n        require(address(refundPoll) == address(0));\n        require(checkRefundPollDate());\n\n        if(secondRefundPollDate > 0 && now > safeAdd(secondRefundPollDate, 1 days)) {\n            secondRefundPollDate = 0;\n        }\n\n        uint256 startTime = now;\n        uint256 endTime = startTime + REFUND_POLL_DURATION;\n        bool isFirstRefund = secondRefundPollDate == 0;\n        uint256 holdEndTime = 0;\n\n        if(isFirstRefund) {\n            holdEndTime = toTimestamp(\n                getYear(startTime),\n                getMonth(startTime) + 1,\n                1\n            );\n        }\n        refundPoll = new RefundPoll(token, this, startTime, endTime, holdEndTime, isFirstRefund);\n        RefundPollCreated();\n    }\n\n    function onRefundPollFinish(bool agree) external {\n        require(msg.sender == address(refundPoll) && refundPoll.finalized());\n        if(agree) {\n            if(secondRefundPollDate > 0) {\n                enableRefund();\n            } else {\n                uint256 startTime = refundPoll.startTime();\n                secondRefundPollDate = toTimestamp(\n                    getYear(startTime),\n                    getMonth(startTime) + 2,\n                    1\n                );\n                isWithdrawEnabled = false;\n            }\n        } else {\n            secondRefundPollDate = 0;\n            isWithdrawEnabled = true;\n        }\n        RefundPollFinished(agree);\n\n        delete refundPoll;\n    }\n\n    function forceRefund() public {\n        require(msg.sender == refundManager);\n        enableRefund();\n    }\n}\n",
  "sourcePath": "/Users/peterpolman/Sites/daico/contracts/PollManagedFund.sol",
  "compiler": {
    "name": "solc",
    "version": "0.4.23+commit.124ca40d.Emscripten.clang"
  },
  "schemaVersion": "2.0.0",
  "updatedAt": "2018-04-28T15:10:38.443Z"
}