{
  "contractName": "RefundPoll",
  "abi": [
    {
      "constant": true,
      "inputs": [],
      "name": "endTime",
      "outputs": [
        {
          "name": "",
          "type": "uint256"
        }
      ],
      "payable": false,
      "stateMutability": "view",
      "type": "function"
    },
    {
      "constant": true,
      "inputs": [],
      "name": "MAX_TOKENS_WEIGHT_DENOM",
      "outputs": [
        {
          "name": "",
          "type": "uint256"
        }
      ],
      "payable": false,
      "stateMutability": "view",
      "type": "function"
    },
    {
      "constant": false,
      "inputs": [],
      "name": "revokeVote",
      "outputs": [],
      "payable": false,
      "stateMutability": "nonpayable",
      "type": "function"
    },
    {
      "constant": false,
      "inputs": [
        {
          "name": "agree",
          "type": "bool"
        }
      ],
      "name": "vote",
      "outputs": [],
      "payable": false,
      "stateMutability": "nonpayable",
      "type": "function"
    },
    {
      "constant": true,
      "inputs": [],
      "name": "noCounter",
      "outputs": [
        {
          "name": "",
          "type": "uint256"
        }
      ],
      "payable": false,
      "stateMutability": "view",
      "type": "function"
    },
    {
      "constant": true,
      "inputs": [],
      "name": "holdEndTime",
      "outputs": [
        {
          "name": "",
          "type": "uint256"
        }
      ],
      "payable": false,
      "stateMutability": "view",
      "type": "function"
    },
    {
      "constant": true,
      "inputs": [],
      "name": "startTime",
      "outputs": [
        {
          "name": "",
          "type": "uint256"
        }
      ],
      "payable": false,
      "stateMutability": "view",
      "type": "function"
    },
    {
      "constant": true,
      "inputs": [],
      "name": "isNowApproved",
      "outputs": [
        {
          "name": "",
          "type": "bool"
        }
      ],
      "payable": false,
      "stateMutability": "view",
      "type": "function"
    },
    {
      "constant": true,
      "inputs": [
        {
          "name": "",
          "type": "address"
        }
      ],
      "name": "votesByAddress",
      "outputs": [
        {
          "name": "time",
          "type": "uint256"
        },
        {
          "name": "weight",
          "type": "uint256"
        },
        {
          "name": "agree",
          "type": "bool"
        }
      ],
      "payable": false,
      "stateMutability": "view",
      "type": "function"
    },
    {
      "constant": true,
      "inputs": [],
      "name": "totalVoted",
      "outputs": [
        {
          "name": "",
          "type": "uint256"
        }
      ],
      "payable": false,
      "stateMutability": "view",
      "type": "function"
    },
    {
      "constant": true,
      "inputs": [],
      "name": "finalized",
      "outputs": [
        {
          "name": "",
          "type": "bool"
        }
      ],
      "payable": false,
      "stateMutability": "view",
      "type": "function"
    },
    {
      "constant": false,
      "inputs": [
        {
          "name": "tokenHolder",
          "type": "address"
        },
        {
          "name": "amount",
          "type": "uint256"
        }
      ],
      "name": "onTokenTransfer",
      "outputs": [],
      "payable": false,
      "stateMutability": "nonpayable",
      "type": "function"
    },
    {
      "constant": true,
      "inputs": [],
      "name": "yesCounter",
      "outputs": [
        {
          "name": "",
          "type": "uint256"
        }
      ],
      "payable": false,
      "stateMutability": "view",
      "type": "function"
    },
    {
      "constant": true,
      "inputs": [],
      "name": "fundAddress",
      "outputs": [
        {
          "name": "",
          "type": "address"
        }
      ],
      "payable": false,
      "stateMutability": "view",
      "type": "function"
    },
    {
      "constant": true,
      "inputs": [],
      "name": "token",
      "outputs": [
        {
          "name": "",
          "type": "address"
        }
      ],
      "payable": false,
      "stateMutability": "view",
      "type": "function"
    },
    {
      "inputs": [
        {
          "name": "_tokenAddress",
          "type": "address"
        },
        {
          "name": "_fundAddress",
          "type": "address"
        },
        {
          "name": "_startTime",
          "type": "uint256"
        },
        {
          "name": "_endTime",
          "type": "uint256"
        },
        {
          "name": "_holdEndTime",
          "type": "uint256"
        },
        {
          "name": "_checkTransfersAfterEnd",
          "type": "bool"
        }
      ],
      "payable": false,
      "stateMutability": "nonpayable",
      "type": "constructor"
    },
    {
      "constant": false,
      "inputs": [],
      "name": "tryToFinalize",
      "outputs": [
        {
          "name": "",
          "type": "bool"
        }
      ],
      "payable": false,
      "stateMutability": "nonpayable",
      "type": "function"
    }
  ],
  "bytecode": "0x60806040526000600555600060065560006007556000600a5534801561002457600080fd5b5060405160c0806113028339810180604052810190808051906020019092919080519060200190929190805190602001909291908051906020019092919080519060200190929190805190602001909291905050508585858584600073ffffffffffffffffffffffffffffffffffffffff168573ffffffffffffffffffffffffffffffffffffffff16141515156100ba57600080fd5b4283101580156100c957508282115b15156100d457600080fd5b846000806101000a81548173ffffffffffffffffffffffffffffffffffffffff021916908373ffffffffffffffffffffffffffffffffffffffff16021790555083600160006101000a81548173ffffffffffffffffffffffffffffffffffffffff021916908373ffffffffffffffffffffffffffffffffffffffff16021790555082600281905550816003819055506000600860006101000a81548160ff02191690831515021790555080600460006101000a81548160ff021916908315150217905550505050505081600a81905550505050505050611149806101b96000396000f3006080604052600436106100e6576000357c0100000000000000000000000000000000000000000000000000000000900463ffffffff1680633197cbb6146100eb578063361810261461011657806341fdade61461014557806343c14b22146101705780634b9f5c981461018757806364a90292146101b6578063728b482b146101e157806378e979251461020c57806380322cbd14610237578063a7491b4814610266578063b3a2273f146102cf578063b3f05b97146102fa578063c734f91714610329578063d74689e414610376578063e82bef29146103a1578063fc0c546a146103f8575b600080fd5b3480156100f757600080fd5b5061010061044f565b6040518082815260200191505060405180910390f35b34801561012257600080fd5b5061012b610455565b604051808215151515815260200191505060405180910390f35b34801561015157600080fd5b5061015a6104ca565b6040518082815260200191505060405180910390f35b34801561017c57600080fd5b506101856104d0565b005b34801561019357600080fd5b506101b460048036038101908080351515906020019092919050505061070c565b005b3480156101c257600080fd5b506101cb610a87565b6040518082815260200191505060405180910390f35b3480156101ed57600080fd5b506101f6610a8d565b6040518082815260200191505060405180910390f35b34801561021857600080fd5b50610221610a93565b6040518082815260200191505060405180910390f35b34801561024357600080fd5b5061024c610a99565b604051808215151515815260200191505060405180910390f35b34801561027257600080fd5b506102a7600480360381019080803573ffffffffffffffffffffffffffffffffffffffff169060200190929190505050610aa8565b6040518084815260200183815260200182151515158152602001935050505060405180910390f35b3480156102db57600080fd5b506102e4610adf565b6040518082815260200191505060405180910390f35b34801561030657600080fd5b5061030f610ae5565b604051808215151515815260200191505060405180910390f35b34801561033557600080fd5b50610374600480360381019080803573ffffffffffffffffffffffffffffffffffffffff16906020019092919080359060200190929190505050610af8565b005b34801561038257600080fd5b5061038b610edf565b6040518082815260200191505060405180910390f35b3480156103ad57600080fd5b506103b6610ee5565b604051808273ffffffffffffffffffffffffffffffffffffffff1673ffffffffffffffffffffffffffffffffffffffff16815260200191505060405180910390f35b34801561040457600080fd5b5061040d610f0b565b604051808273ffffffffffffffffffffffffffffffffffffffff1673ffffffffffffffffffffffffffffffffffffffff16815260200191505060405180910390f35b60035481565b600080600a5411801561046b5750600354600a54115b1561048657600a54421015151561048157600080fd5b610498565b600354421015151561049757600080fd5b5b6001600860006101000a81548160ff0219169083151502179055506104c36104be610f30565b611015565b6001905090565b6103e881565b60008060025442101580156104e757506003544211155b15156104f257600080fd5b6000600960003373ffffffffffffffffffffffffffffffffffffffff1673ffffffffffffffffffffffffffffffffffffffff1681526020019081526020016000206000015411151561054357600080fd5b600960003373ffffffffffffffffffffffffffffffffffffffff1673ffffffffffffffffffffffffffffffffffffffff168152602001908152602001600020600101549150600960003373ffffffffffffffffffffffffffffffffffffffff1673ffffffffffffffffffffffffffffffffffffffff16815260200190815260200160002060020160009054906101000a900460ff1690506000600960003373ffffffffffffffffffffffffffffffffffffffff1673ffffffffffffffffffffffffffffffffffffffff168152602001908152602001600020600001819055506000600960003373ffffffffffffffffffffffffffffffffffffffff1673ffffffffffffffffffffffffffffffffffffffff168152602001908152602001600020600101819055506000600960003373ffffffffffffffffffffffffffffffffffffffff1673ffffffffffffffffffffffffffffffffffffffff16815260200190815260200160002060020160006101000a81548160ff0219169083151502179055506106d260075460016110cb565b60078190555080156106f5576106ea600554836110cb565b600581905550610708565b610701600654836110cb565b6006819055505b5050565b600080600254421015801561072357506003544211155b151561072e57600080fd5b6000600960003373ffffffffffffffffffffffffffffffffffffffff1673ffffffffffffffffffffffffffffffffffffffff1681526020019081526020016000206000015414151561077f57600080fd5b6000809054906101000a900473ffffffffffffffffffffffffffffffffffffffff1673ffffffffffffffffffffffffffffffffffffffff166370a08231336040518263ffffffff167c0100000000000000000000000000000000000000000000000000000000028152600401808273ffffffffffffffffffffffffffffffffffffffff1673ffffffffffffffffffffffffffffffffffffffff168152602001915050602060405180830381600087803b15801561083b57600080fd5b505af115801561084f573d6000803e3d6000fd5b505050506040513d602081101561086557600080fd5b810190808051906020019092919050505091506109436000809054906101000a900473ffffffffffffffffffffffffffffffffffffffff1673ffffffffffffffffffffffffffffffffffffffff166318160ddd6040518163ffffffff167c0100000000000000000000000000000000000000000000000000000000028152600401602060405180830381600087803b15801561090057600080fd5b505af1158015610914573d6000803e3d6000fd5b505050506040513d602081101561092a57600080fd5b81019080805190602001909291905050506103e86110e4565b9050808211156109535780610955565b815b9150821561097457610969600554836110ff565b600581905550610987565b610980600654836110ff565b6006819055505b42600960003373ffffffffffffffffffffffffffffffffffffffff1673ffffffffffffffffffffffffffffffffffffffff1681526020019081526020016000206000018190555081600960003373ffffffffffffffffffffffffffffffffffffffff1673ffffffffffffffffffffffffffffffffffffffff1681526020019081526020016000206001018190555082600960003373ffffffffffffffffffffffffffffffffffffffff1673ffffffffffffffffffffffffffffffffffffffff16815260200190815260200160002060020160006101000a81548160ff021916908315150217905550610a7c60075460016110ff565b600781905550505050565b60065481565b600a5481565b60025481565b6000610aa3610f30565b905090565b60096020528060005260406000206000915090508060000154908060010154908060020160009054906101000a900460ff16905083565b60075481565b600860009054906101000a900460ff1681565b6000600160009054906101000a900473ffffffffffffffffffffffffffffffffffffffff1673ffffffffffffffffffffffffffffffffffffffff163373ffffffffffffffffffffffffffffffffffffffff16141515610b5657600080fd5b6000600960008573ffffffffffffffffffffffffffffffffffffffff1673ffffffffffffffffffffffffffffffffffffffff168152602001908152602001600020600001541415610ba657610eda565b600460009054906101000a900460ff161515610bef57600860009054906101000a900460ff1680610be45750600254421080610be3575060035442115b5b15610bee57610eda565b5b600960008473ffffffffffffffffffffffffffffffffffffffff1673ffffffffffffffffffffffffffffffffffffffff168152602001908152602001600020600101546000809054906101000a900473ffffffffffffffffffffffffffffffffffffffff1673ffffffffffffffffffffffffffffffffffffffff166370a08231856040518263ffffffff167c0100000000000000000000000000000000000000000000000000000000028152600401808273ffffffffffffffffffffffffffffffffffffffff1673ffffffffffffffffffffffffffffffffffffffff168152602001915050602060405180830381600087803b158015610cee57600080fd5b505af1158015610d02573d6000803e3d6000fd5b505050506040513d6020811015610d1857600080fd5b8101908080519060200190929190505050101515610d3557610eda565b819050600960008473ffffffffffffffffffffffffffffffffffffffff1673ffffffffffffffffffffffffffffffffffffffff16815260200190815260200160002060010154821115610dc857600960008473ffffffffffffffffffffffffffffffffffffffff1673ffffffffffffffffffffffffffffffffffffffff1681526020019081526020016000206001015490505b600960008473ffffffffffffffffffffffffffffffffffffffff1673ffffffffffffffffffffffffffffffffffffffff16815260200190815260200160002060020160009054906101000a900460ff1615610e3457610e29600554826110cb565b600581905550610e47565b610e40600654826110cb565b6006819055505b610e93600960008573ffffffffffffffffffffffffffffffffffffffff1673ffffffffffffffffffffffffffffffffffffffff16815260200190815260200160002060010154826110cb565b600960008573ffffffffffffffffffffffffffffffffffffffff1673ffffffffffffffffffffffffffffffffffffffff168152602001908152602001600020600101819055505b505050565b60055481565b600160009054906101000a900473ffffffffffffffffffffffffffffffffffffffff1681565b6000809054906101000a900473ffffffffffffffffffffffffffffffffffffffff1681565b6000600654600554118015611010575061100a6000809054906101000a900473ffffffffffffffffffffffffffffffffffffffff1673ffffffffffffffffffffffffffffffffffffffff166318160ddd6040518163ffffffff167c0100000000000000000000000000000000000000000000000000000000028152600401602060405180830381600087803b158015610fc857600080fd5b505af1158015610fdc573d6000803e3d6000fd5b505050506040513d6020811015610ff257600080fd5b810190808051906020019092919050505060036110e4565b60055410155b905090565b6000600160009054906101000a900473ffffffffffffffffffffffffffffffffffffffff1690508073ffffffffffffffffffffffffffffffffffffffff166389ea2cb7836040518263ffffffff167c01000000000000000000000000000000000000000000000000000000000281526004018082151515158152602001915050600060405180830381600087803b1580156110af57600080fd5b505af11580156110c3573d6000803e3d6000fd5b505050505050565b60008183101515156110d957fe5b818303905092915050565b60008082848115156110f257fe5b0490508091505092915050565b600080828401905083811015151561111357fe5b80915050929150505600a165627a7a7230582078146ee64e5c52f2aaf56cb3d7f6dd78beb5aeb2a8a920919859603ce4e784cb0029",
  "source": "pragma solidity ^0.4.21;\n\nimport './poll/BasePoll.sol';\nimport './fund/IPollManagedFund.sol';\n\n/**\n * @title RefundPoll\n * @dev Enables fund refund mode\n */\ncontract RefundPoll is BasePoll {\n    uint256 public holdEndTime = 0;\n\n    /**\n     * RefundPoll constructor\n     * @param _tokenAddress ERC20 compatible token contract address\n     * @param _fundAddress Fund contract address\n     * @param _startTime Poll start time\n     * @param _endTime Poll end time\n     */\n    function RefundPoll(\n        address _tokenAddress,\n        address _fundAddress,\n        uint256 _startTime,\n        uint256 _endTime,\n        uint256 _holdEndTime,\n        bool _checkTransfersAfterEnd\n    ) public\n        BasePoll(_tokenAddress, _fundAddress, _startTime, _endTime, _checkTransfersAfterEnd)\n    {\n        holdEndTime = _holdEndTime;\n    }\n\n    function tryToFinalize() public returns(bool) {\n        if(holdEndTime > 0 && holdEndTime > endTime) {\n            require(now >= holdEndTime);\n        } else {\n            require(now >= endTime);\n        }\n\n        finalized = true;\n        onPollFinish(isSubjectApproved());\n        return true;\n    }\n\n    function isSubjectApproved() internal view returns(bool) {\n        return yesCounter > noCounter && yesCounter >= safeDiv(token.totalSupply(), 3);\n    }\n\n    function onPollFinish(bool agree) internal {\n        IPollManagedFund fund = IPollManagedFund(fundAddress);\n        fund.onRefundPollFinish(agree);\n    }\n\n}\n",
  "sourcePath": "/Users/peterpolman/Sites/daico/contracts/RefundPoll.sol",
  "compiler": {
    "name": "solc",
    "version": "0.4.23+commit.124ca40d.Emscripten.clang"
  },
  "schemaVersion": "2.0.0",
  "updatedAt": "2018-04-28T15:10:38.446Z"
}