{
  "contractName": "ReservationFund",
  "abi": [
    {
      "constant": true,
      "inputs": [],
      "name": "owner",
      "outputs": [
        {
          "name": "",
          "type": "address"
        }
      ],
      "payable": false,
      "stateMutability": "view",
      "type": "function"
    },
    {
      "constant": true,
      "inputs": [],
      "name": "crowdsale",
      "outputs": [
        {
          "name": "",
          "type": "address"
        }
      ],
      "payable": false,
      "stateMutability": "view",
      "type": "function"
    },
    {
      "constant": true,
      "inputs": [],
      "name": "newOwner",
      "outputs": [
        {
          "name": "",
          "type": "address"
        }
      ],
      "payable": false,
      "stateMutability": "view",
      "type": "function"
    },
    {
      "constant": false,
      "inputs": [],
      "name": "confirmOwnership",
      "outputs": [],
      "payable": false,
      "stateMutability": "nonpayable",
      "type": "function"
    },
    {
      "constant": true,
      "inputs": [],
      "name": "crowdsaleFinished",
      "outputs": [
        {
          "name": "",
          "type": "bool"
        }
      ],
      "payable": false,
      "stateMutability": "view",
      "type": "function"
    },
    {
      "constant": false,
      "inputs": [
        {
          "name": "_newOwner",
          "type": "address"
        }
      ],
      "name": "transferOwnership",
      "outputs": [],
      "payable": false,
      "stateMutability": "nonpayable",
      "type": "function"
    },
    {
      "inputs": [
        {
          "name": "_owner",
          "type": "address"
        }
      ],
      "payable": false,
      "stateMutability": "nonpayable",
      "type": "constructor"
    },
    {
      "anonymous": false,
      "inputs": [
        {
          "indexed": false,
          "name": "contributor",
          "type": "address"
        },
        {
          "indexed": false,
          "name": "etherAmount",
          "type": "uint256"
        }
      ],
      "name": "RefundPayment",
      "type": "event"
    },
    {
      "anonymous": false,
      "inputs": [
        {
          "indexed": false,
          "name": "contributor",
          "type": "address"
        },
        {
          "indexed": false,
          "name": "etherAmount",
          "type": "uint256"
        }
      ],
      "name": "TransferToFund",
      "type": "event"
    },
    {
      "anonymous": false,
      "inputs": [],
      "name": "FinishCrowdsale",
      "type": "event"
    },
    {
      "anonymous": false,
      "inputs": [
        {
          "indexed": false,
          "name": "previousOwner",
          "type": "address"
        },
        {
          "indexed": false,
          "name": "newOwner",
          "type": "address"
        }
      ],
      "name": "OwnershipTransferred",
      "type": "event"
    },
    {
      "constant": false,
      "inputs": [
        {
          "name": "crowdsaleAddress",
          "type": "address"
        }
      ],
      "name": "setCrowdsaleAddress",
      "outputs": [],
      "payable": false,
      "stateMutability": "nonpayable",
      "type": "function"
    },
    {
      "constant": false,
      "inputs": [],
      "name": "onCrowdsaleEnd",
      "outputs": [],
      "payable": false,
      "stateMutability": "nonpayable",
      "type": "function"
    },
    {
      "constant": false,
      "inputs": [
        {
          "name": "contributor",
          "type": "address"
        }
      ],
      "name": "canCompleteContribution",
      "outputs": [
        {
          "name": "",
          "type": "bool"
        }
      ],
      "payable": false,
      "stateMutability": "nonpayable",
      "type": "function"
    },
    {
      "constant": false,
      "inputs": [
        {
          "name": "contributor",
          "type": "address"
        }
      ],
      "name": "contributionsOf",
      "outputs": [
        {
          "name": "",
          "type": "uint256"
        }
      ],
      "payable": false,
      "stateMutability": "nonpayable",
      "type": "function"
    },
    {
      "constant": false,
      "inputs": [
        {
          "name": "contributor",
          "type": "address"
        },
        {
          "name": "_tokensToIssue",
          "type": "uint256"
        },
        {
          "name": "_bonusTokensToIssue",
          "type": "uint256"
        }
      ],
      "name": "processContribution",
      "outputs": [],
      "payable": true,
      "stateMutability": "payable",
      "type": "function"
    },
    {
      "constant": false,
      "inputs": [
        {
          "name": "contributor",
          "type": "address"
        }
      ],
      "name": "completeContribution",
      "outputs": [],
      "payable": false,
      "stateMutability": "nonpayable",
      "type": "function"
    },
    {
      "constant": false,
      "inputs": [
        {
          "name": "contributor",
          "type": "address"
        }
      ],
      "name": "refundPayment",
      "outputs": [],
      "payable": false,
      "stateMutability": "nonpayable",
      "type": "function"
    }
  ],
  "bytecode": "0x60806040526000600160146101000a81548160ff02191690831515021790555034801561002b57600080fd5b506040516020806114fe8339810180604052810190808051906020019092919050505080600073ffffffffffffffffffffffffffffffffffffffff168173ffffffffffffffffffffffffffffffffffffffff1614610089578061008b565b335b6000806101000a81548173ffffffffffffffffffffffffffffffffffffffff021916908373ffffffffffffffffffffffffffffffffffffffff1602179055505050611423806100db6000396000f3006080604052600436106100c5576000357c0100000000000000000000000000000000000000000000000000000000900463ffffffff1680631f35bc40146100ca57806331aa91fc1461010d5780633af0dbc1146101505780636252c127146101a75780636d49817b146101be5780638da5cb5b146102015780639c1e03a014610258578063d4ee1d90146102af578063d5d1e77014610306578063ece84fd51461031d578063ef8b0e151461034c578063f2fde38b14610396578063f50a2644146103d9575b600080fd5b3480156100d657600080fd5b5061010b600480360381019080803573ffffffffffffffffffffffffffffffffffffffff169060200190929190505050610434565b005b34801561011957600080fd5b5061014e600480360381019080803573ffffffffffffffffffffffffffffffffffffffff169060200190929190505050610530565b005b34801561015c57600080fd5b50610191600480360381019080803573ffffffffffffffffffffffffffffffffffffffff16906020019092919050505061098e565b6040518082815260200191505060405180910390f35b3480156101b357600080fd5b506101bc6109d7565b005b3480156101ca57600080fd5b506101ff600480360381019080803573ffffffffffffffffffffffffffffffffffffffff169060200190929190505050610a7b565b005b34801561020d57600080fd5b50610216610cf7565b604051808273ffffffffffffffffffffffffffffffffffffffff1673ffffffffffffffffffffffffffffffffffffffff16815260200191505060405180910390f35b34801561026457600080fd5b5061026d610d1c565b604051808273ffffffffffffffffffffffffffffffffffffffff1673ffffffffffffffffffffffffffffffffffffffff16815260200191505060405180910390f35b3480156102bb57600080fd5b506102c4610d42565b604051808273ffffffffffffffffffffffffffffffffffffffff1673ffffffffffffffffffffffffffffffffffffffff16815260200191505060405180910390f35b34801561031257600080fd5b5061031b610d68565b005b34801561032957600080fd5b50610332610f44565b604051808215151515815260200191505060405180910390f35b610394600480360381019080803573ffffffffffffffffffffffffffffffffffffffff1690602001909291908035906020019092919080359060200190929190505050610f57565b005b3480156103a257600080fd5b506103d7600480360381019080803573ffffffffffffffffffffffffffffffffffffffff16906020019092919050505061115c565b005b3480156103e557600080fd5b5061041a600480360381019080803573ffffffffffffffffffffffffffffffffffffffff169060200190929190505050611257565b604051808215151515815260200191505060405180910390f35b6000809054906101000a900473ffffffffffffffffffffffffffffffffffffffff1673ffffffffffffffffffffffffffffffffffffffff163373ffffffffffffffffffffffffffffffffffffffff1614151561048f57600080fd5b600073ffffffffffffffffffffffffffffffffffffffff16600560009054906101000a900473ffffffffffffffffffffffffffffffffffffffff1673ffffffffffffffffffffffffffffffffffffffff161415156104ec57600080fd5b80600560006101000a81548173ffffffffffffffffffffffffffffffffffffffff021916908373ffffffffffffffffffffffffffffffffffffffff16021790555050565b6000806000600160149054906101000a900460ff1615151561055157600080fd5b600560009054906101000a900473ffffffffffffffffffffffffffffffffffffffff1673ffffffffffffffffffffffffffffffffffffffff1663772fdcb1856040518263ffffffff167c0100000000000000000000000000000000000000000000000000000000028152600401808273ffffffffffffffffffffffffffffffffffffffff1673ffffffffffffffffffffffffffffffffffffffff168152602001915050602060405180830381600087803b15801561060e57600080fd5b505af1158015610622573d6000803e3d6000fd5b505050506040513d602081101561063857600080fd5b8101908080519060200190929190505050151561065457600080fd5b6000600260008673ffffffffffffffffffffffffffffffffffffffff1673ffffffffffffffffffffffffffffffffffffffff168152602001908152602001600020541115156106a257600080fd5b600260008573ffffffffffffffffffffffffffffffffffffffff1673ffffffffffffffffffffffffffffffffffffffff168152602001908152602001600020549250600360008573ffffffffffffffffffffffffffffffffffffffff1673ffffffffffffffffffffffffffffffffffffffff168152602001908152602001600020549150600460008573ffffffffffffffffffffffffffffffffffffffff1673ffffffffffffffffffffffffffffffffffffffff1681526020019081526020016000205490506000600260008673ffffffffffffffffffffffffffffffffffffffff1673ffffffffffffffffffffffffffffffffffffffff168152602001908152602001600020819055506000600360008673ffffffffffffffffffffffffffffffffffffffff1673ffffffffffffffffffffffffffffffffffffffff168152602001908152602001600020819055506000600460008673ffffffffffffffffffffffffffffffffffffffff1673ffffffffffffffffffffffffffffffffffffffff16815260200190815260200160002081905550600560009054906101000a900473ffffffffffffffffffffffffffffffffffffffff1673ffffffffffffffffffffffffffffffffffffffff166337033be6848685856040518563ffffffff167c0100000000000000000000000000000000000000000000000000000000028152600401808473ffffffffffffffffffffffffffffffffffffffff1673ffffffffffffffffffffffffffffffffffffffff16815260200183815260200182815260200193505050506000604051808303818588803b15801561090457600080fd5b505af1158015610918573d6000803e3d6000fd5b50505050507fc35af678f78e2cecf997e4fd22154d0df7277cbc2b97e90f584892120cad62fc8484604051808373ffffffffffffffffffffffffffffffffffffffff1673ffffffffffffffffffffffffffffffffffffffff1681526020018281526020019250505060405180910390a150505050565b6000600260008373ffffffffffffffffffffffffffffffffffffffff1673ffffffffffffffffffffffffffffffffffffffff168152602001908152602001600020549050919050565b600560009054906101000a900473ffffffffffffffffffffffffffffffffffffffff1673ffffffffffffffffffffffffffffffffffffffff163373ffffffffffffffffffffffffffffffffffffffff16141515610a3357600080fd5b60018060146101000a81548160ff0219169083151502179055507f1baac95ad8dbefc0f5b6a0cc8d2f7dd30997cefb6102508b0e47b896fd9e1c5660405160405180910390a1565b6000600160149054906101000a900460ff161515610a9857600080fd5b6000600260008473ffffffffffffffffffffffffffffffffffffffff1673ffffffffffffffffffffffffffffffffffffffff168152602001908152602001600020541180610b2557506000600360008473ffffffffffffffffffffffffffffffffffffffff1673ffffffffffffffffffffffffffffffffffffffff16815260200190815260200160002054115b1515610b3057600080fd5b600260008373ffffffffffffffffffffffffffffffffffffffff1673ffffffffffffffffffffffffffffffffffffffff1681526020019081526020016000205490506000600260008473ffffffffffffffffffffffffffffffffffffffff1673ffffffffffffffffffffffffffffffffffffffff168152602001908152602001600020819055506000600360008473ffffffffffffffffffffffffffffffffffffffff1673ffffffffffffffffffffffffffffffffffffffff168152602001908152602001600020819055506000600460008473ffffffffffffffffffffffffffffffffffffffff1673ffffffffffffffffffffffffffffffffffffffff168152602001908152602001600020819055508173ffffffffffffffffffffffffffffffffffffffff166108fc829081150290604051600060405180830381858888f19350505050158015610c87573d6000803e3d6000fd5b507f218afa8974d8cc13d583f6cb05a134b904e76a6abaf8b8932486b8c8be3514188282604051808373ffffffffffffffffffffffffffffffffffffffff1673ffffffffffffffffffffffffffffffffffffffff1681526020018281526020019250505060405180910390a15050565b6000809054906101000a900473ffffffffffffffffffffffffffffffffffffffff1681565b600560009054906101000a900473ffffffffffffffffffffffffffffffffffffffff1681565b600160009054906101000a900473ffffffffffffffffffffffffffffffffffffffff1681565b600160009054906101000a900473ffffffffffffffffffffffffffffffffffffffff1673ffffffffffffffffffffffffffffffffffffffff163373ffffffffffffffffffffffffffffffffffffffff16141515610dc457600080fd5b7f8be0079c531659141344cd1fd0a4f28419497f9722a3daafe3b4186f6b6457e06000809054906101000a900473ffffffffffffffffffffffffffffffffffffffff16600160009054906101000a900473ffffffffffffffffffffffffffffffffffffffff16604051808373ffffffffffffffffffffffffffffffffffffffff1673ffffffffffffffffffffffffffffffffffffffff1681526020018273ffffffffffffffffffffffffffffffffffffffff1673ffffffffffffffffffffffffffffffffffffffff1681526020019250505060405180910390a1600160009054906101000a900473ffffffffffffffffffffffffffffffffffffffff166000806101000a81548173ffffffffffffffffffffffffffffffffffffffff021916908373ffffffffffffffffffffffffffffffffffffffff1602179055506000600160006101000a81548173ffffffffffffffffffffffffffffffffffffffff021916908373ffffffffffffffffffffffffffffffffffffffff160217905550565b600160149054906101000a900460ff1681565b600560009054906101000a900473ffffffffffffffffffffffffffffffffffffffff1673ffffffffffffffffffffffffffffffffffffffff163373ffffffffffffffffffffffffffffffffffffffff16141515610fb357600080fd5b610ffc600260008573ffffffffffffffffffffffffffffffffffffffff1673ffffffffffffffffffffffffffffffffffffffff16815260200190815260200160002054346113d9565b600260008573ffffffffffffffffffffffffffffffffffffffff1673ffffffffffffffffffffffffffffffffffffffff16815260200190815260200160002081905550611088600360008573ffffffffffffffffffffffffffffffffffffffff1673ffffffffffffffffffffffffffffffffffffffff16815260200190815260200160002054836113d9565b600360008573ffffffffffffffffffffffffffffffffffffffff1673ffffffffffffffffffffffffffffffffffffffff16815260200190815260200160002081905550611114600460008573ffffffffffffffffffffffffffffffffffffffff1673ffffffffffffffffffffffffffffffffffffffff16815260200190815260200160002054826113d9565b600460008573ffffffffffffffffffffffffffffffffffffffff1673ffffffffffffffffffffffffffffffffffffffff16815260200190815260200160002081905550505050565b6000809054906101000a900473ffffffffffffffffffffffffffffffffffffffff1673ffffffffffffffffffffffffffffffffffffffff163373ffffffffffffffffffffffffffffffffffffffff161415156111b757600080fd5b6000809054906101000a900473ffffffffffffffffffffffffffffffffffffffff1673ffffffffffffffffffffffffffffffffffffffff168173ffffffffffffffffffffffffffffffffffffffff161415151561121357600080fd5b80600160006101000a81548173ffffffffffffffffffffffffffffffffffffffff021916908373ffffffffffffffffffffffffffffffffffffffff16021790555050565b6000600160149054906101000a900460ff161561127757600090506113d4565b600560009054906101000a900473ffffffffffffffffffffffffffffffffffffffff1673ffffffffffffffffffffffffffffffffffffffff1663772fdcb1836040518263ffffffff167c0100000000000000000000000000000000000000000000000000000000028152600401808273ffffffffffffffffffffffffffffffffffffffff1673ffffffffffffffffffffffffffffffffffffffff168152602001915050602060405180830381600087803b15801561133457600080fd5b505af1158015611348573d6000803e3d6000fd5b505050506040513d602081101561135e57600080fd5b8101908080519060200190929190505050151561137e57600090506113d4565b6000600260008473ffffffffffffffffffffffffffffffffffffffff1673ffffffffffffffffffffffffffffffffffffffff1681526020019081526020016000205414156113cf57600090506113d4565b600190505b919050565b60008082840190508381101515156113ed57fe5b80915050929150505600a165627a7a72305820a7b4330393866575e0eabf864d002a4df8db7aa82cab7af159b92384d9096b580029",
  "source": "pragma solidity ^0.4.21;\n\nimport './fund/ICrowdsaleReservationFund.sol';\nimport './ISimpleCrowdsale.sol';\nimport './ownership/Ownable.sol';\nimport './math/SafeMath.sol';\n\n\ncontract ReservationFund is ICrowdsaleReservationFund, Ownable, SafeMath {\n    bool public crowdsaleFinished = false;\n\n    mapping(address => uint256) contributions;\n    mapping(address => uint256) tokensToIssue;\n    mapping(address => uint256) bonusTokensToIssue;\n\n    ISimpleCrowdsale public crowdsale;\n\n    event RefundPayment(address contributor, uint256 etherAmount);\n    event TransferToFund(address contributor, uint256 etherAmount);\n    event FinishCrowdsale();\n\n    function ReservationFund(address _owner) public Ownable(_owner) {\n    }\n\n    modifier onlyCrowdsale() {\n        require(msg.sender == address(crowdsale));\n        _;\n    }\n\n    function setCrowdsaleAddress(address crowdsaleAddress) public onlyOwner {\n        require(crowdsale == address(0));\n        crowdsale = ISimpleCrowdsale(crowdsaleAddress);\n    }\n\n    function onCrowdsaleEnd() external onlyCrowdsale {\n        crowdsaleFinished = true;\n        FinishCrowdsale();\n    }\n\n\n    function canCompleteContribution(address contributor) external returns(bool) {\n        if(crowdsaleFinished) {\n            return false;\n        }\n        if(!crowdsale.isContributorInLists(contributor)) {\n            return false;\n        }\n        if(contributions[contributor] == 0) {\n            return false;\n        }\n        return true;\n    }\n\n    /**\n     * @dev Function to check contributions by address\n     */\n    function contributionsOf(address contributor) external returns(uint256) {\n        return contributions[contributor];\n    }\n\n    /**\n     * @dev Process crowdsale contribution without whitelist\n     */\n    function processContribution(\n        address contributor,\n        uint256 _tokensToIssue,\n        uint256 _bonusTokensToIssue\n    ) external payable onlyCrowdsale {\n        contributions[contributor] = safeAdd(contributions[contributor], msg.value);\n        tokensToIssue[contributor] = safeAdd(tokensToIssue[contributor], _tokensToIssue);\n        bonusTokensToIssue[contributor] = safeAdd(bonusTokensToIssue[contributor], _bonusTokensToIssue);\n    }\n\n    /**\n     * @dev Complete contribution after if user is whitelisted\n     */\n    function completeContribution(address contributor) external {\n        require(!crowdsaleFinished);\n        require(crowdsale.isContributorInLists(contributor));\n        require(contributions[contributor] > 0);\n\n        uint256 etherAmount = contributions[contributor];\n        uint256 tokenAmount = tokensToIssue[contributor];\n        uint256 tokenBonusAmount = bonusTokensToIssue[contributor];\n\n        contributions[contributor] = 0;\n        tokensToIssue[contributor] = 0;\n        bonusTokensToIssue[contributor] = 0;\n\n        crowdsale.processReservationFundContribution.value(etherAmount)(contributor, tokenAmount, tokenBonusAmount);\n        TransferToFund(contributor, etherAmount);\n    }\n\n    /**\n     * @dev Refund payments if crowdsale is finalized\n     */\n    function refundPayment(address contributor) public {\n        require(crowdsaleFinished);\n        require(contributions[contributor] > 0 || tokensToIssue[contributor] > 0);\n        uint256 amountToRefund = contributions[contributor];\n\n        contributions[contributor] = 0;\n        tokensToIssue[contributor] = 0;\n        bonusTokensToIssue[contributor] = 0;\n\n        contributor.transfer(amountToRefund);\n        RefundPayment(contributor, amountToRefund);\n    }\n}\n",
  "sourcePath": "/Users/peterpolman/Sites/daico/contracts/ReservationFund.sol",
  "compiler": {
    "name": "solc",
    "version": "0.4.23+commit.124ca40d.Emscripten.clang"
  },
  "schemaVersion": "2.0.0",
  "updatedAt": "2018-04-28T15:10:38.446Z"
}