{
  "contractName": "TapPoll",
  "abi": [
    {
      "constant": true,
      "inputs": [],
      "name": "endTime",
      "outputs": [
        {
          "name": "",
          "type": "uint256"
        }
      ],
      "payable": false,
      "stateMutability": "view",
      "type": "function"
    },
    {
      "constant": false,
      "inputs": [],
      "name": "tryToFinalize",
      "outputs": [
        {
          "name": "",
          "type": "bool"
        }
      ],
      "payable": false,
      "stateMutability": "nonpayable",
      "type": "function"
    },
    {
      "constant": true,
      "inputs": [],
      "name": "MAX_TOKENS_WEIGHT_DENOM",
      "outputs": [
        {
          "name": "",
          "type": "uint256"
        }
      ],
      "payable": false,
      "stateMutability": "view",
      "type": "function"
    },
    {
      "constant": false,
      "inputs": [],
      "name": "revokeVote",
      "outputs": [],
      "payable": false,
      "stateMutability": "nonpayable",
      "type": "function"
    },
    {
      "constant": false,
      "inputs": [
        {
          "name": "agree",
          "type": "bool"
        }
      ],
      "name": "vote",
      "outputs": [],
      "payable": false,
      "stateMutability": "nonpayable",
      "type": "function"
    },
    {
      "constant": true,
      "inputs": [],
      "name": "noCounter",
      "outputs": [
        {
          "name": "",
          "type": "uint256"
        }
      ],
      "payable": false,
      "stateMutability": "view",
      "type": "function"
    },
    {
      "constant": true,
      "inputs": [],
      "name": "minTokensPerc",
      "outputs": [
        {
          "name": "",
          "type": "uint256"
        }
      ],
      "payable": false,
      "stateMutability": "view",
      "type": "function"
    },
    {
      "constant": true,
      "inputs": [],
      "name": "startTime",
      "outputs": [
        {
          "name": "",
          "type": "uint256"
        }
      ],
      "payable": false,
      "stateMutability": "view",
      "type": "function"
    },
    {
      "constant": true,
      "inputs": [],
      "name": "isNowApproved",
      "outputs": [
        {
          "name": "",
          "type": "bool"
        }
      ],
      "payable": false,
      "stateMutability": "view",
      "type": "function"
    },
    {
      "constant": true,
      "inputs": [
        {
          "name": "",
          "type": "address"
        }
      ],
      "name": "votesByAddress",
      "outputs": [
        {
          "name": "time",
          "type": "uint256"
        },
        {
          "name": "weight",
          "type": "uint256"
        },
        {
          "name": "agree",
          "type": "bool"
        }
      ],
      "payable": false,
      "stateMutability": "view",
      "type": "function"
    },
    {
      "constant": true,
      "inputs": [],
      "name": "totalVoted",
      "outputs": [
        {
          "name": "",
          "type": "uint256"
        }
      ],
      "payable": false,
      "stateMutability": "view",
      "type": "function"
    },
    {
      "constant": true,
      "inputs": [],
      "name": "finalized",
      "outputs": [
        {
          "name": "",
          "type": "bool"
        }
      ],
      "payable": false,
      "stateMutability": "view",
      "type": "function"
    },
    {
      "constant": false,
      "inputs": [
        {
          "name": "tokenHolder",
          "type": "address"
        },
        {
          "name": "amount",
          "type": "uint256"
        }
      ],
      "name": "onTokenTransfer",
      "outputs": [],
      "payable": false,
      "stateMutability": "nonpayable",
      "type": "function"
    },
    {
      "constant": true,
      "inputs": [],
      "name": "yesCounter",
      "outputs": [
        {
          "name": "",
          "type": "uint256"
        }
      ],
      "payable": false,
      "stateMutability": "view",
      "type": "function"
    },
    {
      "constant": true,
      "inputs": [],
      "name": "fundAddress",
      "outputs": [
        {
          "name": "",
          "type": "address"
        }
      ],
      "payable": false,
      "stateMutability": "view",
      "type": "function"
    },
    {
      "constant": true,
      "inputs": [],
      "name": "token",
      "outputs": [
        {
          "name": "",
          "type": "address"
        }
      ],
      "payable": false,
      "stateMutability": "view",
      "type": "function"
    },
    {
      "constant": true,
      "inputs": [],
      "name": "tap",
      "outputs": [
        {
          "name": "",
          "type": "uint256"
        }
      ],
      "payable": false,
      "stateMutability": "view",
      "type": "function"
    },
    {
      "inputs": [
        {
          "name": "_tap",
          "type": "uint256"
        },
        {
          "name": "_tokenAddress",
          "type": "address"
        },
        {
          "name": "_fundAddress",
          "type": "address"
        },
        {
          "name": "_startTime",
          "type": "uint256"
        },
        {
          "name": "_endTime",
          "type": "uint256"
        },
        {
          "name": "_minTokensPerc",
          "type": "uint256"
        }
      ],
      "payable": false,
      "stateMutability": "nonpayable",
      "type": "constructor"
    },
    {
      "constant": true,
      "inputs": [],
      "name": "getVotedTokensPerc",
      "outputs": [
        {
          "name": "",
          "type": "uint256"
        }
      ],
      "payable": false,
      "stateMutability": "view",
      "type": "function"
    }
  ],
  "bytecode": "0x60806040526000600555600060065560006007556000600b5534801561002457600080fd5b5060405160c0806113cc8339810180604052810190808051906020019092919080519060200190929190805190602001909291908051906020019092919080519060200190929190805190602001909291905050508484848460008073ffffffffffffffffffffffffffffffffffffffff168573ffffffffffffffffffffffffffffffffffffffff16141515156100ba57600080fd5b4283101580156100c957508282115b15156100d457600080fd5b846000806101000a81548173ffffffffffffffffffffffffffffffffffffffff021916908373ffffffffffffffffffffffffffffffffffffffff16021790555083600160006101000a81548173ffffffffffffffffffffffffffffffffffffffff021916908373ffffffffffffffffffffffffffffffffffffffff16021790555082600281905550816003819055506000600860006101000a81548160ff02191690831515021790555080600460006101000a81548160ff021916908315150217905550505050505085600a8190555080600b8190555050505050505061120c806101c06000396000f3006080604052600436106100fc576000357c0100000000000000000000000000000000000000000000000000000000900463ffffffff1680632c24909c146101015780633197cbb61461012c578063361810261461015757806341fdade61461018657806343c14b22146101b15780634b9f5c98146101c857806364a90292146101f75780636f6a97621461022257806378e979251461024d57806380322cbd14610278578063a7491b48146102a7578063b3a2273f14610310578063b3f05b971461033b578063c734f9171461036a578063d74689e4146103b7578063e82bef29146103e2578063fc0c546a14610439578063fd22103114610490575b600080fd5b34801561010d57600080fd5b506101166104bb565b6040518082815260200191505060405180910390f35b34801561013857600080fd5b506101416105a2565b6040518082815260200191505060405180910390f35b34801561016357600080fd5b5061016c6105a8565b604051808215151515815260200191505060405180910390f35b34801561019257600080fd5b5061019b61060c565b6040518082815260200191505060405180910390f35b3480156101bd57600080fd5b506101c6610612565b005b3480156101d457600080fd5b506101f560048036038101908080351515906020019092919050505061084e565b005b34801561020357600080fd5b5061020c610bc9565b6040518082815260200191505060405180910390f35b34801561022e57600080fd5b50610237610bcf565b6040518082815260200191505060405180910390f35b34801561025957600080fd5b50610262610bd5565b6040518082815260200191505060405180910390f35b34801561028457600080fd5b5061028d610bdb565b604051808215151515815260200191505060405180910390f35b3480156102b357600080fd5b506102e8600480360381019080803573ffffffffffffffffffffffffffffffffffffffff169060200190929190505050610bea565b6040518084815260200183815260200182151515158152602001935050505060405180910390f35b34801561031c57600080fd5b50610325610c21565b6040518082815260200191505060405180910390f35b34801561034757600080fd5b50610350610c27565b604051808215151515815260200191505060405180910390f35b34801561037657600080fd5b506103b5600480360381019080803573ffffffffffffffffffffffffffffffffffffffff16906020019092919080359060200190929190505050610c3a565b005b3480156103c357600080fd5b506103cc611021565b6040518082815260200191505060405180910390f35b3480156103ee57600080fd5b506103f7611027565b604051808273ffffffffffffffffffffffffffffffffffffffff1673ffffffffffffffffffffffffffffffffffffffff16815260200191505060405180910390f35b34801561044557600080fd5b5061044e61104d565b604051808273ffffffffffffffffffffffffffffffffffffffff1673ffffffffffffffffffffffffffffffffffffffff16815260200191505060405180910390f35b34801561049c57600080fd5b506104a5611072565b6040518082815260200191505060405180910390f35b600061059d6104d86104d1600554600654611078565b6064611096565b6000809054906101000a900473ffffffffffffffffffffffffffffffffffffffff1673ffffffffffffffffffffffffffffffffffffffff166318160ddd6040518163ffffffff167c0100000000000000000000000000000000000000000000000000000000028152600401602060405180830381600087803b15801561055d57600080fd5b505af1158015610571573d6000803e3d6000fd5b505050506040513d602081101561058757600080fd5b81019080805190602001909291905050506110c9565b905090565b60035481565b6000600860009054906101000a900460ff161515156105c657600080fd5b6003544210156105d95760009050610609565b6001600860006101000a81548160ff0219169083151502179055506106046105ff6110e4565b611107565b600190505b90565b6103e881565b600080600254421015801561062957506003544211155b151561063457600080fd5b6000600960003373ffffffffffffffffffffffffffffffffffffffff1673ffffffffffffffffffffffffffffffffffffffff1681526020019081526020016000206000015411151561068557600080fd5b600960003373ffffffffffffffffffffffffffffffffffffffff1673ffffffffffffffffffffffffffffffffffffffff168152602001908152602001600020600101549150600960003373ffffffffffffffffffffffffffffffffffffffff1673ffffffffffffffffffffffffffffffffffffffff16815260200190815260200160002060020160009054906101000a900460ff1690506000600960003373ffffffffffffffffffffffffffffffffffffffff1673ffffffffffffffffffffffffffffffffffffffff168152602001908152602001600020600001819055506000600960003373ffffffffffffffffffffffffffffffffffffffff1673ffffffffffffffffffffffffffffffffffffffff168152602001908152602001600020600101819055506000600960003373ffffffffffffffffffffffffffffffffffffffff1673ffffffffffffffffffffffffffffffffffffffff16815260200190815260200160002060020160006101000a81548160ff02191690831515021790555061081460075460016111c7565b60078190555080156108375761082c600554836111c7565b60058190555061084a565b610843600654836111c7565b6006819055505b5050565b600080600254421015801561086557506003544211155b151561087057600080fd5b6000600960003373ffffffffffffffffffffffffffffffffffffffff1673ffffffffffffffffffffffffffffffffffffffff168152602001908152602001600020600001541415156108c157600080fd5b6000809054906101000a900473ffffffffffffffffffffffffffffffffffffffff1673ffffffffffffffffffffffffffffffffffffffff166370a08231336040518263ffffffff167c0100000000000000000000000000000000000000000000000000000000028152600401808273ffffffffffffffffffffffffffffffffffffffff1673ffffffffffffffffffffffffffffffffffffffff168152602001915050602060405180830381600087803b15801561097d57600080fd5b505af1158015610991573d6000803e3d6000fd5b505050506040513d60208110156109a757600080fd5b81019080805190602001909291905050509150610a856000809054906101000a900473ffffffffffffffffffffffffffffffffffffffff1673ffffffffffffffffffffffffffffffffffffffff166318160ddd6040518163ffffffff167c0100000000000000000000000000000000000000000000000000000000028152600401602060405180830381600087803b158015610a4257600080fd5b505af1158015610a56573d6000803e3d6000fd5b505050506040513d6020811015610a6c57600080fd5b81019080805190602001909291905050506103e86110c9565b905080821115610a955780610a97565b815b91508215610ab657610aab60055483611078565b600581905550610ac9565b610ac260065483611078565b6006819055505b42600960003373ffffffffffffffffffffffffffffffffffffffff1673ffffffffffffffffffffffffffffffffffffffff1681526020019081526020016000206000018190555081600960003373ffffffffffffffffffffffffffffffffffffffff1673ffffffffffffffffffffffffffffffffffffffff1681526020019081526020016000206001018190555082600960003373ffffffffffffffffffffffffffffffffffffffff1673ffffffffffffffffffffffffffffffffffffffff16815260200190815260200160002060020160006101000a81548160ff021916908315150217905550610bbe6007546001611078565b600781905550505050565b60065481565b600b5481565b60025481565b6000610be56110e4565b905090565b60096020528060005260406000206000915090508060000154908060010154908060020160009054906101000a900460ff16905083565b60075481565b600860009054906101000a900460ff1681565b6000600160009054906101000a900473ffffffffffffffffffffffffffffffffffffffff1673ffffffffffffffffffffffffffffffffffffffff163373ffffffffffffffffffffffffffffffffffffffff16141515610c9857600080fd5b6000600960008573ffffffffffffffffffffffffffffffffffffffff1673ffffffffffffffffffffffffffffffffffffffff168152602001908152602001600020600001541415610ce85761101c565b600460009054906101000a900460ff161515610d3157600860009054906101000a900460ff1680610d265750600254421080610d25575060035442115b5b15610d305761101c565b5b600960008473ffffffffffffffffffffffffffffffffffffffff1673ffffffffffffffffffffffffffffffffffffffff168152602001908152602001600020600101546000809054906101000a900473ffffffffffffffffffffffffffffffffffffffff1673ffffffffffffffffffffffffffffffffffffffff166370a08231856040518263ffffffff167c0100000000000000000000000000000000000000000000000000000000028152600401808273ffffffffffffffffffffffffffffffffffffffff1673ffffffffffffffffffffffffffffffffffffffff168152602001915050602060405180830381600087803b158015610e3057600080fd5b505af1158015610e44573d6000803e3d6000fd5b505050506040513d6020811015610e5a57600080fd5b8101908080519060200190929190505050101515610e775761101c565b819050600960008473ffffffffffffffffffffffffffffffffffffffff1673ffffffffffffffffffffffffffffffffffffffff16815260200190815260200160002060010154821115610f0a57600960008473ffffffffffffffffffffffffffffffffffffffff1673ffffffffffffffffffffffffffffffffffffffff1681526020019081526020016000206001015490505b600960008473ffffffffffffffffffffffffffffffffffffffff1673ffffffffffffffffffffffffffffffffffffffff16815260200190815260200160002060020160009054906101000a900460ff1615610f7657610f6b600554826111c7565b600581905550610f89565b610f82600654826111c7565b6006819055505b610fd5600960008573ffffffffffffffffffffffffffffffffffffffff1673ffffffffffffffffffffffffffffffffffffffff16815260200190815260200160002060010154826111c7565b600960008573ffffffffffffffffffffffffffffffffffffffff1673ffffffffffffffffffffffffffffffffffffffff168152602001908152602001600020600101819055505b505050565b60055481565b600160009054906101000a900473ffffffffffffffffffffffffffffffffffffffff1681565b6000809054906101000a900473ffffffffffffffffffffffffffffffffffffffff1681565b600a5481565b600080828401905083811015151561108c57fe5b8091505092915050565b600080828402905060008414806110b757508284828115156110b457fe5b04145b15156110bf57fe5b8091505092915050565b60008082848115156110d757fe5b0490508091505092915050565b60006006546005541180156111025750600b546110ff6104bb565b10155b905090565b6000600160009054906101000a900473ffffffffffffffffffffffffffffffffffffffff1690508073ffffffffffffffffffffffffffffffffffffffff166329c90b6383600a546040518363ffffffff167c0100000000000000000000000000000000000000000000000000000000028152600401808315151515815260200182815260200192505050600060405180830381600087803b1580156111ab57600080fd5b505af11580156111bf573d6000803e3d6000fd5b505050505050565b60008183101515156111d557fe5b8183039050929150505600a165627a7a723058205f21708ad9095139390f6f4fbbca312af86d3cc9200c6510369aed759a3154510029",
  "source": "pragma solidity ^0.4.21;\n\nimport './poll/BasePoll.sol';\nimport './fund/IPollManagedFund.sol';\n\n\n/**\n * @title TapPoll\n * @dev Poll to increase tap amount\n */\ncontract TapPoll is BasePoll {\n    uint256 public tap;\n    uint256 public minTokensPerc = 0;\n\n    /**\n     * TapPoll constructor\n     * @param _tap New tap value\n     * @param _tokenAddress ERC20 compatible token contract address\n     * @param _fundAddress Fund contract address\n     * @param _startTime Poll start time\n     * @param _endTime Poll end time\n     * @param _minTokensPerc - Min percent of tokens from totalSupply where poll is considered to be fulfilled\n     */\n    function TapPoll(\n        uint256 _tap,\n        address _tokenAddress,\n        address _fundAddress,\n        uint256 _startTime,\n        uint256 _endTime,\n        uint256 _minTokensPerc\n    ) public\n        BasePoll(_tokenAddress, _fundAddress, _startTime, _endTime, false)\n    {\n        tap = _tap;\n        minTokensPerc = _minTokensPerc;\n    }\n\n    function onPollFinish(bool agree) internal {\n        IPollManagedFund fund = IPollManagedFund(fundAddress);\n        fund.onTapPollFinish(agree, tap);\n    }\n\n    function getVotedTokensPerc() public view returns(uint256) {\n        return safeDiv(safeMul(safeAdd(yesCounter, noCounter), 100), token.totalSupply());\n    }\n\n    function isSubjectApproved() internal view returns(bool) {\n        return yesCounter > noCounter && getVotedTokensPerc() >= minTokensPerc;\n    }\n}\n",
  "sourcePath": "/Users/peterpolman/Sites/daico/contracts/TapPoll.sol",
  "compiler": {
    "name": "solc",
    "version": "0.4.23+commit.124ca40d.Emscripten.clang"
  },
  "schemaVersion": "2.0.0",
  "updatedAt": "2018-04-28T15:10:38.448Z"
}