{
  "contractName": "TheAbyssDAICO",
  "abi": [
    {
      "constant": true,
      "inputs": [],
      "name": "BNB_HARD_CAP",
      "outputs": [
        {
          "name": "",
          "type": "uint256"
        }
      ],
      "payable": false,
      "stateMutability": "view",
      "type": "function"
    },
    {
      "constant": true,
      "inputs": [],
      "name": "bnbTokenWallet",
      "outputs": [
        {
          "name": "",
          "type": "address"
        }
      ],
      "payable": false,
      "stateMutability": "view",
      "type": "function"
    },
    {
      "constant": true,
      "inputs": [],
      "name": "lockedTokens",
      "outputs": [
        {
          "name": "",
          "type": "address"
        }
      ],
      "payable": false,
      "stateMutability": "view",
      "type": "function"
    },
    {
      "constant": true,
      "inputs": [
        {
          "name": "",
          "type": "address"
        }
      ],
      "name": "privilegedList",
      "outputs": [
        {
          "name": "",
          "type": "bool"
        }
      ],
      "payable": false,
      "stateMutability": "view",
      "type": "function"
    },
    {
      "constant": true,
      "inputs": [],
      "name": "bnbWithdrawEnabled",
      "outputs": [
        {
          "name": "",
          "type": "bool"
        }
      ],
      "payable": false,
      "stateMutability": "view",
      "type": "function"
    },
    {
      "constant": true,
      "inputs": [],
      "name": "ETHER_MIN_CONTRIB",
      "outputs": [
        {
          "name": "",
          "type": "uint256"
        }
      ],
      "payable": false,
      "stateMutability": "view",
      "type": "function"
    },
    {
      "constant": true,
      "inputs": [],
      "name": "ETHER_MAX_CONTRIB_PRIVATE",
      "outputs": [
        {
          "name": "",
          "type": "uint256"
        }
      ],
      "payable": false,
      "stateMutability": "view",
      "type": "function"
    },
    {
      "constant": true,
      "inputs": [],
      "name": "SALE_END_TIME",
      "outputs": [
        {
          "name": "",
          "type": "uint256"
        }
      ],
      "payable": false,
      "stateMutability": "view",
      "type": "function"
    },
    {
      "constant": true,
      "inputs": [],
      "name": "bnbToken",
      "outputs": [
        {
          "name": "",
          "type": "address"
        }
      ],
      "payable": false,
      "stateMutability": "view",
      "type": "function"
    },
    {
      "constant": true,
      "inputs": [],
      "name": "rawTokenSupply",
      "outputs": [
        {
          "name": "",
          "type": "uint256"
        }
      ],
      "payable": false,
      "stateMutability": "view",
      "type": "function"
    },
    {
      "constant": true,
      "inputs": [],
      "name": "BNB_TOKEN_PRICE_DENOM",
      "outputs": [
        {
          "name": "",
          "type": "uint256"
        }
      ],
      "payable": false,
      "stateMutability": "view",
      "type": "function"
    },
    {
      "constant": true,
      "inputs": [
        {
          "name": "",
          "type": "address"
        }
      ],
      "name": "whiteList",
      "outputs": [
        {
          "name": "",
          "type": "bool"
        }
      ],
      "payable": false,
      "stateMutability": "view",
      "type": "function"
    },
    {
      "constant": false,
      "inputs": [],
      "name": "unpause",
      "outputs": [],
      "payable": false,
      "stateMutability": "nonpayable",
      "type": "function"
    },
    {
      "constant": true,
      "inputs": [
        {
          "name": "",
          "type": "address"
        }
      ],
      "name": "bnbContributions",
      "outputs": [
        {
          "name": "",
          "type": "uint256"
        }
      ],
      "payable": false,
      "stateMutability": "view",
      "type": "function"
    },
    {
      "constant": true,
      "inputs": [],
      "name": "SALE_START_TIME",
      "outputs": [
        {
          "name": "",
          "type": "uint256"
        }
      ],
      "payable": false,
      "stateMutability": "view",
      "type": "function"
    },
    {
      "constant": true,
      "inputs": [],
      "name": "ADDITIONAL_BONUS_DENOM",
      "outputs": [
        {
          "name": "",
          "type": "uint256"
        }
      ],
      "payable": false,
      "stateMutability": "view",
      "type": "function"
    },
    {
      "constant": true,
      "inputs": [],
      "name": "paused",
      "outputs": [
        {
          "name": "",
          "type": "bool"
        }
      ],
      "payable": false,
      "stateMutability": "view",
      "type": "function"
    },
    {
      "constant": true,
      "inputs": [],
      "name": "BNB_TOKEN_PRICE_NUM",
      "outputs": [
        {
          "name": "",
          "type": "uint256"
        }
      ],
      "payable": false,
      "stateMutability": "view",
      "type": "function"
    },
    {
      "constant": true,
      "inputs": [],
      "name": "BONUS_WINDOW_4_END_TIME",
      "outputs": [
        {
          "name": "",
          "type": "uint256"
        }
      ],
      "payable": false,
      "stateMutability": "view",
      "type": "function"
    },
    {
      "constant": false,
      "inputs": [],
      "name": "pause",
      "outputs": [],
      "payable": false,
      "stateMutability": "nonpayable",
      "type": "function"
    },
    {
      "constant": true,
      "inputs": [],
      "name": "MAX_CONTRIB_CHECK_END_TIME",
      "outputs": [
        {
          "name": "",
          "type": "uint256"
        }
      ],
      "payable": false,
      "stateMutability": "view",
      "type": "function"
    },
    {
      "constant": true,
      "inputs": [],
      "name": "owner",
      "outputs": [
        {
          "name": "",
          "type": "address"
        }
      ],
      "payable": false,
      "stateMutability": "view",
      "type": "function"
    },
    {
      "constant": true,
      "inputs": [],
      "name": "foundationTokenWallet",
      "outputs": [
        {
          "name": "",
          "type": "address"
        }
      ],
      "payable": false,
      "stateMutability": "view",
      "type": "function"
    },
    {
      "constant": true,
      "inputs": [],
      "name": "softCap",
      "outputs": [
        {
          "name": "",
          "type": "uint256"
        }
      ],
      "payable": false,
      "stateMutability": "view",
      "type": "function"
    },
    {
      "constant": true,
      "inputs": [],
      "name": "reserveTokenWallet",
      "outputs": [
        {
          "name": "",
          "type": "address"
        }
      ],
      "payable": false,
      "stateMutability": "view",
      "type": "function"
    },
    {
      "constant": true,
      "inputs": [],
      "name": "totalBNBContributed",
      "outputs": [
        {
          "name": "",
          "type": "uint256"
        }
      ],
      "payable": false,
      "stateMutability": "view",
      "type": "function"
    },
    {
      "constant": true,
      "inputs": [],
      "name": "ETHER_MIN_CONTRIB_USA",
      "outputs": [
        {
          "name": "",
          "type": "uint256"
        }
      ],
      "payable": false,
      "stateMutability": "view",
      "type": "function"
    },
    {
      "constant": true,
      "inputs": [
        {
          "name": "",
          "type": "address"
        }
      ],
      "name": "additionalBonusOwnerState",
      "outputs": [
        {
          "name": "",
          "type": "uint8"
        }
      ],
      "payable": false,
      "stateMutability": "view",
      "type": "function"
    },
    {
      "constant": true,
      "inputs": [],
      "name": "ETHER_MIN_CONTRIB_PRIVATE",
      "outputs": [
        {
          "name": "",
          "type": "uint256"
        }
      ],
      "payable": false,
      "stateMutability": "view",
      "type": "function"
    },
    {
      "constant": true,
      "inputs": [],
      "name": "ADDITIONAL_BONUS_NUM",
      "outputs": [
        {
          "name": "",
          "type": "uint256"
        }
      ],
      "payable": false,
      "stateMutability": "view",
      "type": "function"
    },
    {
      "constant": true,
      "inputs": [],
      "name": "totalEtherContributed",
      "outputs": [
        {
          "name": "",
          "type": "uint256"
        }
      ],
      "payable": false,
      "stateMutability": "view",
      "type": "function"
    },
    {
      "constant": true,
      "inputs": [],
      "name": "fund",
      "outputs": [
        {
          "name": "",
          "type": "address"
        }
      ],
      "payable": false,
      "stateMutability": "view",
      "type": "function"
    },
    {
      "constant": true,
      "inputs": [],
      "name": "reservationFund",
      "outputs": [
        {
          "name": "",
          "type": "address"
        }
      ],
      "payable": false,
      "stateMutability": "view",
      "type": "function"
    },
    {
      "constant": true,
      "inputs": [],
      "name": "referralTokenWallet",
      "outputs": [
        {
          "name": "",
          "type": "address"
        }
      ],
      "payable": false,
      "stateMutability": "view",
      "type": "function"
    },
    {
      "constant": true,
      "inputs": [],
      "name": "tokenPriceNum",
      "outputs": [
        {
          "name": "",
          "type": "uint256"
        }
      ],
      "payable": false,
      "stateMutability": "view",
      "type": "function"
    },
    {
      "constant": true,
      "inputs": [],
      "name": "bountyTokenWallet",
      "outputs": [
        {
          "name": "",
          "type": "address"
        }
      ],
      "payable": false,
      "stateMutability": "view",
      "type": "function"
    },
    {
      "constant": true,
      "inputs": [],
      "name": "newOwner",
      "outputs": [
        {
          "name": "",
          "type": "address"
        }
      ],
      "payable": false,
      "stateMutability": "view",
      "type": "function"
    },
    {
      "constant": false,
      "inputs": [],
      "name": "confirmOwnership",
      "outputs": [],
      "payable": false,
      "stateMutability": "nonpayable",
      "type": "function"
    },
    {
      "constant": true,
      "inputs": [],
      "name": "BONUS_WINDOW_2_END_TIME",
      "outputs": [
        {
          "name": "",
          "type": "uint256"
        }
      ],
      "payable": false,
      "stateMutability": "view",
      "type": "function"
    },
    {
      "constant": true,
      "inputs": [],
      "name": "BONUS_WINDOW_1_END_TIME",
      "outputs": [
        {
          "name": "",
          "type": "uint256"
        }
      ],
      "payable": false,
      "stateMutability": "view",
      "type": "function"
    },
    {
      "constant": true,
      "inputs": [],
      "name": "BNB_MIN_CONTRIB",
      "outputs": [
        {
          "name": "",
          "type": "uint256"
        }
      ],
      "payable": false,
      "stateMutability": "view",
      "type": "function"
    },
    {
      "constant": true,
      "inputs": [],
      "name": "advisorsTokenWallet",
      "outputs": [
        {
          "name": "",
          "type": "address"
        }
      ],
      "payable": false,
      "stateMutability": "view",
      "type": "function"
    },
    {
      "constant": true,
      "inputs": [],
      "name": "ETHER_MAX_CONTRIB_USA",
      "outputs": [
        {
          "name": "",
          "type": "uint256"
        }
      ],
      "payable": false,
      "stateMutability": "view",
      "type": "function"
    },
    {
      "constant": true,
      "inputs": [
        {
          "name": "",
          "type": "address"
        }
      ],
      "name": "userTotalContributed",
      "outputs": [
        {
          "name": "",
          "type": "uint256"
        }
      ],
      "payable": false,
      "stateMutability": "view",
      "type": "function"
    },
    {
      "constant": true,
      "inputs": [],
      "name": "bnbRefundEnabled",
      "outputs": [
        {
          "name": "",
          "type": "bool"
        }
      ],
      "payable": false,
      "stateMutability": "view",
      "type": "function"
    },
    {
      "constant": true,
      "inputs": [],
      "name": "companyTokenWallet",
      "outputs": [
        {
          "name": "",
          "type": "address"
        }
      ],
      "payable": false,
      "stateMutability": "view",
      "type": "function"
    },
    {
      "constant": false,
      "inputs": [
        {
          "name": "_newOwner",
          "type": "address"
        }
      ],
      "name": "transferOwnership",
      "outputs": [],
      "payable": false,
      "stateMutability": "nonpayable",
      "type": "function"
    },
    {
      "constant": true,
      "inputs": [],
      "name": "ETHER_MAX_CONTRIB",
      "outputs": [
        {
          "name": "",
          "type": "uint256"
        }
      ],
      "payable": false,
      "stateMutability": "view",
      "type": "function"
    },
    {
      "constant": true,
      "inputs": [],
      "name": "tokenPriceDenom",
      "outputs": [
        {
          "name": "",
          "type": "uint256"
        }
      ],
      "payable": false,
      "stateMutability": "view",
      "type": "function"
    },
    {
      "constant": true,
      "inputs": [],
      "name": "BONUS_WINDOW_3_END_TIME",
      "outputs": [
        {
          "name": "",
          "type": "uint256"
        }
      ],
      "payable": false,
      "stateMutability": "view",
      "type": "function"
    },
    {
      "constant": true,
      "inputs": [],
      "name": "hardCap",
      "outputs": [
        {
          "name": "",
          "type": "uint256"
        }
      ],
      "payable": false,
      "stateMutability": "view",
      "type": "function"
    },
    {
      "constant": true,
      "inputs": [],
      "name": "token",
      "outputs": [
        {
          "name": "",
          "type": "address"
        }
      ],
      "payable": false,
      "stateMutability": "view",
      "type": "function"
    },
    {
      "inputs": [
        {
          "name": "bnbTokenAddress",
          "type": "address"
        },
        {
          "name": "tokenAddress",
          "type": "address"
        },
        {
          "name": "fundAddress",
          "type": "address"
        },
        {
          "name": "reservationFundAddress",
          "type": "address"
        },
        {
          "name": "_bnbTokenWallet",
          "type": "address"
        },
        {
          "name": "_referralTokenWallet",
          "type": "address"
        },
        {
          "name": "_foundationTokenWallet",
          "type": "address"
        },
        {
          "name": "_advisorsTokenWallet",
          "type": "address"
        },
        {
          "name": "_companyTokenWallet",
          "type": "address"
        },
        {
          "name": "_reserveTokenWallet",
          "type": "address"
        },
        {
          "name": "_bountyTokenWallet",
          "type": "address"
        },
        {
          "name": "_owner",
          "type": "address"
        }
      ],
      "payable": false,
      "stateMutability": "nonpayable",
      "type": "constructor"
    },
    {
      "payable": true,
      "stateMutability": "payable",
      "type": "fallback"
    },
    {
      "anonymous": false,
      "inputs": [
        {
          "indexed": false,
          "name": "contributor",
          "type": "address"
        },
        {
          "indexed": false,
          "name": "amountWei",
          "type": "uint256"
        },
        {
          "indexed": false,
          "name": "tokenAmount",
          "type": "uint256"
        },
        {
          "indexed": false,
          "name": "tokenBonus",
          "type": "uint256"
        },
        {
          "indexed": false,
          "name": "additionalBonusApplied",
          "type": "bool"
        },
        {
          "indexed": false,
          "name": "timestamp",
          "type": "uint256"
        }
      ],
      "name": "LogContribution",
      "type": "event"
    },
    {
      "anonymous": false,
      "inputs": [
        {
          "indexed": false,
          "name": "contributor",
          "type": "address"
        },
        {
          "indexed": false,
          "name": "amountWei",
          "type": "uint256"
        },
        {
          "indexed": false,
          "name": "tokensToIssue",
          "type": "uint256"
        },
        {
          "indexed": false,
          "name": "bonusTokensToIssue",
          "type": "uint256"
        },
        {
          "indexed": false,
          "name": "timestamp",
          "type": "uint256"
        }
      ],
      "name": "ReservationFundContribution",
      "type": "event"
    },
    {
      "anonymous": false,
      "inputs": [
        {
          "indexed": false,
          "name": "contributor",
          "type": "address"
        },
        {
          "indexed": false,
          "name": "amountBNB",
          "type": "uint256"
        },
        {
          "indexed": false,
          "name": "tokenAmount",
          "type": "uint256"
        },
        {
          "indexed": false,
          "name": "tokenBonus",
          "type": "uint256"
        },
        {
          "indexed": false,
          "name": "additionalBonusApplied",
          "type": "bool"
        },
        {
          "indexed": false,
          "name": "timestamp",
          "type": "uint256"
        }
      ],
      "name": "LogBNBContribution",
      "type": "event"
    },
    {
      "anonymous": false,
      "inputs": [],
      "name": "Pause",
      "type": "event"
    },
    {
      "anonymous": false,
      "inputs": [],
      "name": "Unpause",
      "type": "event"
    },
    {
      "anonymous": false,
      "inputs": [
        {
          "indexed": false,
          "name": "previousOwner",
          "type": "address"
        },
        {
          "indexed": false,
          "name": "newOwner",
          "type": "address"
        }
      ],
      "name": "OwnershipTransferred",
      "type": "event"
    },
    {
      "constant": true,
      "inputs": [
        {
          "name": "contributor",
          "type": "address"
        }
      ],
      "name": "isContributorInLists",
      "outputs": [
        {
          "name": "",
          "type": "bool"
        }
      ],
      "payable": false,
      "stateMutability": "view",
      "type": "function"
    },
    {
      "constant": false,
      "inputs": [
        {
          "name": "_tokenPriceNum",
          "type": "uint256"
        },
        {
          "name": "_tokenPriceDenom",
          "type": "uint256"
        }
      ],
      "name": "setTokenPrice",
      "outputs": [],
      "payable": false,
      "stateMutability": "nonpayable",
      "type": "function"
    },
    {
      "constant": false,
      "inputs": [
        {
          "name": "_hardCap",
          "type": "uint256"
        }
      ],
      "name": "setHardCap",
      "outputs": [],
      "payable": false,
      "stateMutability": "nonpayable",
      "type": "function"
    },
    {
      "constant": false,
      "inputs": [
        {
          "name": "_softCap",
          "type": "uint256"
        }
      ],
      "name": "setSoftCap",
      "outputs": [],
      "payable": false,
      "stateMutability": "nonpayable",
      "type": "function"
    },
    {
      "constant": true,
      "inputs": [],
      "name": "getSoftCap",
      "outputs": [
        {
          "name": "",
          "type": "uint256"
        }
      ],
      "payable": false,
      "stateMutability": "view",
      "type": "function"
    },
    {
      "constant": false,
      "inputs": [
        {
          "name": "_wallet",
          "type": "address"
        },
        {
          "name": "isInWhiteList",
          "type": "bool"
        },
        {
          "name": "isInPrivilegedList",
          "type": "bool"
        },
        {
          "name": "isInLimitedList",
          "type": "bool"
        },
        {
          "name": "hasAdditionalBonus",
          "type": "bool"
        }
      ],
      "name": "addToLists",
      "outputs": [],
      "payable": false,
      "stateMutability": "nonpayable",
      "type": "function"
    },
    {
      "constant": false,
      "inputs": [
        {
          "name": "_wallet",
          "type": "address"
        }
      ],
      "name": "addToWhiteList",
      "outputs": [],
      "payable": false,
      "stateMutability": "nonpayable",
      "type": "function"
    },
    {
      "constant": false,
      "inputs": [
        {
          "name": "_wallet",
          "type": "address"
        }
      ],
      "name": "addAdditionalBonusMember",
      "outputs": [],
      "payable": false,
      "stateMutability": "nonpayable",
      "type": "function"
    },
    {
      "constant": false,
      "inputs": [
        {
          "name": "_wallet",
          "type": "address"
        }
      ],
      "name": "addToPrivilegedList",
      "outputs": [],
      "payable": false,
      "stateMutability": "nonpayable",
      "type": "function"
    },
    {
      "constant": false,
      "inputs": [
        {
          "name": "lockedTokensAddress",
          "type": "address"
        }
      ],
      "name": "setLockedTokens",
      "outputs": [],
      "payable": false,
      "stateMutability": "nonpayable",
      "type": "function"
    },
    {
      "constant": false,
      "inputs": [],
      "name": "processBNBContribution",
      "outputs": [],
      "payable": false,
      "stateMutability": "nonpayable",
      "type": "function"
    },
    {
      "constant": false,
      "inputs": [
        {
          "name": "contributor",
          "type": "address"
        },
        {
          "name": "tokenAmount",
          "type": "uint256"
        },
        {
          "name": "tokenBonusAmount",
          "type": "uint256"
        }
      ],
      "name": "processReservationFundContribution",
      "outputs": [],
      "payable": true,
      "stateMutability": "payable",
      "type": "function"
    },
    {
      "constant": false,
      "inputs": [],
      "name": "forceCrowdsaleRefund",
      "outputs": [],
      "payable": false,
      "stateMutability": "nonpayable",
      "type": "function"
    },
    {
      "constant": false,
      "inputs": [],
      "name": "finalizeCrowdsale",
      "outputs": [],
      "payable": false,
      "stateMutability": "nonpayable",
      "type": "function"
    },
    {
      "constant": false,
      "inputs": [],
      "name": "withdrawBNB",
      "outputs": [],
      "payable": false,
      "stateMutability": "nonpayable",
      "type": "function"
    },
    {
      "constant": false,
      "inputs": [],
      "name": "refundBNBContributor",
      "outputs": [],
      "payable": false,
      "stateMutability": "nonpayable",
      "type": "function"
    }
  ],
  "bytecode": "0x60806040526000600160146101000a81548160ff0219169083151502179055506000600255600060035560006013556000601455693f870857a3e0e3800000601655683635c9adc5dea0000060175560006019556000601a60006101000a81548160ff0219169083151502179055506907547b9ffddeb27c0000601b5569027179ea6d0e59080000601c556000601d60006101000a81548160ff021916908315150217905550348015620000b257600080fd5b506040516101808062005ba483398101806040528101908080519060200190929190805190602001909291908051906020019092919080519060200190929190805190602001909291908051906020019092919080519060200190929190805190602001909291908051906020019092919080519060200190929190805190602001909291908051906020019092919050505080600073ffffffffffffffffffffffffffffffffffffffff168173ffffffffffffffffffffffffffffffffffffffff161462000182578062000184565b335b6000806101000a81548173ffffffffffffffffffffffffffffffffffffffff021916908373ffffffffffffffffffffffffffffffffffffffff16021790555050600073ffffffffffffffffffffffffffffffffffffffff168b73ffffffffffffffffffffffffffffffffffffffff16141515156200020157600080fd5b8b601560006101000a81548173ffffffffffffffffffffffffffffffffffffffff021916908373ffffffffffffffffffffffffffffffffffffffff1602179055508a600460006101000a81548173ffffffffffffffffffffffffffffffffffffffff021916908373ffffffffffffffffffffffffffffffffffffffff16021790555089600560006101000a81548173ffffffffffffffffffffffffffffffffffffffff021916908373ffffffffffffffffffffffffffffffffffffffff16021790555088600660006101000a81548173ffffffffffffffffffffffffffffffffffffffff021916908373ffffffffffffffffffffffffffffffffffffffff16021790555087600c60006101000a81548173ffffffffffffffffffffffffffffffffffffffff021916908373ffffffffffffffffffffffffffffffffffffffff16021790555086600d60006101000a81548173ffffffffffffffffffffffffffffffffffffffff021916908373ffffffffffffffffffffffffffffffffffffffff16021790555085600e60006101000a81548173ffffffffffffffffffffffffffffffffffffffff021916908373ffffffffffffffffffffffffffffffffffffffff16021790555084600f60006101000a81548173ffffffffffffffffffffffffffffffffffffffff021916908373ffffffffffffffffffffffffffffffffffffffff16021790555083601060006101000a81548173ffffffffffffffffffffffffffffffffffffffff021916908373ffffffffffffffffffffffffffffffffffffffff16021790555082601160006101000a81548173ffffffffffffffffffffffffffffffffffffffff021916908373ffffffffffffffffffffffffffffffffffffffff16021790555081601260006101000a81548173ffffffffffffffffffffffffffffffffffffffff021916908373ffffffffffffffffffffffffffffffffffffffff1602179055505050505050505050505050506156bc80620004e86000396000f300608060405260043610610321576000357c0100000000000000000000000000000000000000000000000000000000900463ffffffff16806212d90a146104fe5780630bf318a3146105295780630ce4e104146105405780630eb34740146105975780631167b012146105ee578063117387351461064957806316cb91001461067857806316cff09c146106a35780631d111d13146106ce57806320a0045a146106e55780632b17b6a9146107105780632cae9add146107675780632d7ed15c1461079257806337033be6146107bd578063372c12b1146108075780633f4ba83a146108625780633fc9b4231461087957806344dbb571146108d057806347ee0394146108fb5780634d52a5121461093e5780634f0b837414610969578063511d2299146109ac57806352860ea2146109c357806352f18042146109ee5780635707812e14610a315780635c975abb14610aa457806362024dce14610ad35780636217903f14610aea578063668c1a4614610b1557806372e2cac814610b2c578063772fdcb114610b575780638456cb5914610bb2578063857ba7fb14610bc95780638da5cb5b14610bf4578063903171ae14610c4b578063906a26e014610ca257806392a0fd6414610ccd57806393632ddd14610d24578063a3223d5014610d4f578063a336ffa514610d7a578063aa1f609f14610ddf578063acb9656c14610e0a578063b0d3a39614610e4d578063b591fc6914610e78578063b60d428814610ea3578063b78c151714610efa578063cc96019f14610f51578063cea024d914610fa8578063d0e6cfec14610fd3578063d18d944b1461102a578063d4ee1d9014611057578063d5cf5c72146110ae578063d5d1e770146110db578063d81f9830146110f2578063df0da20e1461111d578063dfb3557b14611148578063e6ff085314611173578063e8faf89c146111ca578063eb6389a5146111f5578063eb685c471461124c578063f1762e5d14611283578063f190a793146112b2578063f2fde38b14611309578063f3b5678f1461134c578063f79ebd7f14611377578063fb23bbb1146113a2578063fb86a404146113cd578063fc0c546a146113f8575b600160149054906101000a900460ff1615151561033d57600080fd5b600860003373ffffffffffffffffffffffffffffffffffffffff1673ffffffffffffffffffffffffffffffffffffffff16815260200190815260200160002060009054906101000a900460ff16806103de5750600960003373ffffffffffffffffffffffffffffffffffffffff1673ffffffffffffffffffffffffffffffffffffffff16815260200190815260200160002060009054906101000a900460ff165b806104dd5750600460009054906101000a900473ffffffffffffffffffffffffffffffffffffffff1673ffffffffffffffffffffffffffffffffffffffff16632e217405336040518263ffffffff167c0100000000000000000000000000000000000000000000000000000000028152600401808273ffffffffffffffffffffffffffffffffffffffff1673ffffffffffffffffffffffffffffffffffffffff168152602001915050602060405180830381600087803b1580156104a157600080fd5b505af11580156104b5573d6000803e3d6000fd5b505050506040513d60208110156104cb57600080fd5b81019080805190602001909291905050505b156104f1576104ec333461144f565b6104fc565b6104fb3334611616565b5b005b34801561050a57600080fd5b5061051361195f565b6040518082815260200191505060405180910390f35b34801561053557600080fd5b5061053e611965565b005b34801561054c57600080fd5b50610555612955565b604051808273ffffffffffffffffffffffffffffffffffffffff1673ffffffffffffffffffffffffffffffffffffffff16815260200191505060405180910390f35b3480156105a357600080fd5b506105ac61297b565b604051808273ffffffffffffffffffffffffffffffffffffffff1673ffffffffffffffffffffffffffffffffffffffff16815260200191505060405180910390f35b3480156105fa57600080fd5b5061062f600480360381019080803573ffffffffffffffffffffffffffffffffffffffff1690602001909291905050506129a1565b604051808215151515815260200191505060405180910390f35b34801561065557600080fd5b5061065e6129c1565b604051808215151515815260200191505060405180910390f35b34801561068457600080fd5b5061068d6129d4565b6040518082815260200191505060405180910390f35b3480156106af57600080fd5b506106b86129e0565b6040518082815260200191505060405180910390f35b3480156106da57600080fd5b506106e36129ed565b005b3480156106f157600080fd5b506106fa612d80565b6040518082815260200191505060405180910390f35b34801561071c57600080fd5b50610725612d88565b604051808273ffffffffffffffffffffffffffffffffffffffff1673ffffffffffffffffffffffffffffffffffffffff16815260200191505060405180910390f35b34801561077357600080fd5b5061077c612dae565b6040518082815260200191505060405180910390f35b34801561079e57600080fd5b506107a7612db4565b6040518082815260200191505060405180910390f35b610805600480360381019080803573ffffffffffffffffffffffffffffffffffffffff1690602001909291908035906020019092919080359060200190929190505050612db9565b005b34801561081357600080fd5b50610848600480360381019080803573ffffffffffffffffffffffffffffffffffffffff169060200190929190505050612e5c565b604051808215151515815260200191505060405180910390f35b34801561086e57600080fd5b50610877612e7c565b005b34801561088557600080fd5b506108ba600480360381019080803573ffffffffffffffffffffffffffffffffffffffff169060200190929190505050612f3b565b6040518082815260200191505060405180910390f35b3480156108dc57600080fd5b506108e5612f53565b6040518082815260200191505060405180910390f35b34801561090757600080fd5b5061093c600480360381019080803573ffffffffffffffffffffffffffffffffffffffff169060200190929190505050612f5b565b005b34801561094a57600080fd5b50610953613011565b6040518082815260200191505060405180910390f35b34801561097557600080fd5b506109aa600480360381019080803573ffffffffffffffffffffffffffffffffffffffff16906020019092919050505061301b565b005b3480156109b857600080fd5b506109c16130d1565b005b3480156109cf57600080fd5b506109d861370e565b6040518082815260200191505060405180910390f35b3480156109fa57600080fd5b50610a2f600480360381019080803573ffffffffffffffffffffffffffffffffffffffff169060200190929190505050613713565b005b348015610a3d57600080fd5b50610aa2600480360381019080803573ffffffffffffffffffffffffffffffffffffffff1690602001909291908035151590602001909291908035151590602001909291908035151590602001909291908035151590602001909291905050506137d2565b005b348015610ab057600080fd5b50610ab9613c09565b604051808215151515815260200191505060405180910390f35b348015610adf57600080fd5b50610ae8613c1c565b005b348015610af657600080fd5b50610aff613e9a565b6040518082815260200191505060405180910390f35b348015610b2157600080fd5b50610b2a613e9f565b005b348015610b3857600080fd5b50610b41614269565b6040518082815260200191505060405180910390f35b348015610b6357600080fd5b50610b98600480360381019080803573ffffffffffffffffffffffffffffffffffffffff169060200190929190505050614276565b604051808215151515815260200191505060405180910390f35b348015610bbe57600080fd5b50610bc761441f565b005b348015610bd557600080fd5b50610bde6144de565b6040518082815260200191505060405180910390f35b348015610c0057600080fd5b50610c096144eb565b604051808273ffffffffffffffffffffffffffffffffffffffff1673ffffffffffffffffffffffffffffffffffffffff16815260200191505060405180910390f35b348015610c5757600080fd5b50610c60614510565b604051808273ffffffffffffffffffffffffffffffffffffffff1673ffffffffffffffffffffffffffffffffffffffff16815260200191505060405180910390f35b348015610cae57600080fd5b50610cb7614536565b6040518082815260200191505060405180910390f35b348015610cd957600080fd5b50610ce261453c565b604051808273ffffffffffffffffffffffffffffffffffffffff1673ffffffffffffffffffffffffffffffffffffffff16815260200191505060405180910390f35b348015610d3057600080fd5b50610d39614562565b6040518082815260200191505060405180910390f35b348015610d5b57600080fd5b50610d64614568565b6040518082815260200191505060405180910390f35b348015610d8657600080fd5b50610dbb600480360381019080803573ffffffffffffffffffffffffffffffffffffffff169060200190929190505050614574565b60405180826002811115610dcb57fe5b60ff16815260200191505060405180910390f35b348015610deb57600080fd5b50610df4614594565b6040518082815260200191505060405180910390f35b348015610e1657600080fd5b50610e4b600480360381019080803573ffffffffffffffffffffffffffffffffffffffff1690602001909291905050506145a1565b005b348015610e5957600080fd5b50610e62614640565b6040518082815260200191505060405180910390f35b348015610e8457600080fd5b50610e8d614645565b6040518082815260200191505060405180910390f35b348015610eaf57600080fd5b50610eb861464b565b604051808273ffffffffffffffffffffffffffffffffffffffff1673ffffffffffffffffffffffffffffffffffffffff16815260200191505060405180910390f35b348015610f0657600080fd5b50610f0f614671565b604051808273ffffffffffffffffffffffffffffffffffffffff1673ffffffffffffffffffffffffffffffffffffffff16815260200191505060405180910390f35b348015610f5d57600080fd5b50610f66614697565b604051808273ffffffffffffffffffffffffffffffffffffffff1673ffffffffffffffffffffffffffffffffffffffff16815260200191505060405180910390f35b348015610fb457600080fd5b50610fbd6146bd565b6040518082815260200191505060405180910390f35b348015610fdf57600080fd5b50610fe86146c3565b604051808273ffffffffffffffffffffffffffffffffffffffff1673ffffffffffffffffffffffffffffffffffffffff16815260200191505060405180910390f35b34801561103657600080fd5b50611055600480360381019080803590602001909291905050506146e9565b005b34801561106357600080fd5b5061106c61475f565b604051808273ffffffffffffffffffffffffffffffffffffffff1673ffffffffffffffffffffffffffffffffffffffff16815260200191505060405180910390f35b3480156110ba57600080fd5b506110d960048036038101908080359060200190929190505050614785565b005b3480156110e757600080fd5b506110f06147fb565b005b3480156110fe57600080fd5b506111076149d7565b6040518082815260200191505060405180910390f35b34801561112957600080fd5b506111326149e4565b6040518082815260200191505060405180910390f35b34801561115457600080fd5b5061115d6149f1565b6040518082815260200191505060405180910390f35b34801561117f57600080fd5b506111886149f7565b604051808273ffffffffffffffffffffffffffffffffffffffff1673ffffffffffffffffffffffffffffffffffffffff16815260200191505060405180910390f35b3480156111d657600080fd5b506111df614a1d565b6040518082815260200191505060405180910390f35b34801561120157600080fd5b50611236600480360381019080803573ffffffffffffffffffffffffffffffffffffffff169060200190929190505050614a2a565b6040518082815260200191505060405180910390f35b34801561125857600080fd5b506112816004803603810190808035906020019092919080359060200190929190505050614a42565b005b34801561128f57600080fd5b50611298614ae9565b604051808215151515815260200191505060405180910390f35b3480156112be57600080fd5b506112c7614afc565b604051808273ffffffffffffffffffffffffffffffffffffffff1673ffffffffffffffffffffffffffffffffffffffff16815260200191505060405180910390f35b34801561131557600080fd5b5061134a600480360381019080803573ffffffffffffffffffffffffffffffffffffffff169060200190929190505050614b22565b005b34801561135857600080fd5b50611361614c1d565b6040518082815260200191505060405180910390f35b34801561138357600080fd5b5061138c614c2a565b6040518082815260200191505060405180910390f35b3480156113ae57600080fd5b506113b7614c30565b6040518082815260200191505060405180910390f35b3480156113d957600080fd5b506113e2614c3d565b6040518082815260200191505060405180910390f35b34801561140457600080fd5b5061140d614c43565b604051808273ffffffffffffffffffffffffffffffffffffffff1673ffffffffffffffffffffffffffffffffffffffff16815260200191505060405180910390f35b600080600080600080635ae17ff842101580156114705750635b02b8654211155b151561147b57600080fd5b611483614c69565b151561148e57600080fd5b611496614f46565b15156114a157600080fd5b6000955060009450606493506114b5614f6f565b8095508196505050600092506114d86114d088600254614ff9565b60035461502c565b91506114e660145483615047565b601481905550600085111561150b576115086115028387614ff9565b8561502c565b92505b6001600281111561151857fe5b600a60008a73ffffffffffffffffffffffffffffffffffffffff1673ffffffffffffffffffffffffffffffffffffffff16815260200190815260200160002060009054906101000a900460ff16600281111561157057fe5b14156115ff576002600a60008a73ffffffffffffffffffffffffffffffffffffffff1673ffffffffffffffffffffffffffffffffffffffff16815260200190815260200160002060006101000a81548160ff021916908360028111156115d257fe5b02179055506115ec6115e5836003614ff9565b606461502c565b90506115f88382615047565b9250600195505b61160c888884868a615065565b5050505050505050565b6000806000806000635ae17ff842101580156116365750635b02b8654211155b151561164157600080fd5b611649614f46565b151561165457600080fd5b6702c68af0bb140000861015151561166b57600080fd5b62015180635ae17ff801421115156117995761177e86600660009054906101000a900473ffffffffffffffffffffffffffffffffffffffff1673ffffffffffffffffffffffffffffffffffffffff16633af0dbc18a6040518263ffffffff167c0100000000000000000000000000000000000000000000000000000000028152600401808273ffffffffffffffffffffffffffffffffffffffff1673ffffffffffffffffffffffffffffffffffffffff168152602001915050602060405180830381600087803b15801561173e57600080fd5b505af1158015611752573d6000803e3d6000fd5b505050506040513d602081101561176857600080fd5b8101908080519060200190929190505050615047565b94506801158e460913d00000851115151561179857600080fd5b5b60009350606492506117a9614f6f565b8094508195505050600091506117cc6117c487600254614ff9565b60035461502c565b905060008411156117ed576117ea6117e48286614ff9565b8461502c565b91505b600660009054906101000a900473ffffffffffffffffffffffffffffffffffffffff1673ffffffffffffffffffffffffffffffffffffffff1663ef8b0e15878984866040518563ffffffff167c0100000000000000000000000000000000000000000000000000000000028152600401808473ffffffffffffffffffffffffffffffffffffffff1673ffffffffffffffffffffffffffffffffffffffff16815260200183815260200182815260200193505050506000604051808303818588803b1580156118ba57600080fd5b505af11580156118ce573d6000803e3d6000fd5b50505050507ffc42b1040c2ac21c825c42ccdad60925abb0462e7bd3a47cf21ad859ee8665468787838542604051808673ffffffffffffffffffffffffffffffffffffffff1673ffffffffffffffffffffffffffffffffffffffff1681526020018581526020018481526020018381526020018281526020019550505050505060405180910390a150505050505050565b60165481565b60008060008060008060008060009054906101000a900473ffffffffffffffffffffffffffffffffffffffff1673ffffffffffffffffffffffffffffffffffffffff163373ffffffffffffffffffffffffffffffffffffffff161415156119cb57600080fd5b6119e0601b54683635c9adc5dea0000061535b565b601354101580611a045750635b02b8654210158015611a035750601c5460135410155b5b1561272457600560009054906101000a900473ffffffffffffffffffffffffffffffffffffffff1673ffffffffffffffffffffffffffffffffffffffff16636252c1276040518163ffffffff167c0100000000000000000000000000000000000000000000000000000000028152600401600060405180830381600087803b158015611a8f57600080fd5b505af1158015611aa3573d6000803e3d6000fd5b50505050600660009054906101000a900473ffffffffffffffffffffffffffffffffffffffff1673ffffffffffffffffffffffffffffffffffffffff16636252c1276040518163ffffffff167c0100000000000000000000000000000000000000000000000000000000028152600401600060405180830381600087803b158015611b2d57600080fd5b505af1158015611b41573d6000803e3d6000fd5b505050506001601a60006101000a81548160ff021916908315150217905550611b6d601454600a61502c565b9650600460009054906101000a900473ffffffffffffffffffffffffffffffffffffffff1673ffffffffffffffffffffffffffffffffffffffff1663867904b4600d60009054906101000a900473ffffffffffffffffffffffffffffffffffffffff16896040518363ffffffff167c0100000000000000000000000000000000000000000000000000000000028152600401808373ffffffffffffffffffffffffffffffffffffffff1673ffffffffffffffffffffffffffffffffffffffff16815260200182815260200192505050600060405180830381600087803b158015611c5657600080fd5b505af1158015611c6a573d6000803e3d6000fd5b50505050611d39600460009054906101000a900473ffffffffffffffffffffffffffffffffffffffff1673ffffffffffffffffffffffffffffffffffffffff166318160ddd6040518163ffffffff167c0100000000000000000000000000000000000000000000000000000000028152600401602060405180830381600087803b158015611cf757600080fd5b505af1158015611d0b573d6000803e3d6000fd5b505050506040513d6020811015611d2157600080fd5b8101908080519060200190929190505050600261502c565b9550600460009054906101000a900473ffffffffffffffffffffffffffffffffffffffff1673ffffffffffffffffffffffffffffffffffffffff1663867904b4600760009054906101000a900473ffffffffffffffffffffffffffffffffffffffff16886040518363ffffffff167c0100000000000000000000000000000000000000000000000000000000028152600401808373ffffffffffffffffffffffffffffffffffffffff1673ffffffffffffffffffffffffffffffffffffffff16815260200182815260200192505050600060405180830381600087803b158015611e2257600080fd5b505af1158015611e36573d6000803e3d6000fd5b50505050600760009054906101000a900473ffffffffffffffffffffffffffffffffffffffff1673ffffffffffffffffffffffffffffffffffffffff1663ca056aed600e60009054906101000a900473ffffffffffffffffffffffffffffffffffffffff16886301e1338042016040518463ffffffff167c0100000000000000000000000000000000000000000000000000000000028152600401808473ffffffffffffffffffffffffffffffffffffffff1673ffffffffffffffffffffffffffffffffffffffff1681526020018381526020018281526020019350505050600060405180830381600087803b158015611f2f57600080fd5b505af1158015611f43573d6000803e3d6000fd5b50505050600460009054906101000a900473ffffffffffffffffffffffffffffffffffffffff1673ffffffffffffffffffffffffffffffffffffffff166318160ddd6040518163ffffffff167c0100000000000000000000000000000000000000000000000000000000028152600401602060405180830381600087803b158015611fcd57600080fd5b505af1158015611fe1573d6000803e3d6000fd5b505050506040513d6020811015611ff757600080fd5b8101908080519060200190929190505050945061201f612018866003614ff9565b600a61502c565b9350600460009054906101000a900473ffffffffffffffffffffffffffffffffffffffff1673ffffffffffffffffffffffffffffffffffffffff1663867904b4600760009054906101000a900473ffffffffffffffffffffffffffffffffffffffff16866040518363ffffffff167c0100000000000000000000000000000000000000000000000000000000028152600401808373ffffffffffffffffffffffffffffffffffffffff1673ffffffffffffffffffffffffffffffffffffffff16815260200182815260200192505050600060405180830381600087803b15801561210857600080fd5b505af115801561211c573d6000803e3d6000fd5b50505050600760009054906101000a900473ffffffffffffffffffffffffffffffffffffffff1673ffffffffffffffffffffffffffffffffffffffff1663ca056aed601160009054906101000a900473ffffffffffffffffffffffffffffffffffffffff168662f1428042016040518463ffffffff167c0100000000000000000000000000000000000000000000000000000000028152600401808473ffffffffffffffffffffffffffffffffffffffff1673ffffffffffffffffffffffffffffffffffffffff1681526020018381526020018281526020019350505050600060405180830381600087803b15801561221457600080fd5b505af1158015612228573d6000803e3d6000fd5b5050505061223785600a61502c565b9250600460009054906101000a900473ffffffffffffffffffffffffffffffffffffffff1673ffffffffffffffffffffffffffffffffffffffff1663867904b4600f60009054906101000a900473ffffffffffffffffffffffffffffffffffffffff16856040518363ffffffff167c0100000000000000000000000000000000000000000000000000000000028152600401808373ffffffffffffffffffffffffffffffffffffffff1673ffffffffffffffffffffffffffffffffffffffff16815260200182815260200192505050600060405180830381600087803b15801561232057600080fd5b505af1158015612334573d6000803e3d6000fd5b5050505061234385600461502c565b9150600460009054906101000a900473ffffffffffffffffffffffffffffffffffffffff1673ffffffffffffffffffffffffffffffffffffffff1663867904b4600760009054906101000a900473ffffffffffffffffffffffffffffffffffffffff16846040518363ffffffff167c0100000000000000000000000000000000000000000000000000000000028152600401808373ffffffffffffffffffffffffffffffffffffffff1673ffffffffffffffffffffffffffffffffffffffff16815260200182815260200192505050600060405180830381600087803b15801561242c57600080fd5b505af1158015612440573d6000803e3d6000fd5b50505050600760009054906101000a900473ffffffffffffffffffffffffffffffffffffffff1673ffffffffffffffffffffffffffffffffffffffff1663ca056aed601060009054906101000a900473ffffffffffffffffffffffffffffffffffffffff16846303c2670042016040518463ffffffff167c0100000000000000000000000000000000000000000000000000000000028152600401808473ffffffffffffffffffffffffffffffffffffffff1673ffffffffffffffffffffffffffffffffffffffff1681526020018381526020018281526020019350505050600060405180830381600087803b15801561253957600080fd5b505af115801561254d573d6000803e3d6000fd5b5050505061255c85603c61502c565b9050600460009054906101000a900473ffffffffffffffffffffffffffffffffffffffff1673ffffffffffffffffffffffffffffffffffffffff1663867904b4601260009054906101000a900473ffffffffffffffffffffffffffffffffffffffff16836040518363ffffffff167c0100000000000000000000000000000000000000000000000000000000028152600401808373ffffffffffffffffffffffffffffffffffffffff1673ffffffffffffffffffffffffffffffffffffffff16815260200182815260200192505050600060405180830381600087803b15801561264557600080fd5b505af1158015612659573d6000803e3d6000fd5b50505050600460009054906101000a900473ffffffffffffffffffffffffffffffffffffffff1673ffffffffffffffffffffffffffffffffffffffff1663c422293b6040518163ffffffff167c0100000000000000000000000000000000000000000000000000000000028152600401602060405180830381600087803b1580156126e357600080fd5b505af11580156126f7573d6000803e3d6000fd5b505050506040513d602081101561270d57600080fd5b81019080805190602001909291905050505061294c565b635b02b8654210151561294b57600560009054906101000a900473ffffffffffffffffffffffffffffffffffffffff1673ffffffffffffffffffffffffffffffffffffffff16633b64e77e6040518163ffffffff167c0100000000000000000000000000000000000000000000000000000000028152600401600060405180830381600087803b1580156127b757600080fd5b505af11580156127cb573d6000803e3d6000fd5b50505050600660009054906101000a900473ffffffffffffffffffffffffffffffffffffffff1673ffffffffffffffffffffffffffffffffffffffff16636252c1276040518163ffffffff167c0100000000000000000000000000000000000000000000000000000000028152600401600060405180830381600087803b15801561285557600080fd5b505af1158015612869573d6000803e3d6000fd5b50505050600460009054906101000a900473ffffffffffffffffffffffffffffffffffffffff1673ffffffffffffffffffffffffffffffffffffffff1663c422293b6040518163ffffffff167c0100000000000000000000000000000000000000000000000000000000028152600401602060405180830381600087803b1580156128f357600080fd5b505af1158015612907573d6000803e3d6000fd5b505050506040513d602081101561291d57600080fd5b8101908080519060200190929190505050506001601d60006101000a81548160ff0219169083151502179055505b5b50505050505050565b600c60009054906101000a900473ffffffffffffffffffffffffffffffffffffffff1681565b600760009054906101000a900473ffffffffffffffffffffffffffffffffffffffff1681565b60096020528060005260406000206000915054906101000a900460ff1681565b601a60009054906101000a900460ff1681565b6702c68af0bb14000081565b68a2a15d09519be0000081565b6000809054906101000a900473ffffffffffffffffffffffffffffffffffffffff1673ffffffffffffffffffffffffffffffffffffffff163373ffffffffffffffffffffffffffffffffffffffff16141515612a4857600080fd5b601a60009054906101000a900460ff161515612a6357600080fd5b6000601560009054906101000a900473ffffffffffffffffffffffffffffffffffffffff1673ffffffffffffffffffffffffffffffffffffffff166370a08231306040518263ffffffff167c0100000000000000000000000000000000000000000000000000000000028152600401808273ffffffffffffffffffffffffffffffffffffffff1673ffffffffffffffffffffffffffffffffffffffff168152602001915050602060405180830381600087803b158015612b2257600080fd5b505af1158015612b36573d6000803e3d6000fd5b505050506040513d6020811015612b4c57600080fd5b81019080805190602001909291905050501115612d7e57601560009054906101000a900473ffffffffffffffffffffffffffffffffffffffff1673ffffffffffffffffffffffffffffffffffffffff1663a9059cbb600c60009054906101000a900473ffffffffffffffffffffffffffffffffffffffff16601560009054906101000a900473ffffffffffffffffffffffffffffffffffffffff1673ffffffffffffffffffffffffffffffffffffffff166370a08231306040518263ffffffff167c0100000000000000000000000000000000000000000000000000000000028152600401808273ffffffffffffffffffffffffffffffffffffffff1673ffffffffffffffffffffffffffffffffffffffff168152602001915050602060405180830381600087803b158015612c8157600080fd5b505af1158015612c95573d6000803e3d6000fd5b505050506040513d6020811015612cab57600080fd5b81019080805190602001909291905050506040518363ffffffff167c0100000000000000000000000000000000000000000000000000000000028152600401808373ffffffffffffffffffffffffffffffffffffffff1673ffffffffffffffffffffffffffffffffffffffff16815260200182815260200192505050602060405180830381600087803b158015612d4157600080fd5b505af1158015612d55573d6000803e3d6000fd5b505050506040513d6020811015612d6b57600080fd5b8101908080519060200190929190505050505b565b635b02b86581565b601560009054906101000a900473ffffffffffffffffffffffffffffffffffffffff1681565b60145481565b600181565b612dc1614f46565b1515612dcc57600080fd5b600660009054906101000a900473ffffffffffffffffffffffffffffffffffffffff1673ffffffffffffffffffffffffffffffffffffffff163373ffffffffffffffffffffffffffffffffffffffff16141515612e2857600080fd5b600034111515612e3757600080fd5b612e4360145483615047565b601481905550612e57833484846000615065565b505050565b60086020528060005260406000206000915054906101000a900460ff1681565b6000809054906101000a900473ffffffffffffffffffffffffffffffffffffffff1673ffffffffffffffffffffffffffffffffffffffff163373ffffffffffffffffffffffffffffffffffffffff16141515612ed757600080fd5b600160149054906101000a900460ff161515612ef257600080fd5b6000600160146101000a81548160ff0219169083151502179055507f7805862f689e2f13df9f062ff482ad3ad112aca9e0847911ed832e158c525b3360405160405180910390a1565b60186020528060005260406000206000915090505481565b635ae17ff881565b6000809054906101000a900473ffffffffffffffffffffffffffffffffffffffff1673ffffffffffffffffffffffffffffffffffffffff163373ffffffffffffffffffffffffffffffffffffffff16141515612fb657600080fd5b6001600860008373ffffffffffffffffffffffffffffffffffffffff1673ffffffffffffffffffffffffffffffffffffffff16815260200190815260200160002060006101000a81548160ff02191690831515021790555050565b6000601c54905090565b6000809054906101000a900473ffffffffffffffffffffffffffffffffffffffff1673ffffffffffffffffffffffffffffffffffffffff163373ffffffffffffffffffffffffffffffffffffffff1614151561307657600080fd5b6001600960008373ffffffffffffffffffffffffffffffffffffffff1673ffffffffffffffffffffffffffffffffffffffff16815260200190815260200160002060006101000a81548160ff02191690831515021790555050565b600080600080600080600080600160149054906101000a900460ff161515156130f957600080fd5b635ae17ff842101580156131115750635b02b8654211155b151561311c57600080fd5b613124615374565b151561312f57600080fd5b600097506000965060649550613143614f6f565b8097508198505050601560009054906101000a900473ffffffffffffffffffffffffffffffffffffffff1673ffffffffffffffffffffffffffffffffffffffff1663dd62ed3e33306040518363ffffffff167c0100000000000000000000000000000000000000000000000000000000028152600401808373ffffffffffffffffffffffffffffffffffffffff1673ffffffffffffffffffffffffffffffffffffffff1681526020018273ffffffffffffffffffffffffffffffffffffffff1673ffffffffffffffffffffffffffffffffffffffff16815260200192505050602060405180830381600087803b15801561323c57600080fd5b505af1158015613250573d6000803e3d6000fd5b505050506040513d602081101561326657600080fd5b81019080805190602001909291905050509450601560009054906101000a900473ffffffffffffffffffffffffffffffffffffffff1673ffffffffffffffffffffffffffffffffffffffff166323b872dd3330886040518463ffffffff167c0100000000000000000000000000000000000000000000000000000000028152600401808473ffffffffffffffffffffffffffffffffffffffff1673ffffffffffffffffffffffffffffffffffffffff1681526020018373ffffffffffffffffffffffffffffffffffffffff1673ffffffffffffffffffffffffffffffffffffffff1681526020018281526020019350505050602060405180830381600087803b15801561337257600080fd5b505af1158015613386573d6000803e3d6000fd5b505050506040513d602081101561339c57600080fd5b8101908080519060200190929190505050506133f7601860003373ffffffffffffffffffffffffffffffffffffffff1673ffffffffffffffffffffffffffffffffffffffff1681526020019081526020016000205486615047565b601860003373ffffffffffffffffffffffffffffffffffffffff1673ffffffffffffffffffffffffffffffffffffffff168152602001908152602001600020819055506000935061345361344c8660a9614ff9565b600161502c565b925061346160145484615047565b60148190555060008711156134865761348361347d8489614ff9565b8761502c565b93505b6001600281111561349357fe5b600a60003373ffffffffffffffffffffffffffffffffffffffff1673ffffffffffffffffffffffffffffffffffffffff16815260200190815260200160002060009054906101000a900460ff1660028111156134eb57fe5b141561357a576002600a60003373ffffffffffffffffffffffffffffffffffffffff1673ffffffffffffffffffffffffffffffffffffffff16815260200190815260200160002060006101000a81548160ff0219169083600281111561354d57fe5b0217905550613567613560846003614ff9565b606461502c565b91506135738483615047565b9350600197505b6135848385615047565b9050600460009054906101000a900473ffffffffffffffffffffffffffffffffffffffff1673ffffffffffffffffffffffffffffffffffffffff1663867904b433836040518363ffffffff167c0100000000000000000000000000000000000000000000000000000000028152600401808373ffffffffffffffffffffffffffffffffffffffff1673ffffffffffffffffffffffffffffffffffffffff16815260200182815260200192505050600060405180830381600087803b15801561364b57600080fd5b505af115801561365f573d6000803e3d6000fd5b5050505061366f60195486615047565b6019819055507f934a07288cb83800d6bb14a38c6c12f397a925ad87ce3b745c6804db1ecee24f338685878c42604051808773ffffffffffffffffffffffffffffffffffffffff1673ffffffffffffffffffffffffffffffffffffffff16815260200186815260200185815260200184815260200183151515158152602001828152602001965050505050505060405180910390a15050505050505050565b606481565b6000809054906101000a900473ffffffffffffffffffffffffffffffffffffffff1673ffffffffffffffffffffffffffffffffffffffff163373ffffffffffffffffffffffffffffffffffffffff1614151561376e57600080fd5b6001600a60008373ffffffffffffffffffffffffffffffffffffffff1673ffffffffffffffffffffffffffffffffffffffff16815260200190815260200160002060006101000a81548160ff021916908360028111156137ca57fe5b021790555050565b6000809054906101000a900473ffffffffffffffffffffffffffffffffffffffff1673ffffffffffffffffffffffffffffffffffffffff163373ffffffffffffffffffffffffffffffffffffffff1614151561382d57600080fd5b831561388c576001600860008773ffffffffffffffffffffffffffffffffffffffff1673ffffffffffffffffffffffffffffffffffffffff16815260200190815260200160002060006101000a81548160ff0219169083151502179055505b82156138eb576001600960008773ffffffffffffffffffffffffffffffffffffffff1673ffffffffffffffffffffffffffffffffffffffff16815260200190815260200160002060006101000a81548160ff0219169083151502179055505b81156139c757600460009054906101000a900473ffffffffffffffffffffffffffffffffffffffff1673ffffffffffffffffffffffffffffffffffffffff1663ee8cbc9d866040518263ffffffff167c0100000000000000000000000000000000000000000000000000000000028152600401808273ffffffffffffffffffffffffffffffffffffffff1673ffffffffffffffffffffffffffffffffffffffff168152602001915050600060405180830381600087803b1580156139ae57600080fd5b505af11580156139c2573d6000803e3d6000fd5b505050505b8015613a2f576001600a60008773ffffffffffffffffffffffffffffffffffffffff1673ffffffffffffffffffffffffffffffffffffffff16815260200190815260200160002060006101000a81548160ff02191690836002811115613a2957fe5b02179055505b600660009054906101000a900473ffffffffffffffffffffffffffffffffffffffff1673ffffffffffffffffffffffffffffffffffffffff1663f50a2644866040518263ffffffff167c0100000000000000000000000000000000000000000000000000000000028152600401808273ffffffffffffffffffffffffffffffffffffffff1673ffffffffffffffffffffffffffffffffffffffff168152602001915050602060405180830381600087803b158015613aec57600080fd5b505af1158015613b00573d6000803e3d6000fd5b505050506040513d6020811015613b1657600080fd5b810190808051906020019092919050505015613c0257600660009054906101000a900473ffffffffffffffffffffffffffffffffffffffff1673ffffffffffffffffffffffffffffffffffffffff166331aa91fc866040518263ffffffff167c0100000000000000000000000000000000000000000000000000000000028152600401808273ffffffffffffffffffffffffffffffffffffffff1673ffffffffffffffffffffffffffffffffffffffff168152602001915050600060405180830381600087803b158015613be957600080fd5b505af1158015613bfd573d6000803e3d6000fd5b505050505b5050505050565b600160149054906101000a900460ff1681565b6000809054906101000a900473ffffffffffffffffffffffffffffffffffffffff1673ffffffffffffffffffffffffffffffffffffffff163373ffffffffffffffffffffffffffffffffffffffff16141515613c7757600080fd5b613c7f61441f565b600560009054906101000a900473ffffffffffffffffffffffffffffffffffffffff1673ffffffffffffffffffffffffffffffffffffffff16633b64e77e6040518163ffffffff167c0100000000000000000000000000000000000000000000000000000000028152600401600060405180830381600087803b158015613d0557600080fd5b505af1158015613d19573d6000803e3d6000fd5b50505050600660009054906101000a900473ffffffffffffffffffffffffffffffffffffffff1673ffffffffffffffffffffffffffffffffffffffff16636252c1276040518163ffffffff167c0100000000000000000000000000000000000000000000000000000000028152600401600060405180830381600087803b158015613da357600080fd5b505af1158015613db7573d6000803e3d6000fd5b50505050600460009054906101000a900473ffffffffffffffffffffffffffffffffffffffff1673ffffffffffffffffffffffffffffffffffffffff1663c422293b6040518163ffffffff167c0100000000000000000000000000000000000000000000000000000000028152600401602060405180830381600087803b158015613e4157600080fd5b505af1158015613e55573d6000803e3d6000fd5b505050506040513d6020811015613e6b57600080fd5b8101908080519060200190929190505050506001601d60006101000a81548160ff021916908315150217905550565b60a981565b6000601d60009054906101000a900460ff161515613ebc57600080fd5b6000601860003373ffffffffffffffffffffffffffffffffffffffff1673ffffffffffffffffffffffffffffffffffffffff16815260200190815260200160002054111515613f0a57600080fd5b601860003373ffffffffffffffffffffffffffffffffffffffff1673ffffffffffffffffffffffffffffffffffffffff1681526020019081526020016000205490506000601860003373ffffffffffffffffffffffffffffffffffffffff1673ffffffffffffffffffffffffffffffffffffffff16815260200190815260200160002081905550601560009054906101000a900473ffffffffffffffffffffffffffffffffffffffff1673ffffffffffffffffffffffffffffffffffffffff1663a9059cbb33836040518363ffffffff167c0100000000000000000000000000000000000000000000000000000000028152600401808373ffffffffffffffffffffffffffffffffffffffff1673ffffffffffffffffffffffffffffffffffffffff16815260200182815260200192505050602060405180830381600087803b15801561405657600080fd5b505af115801561406a573d6000803e3d6000fd5b505050506040513d602081101561408057600080fd5b810190808051906020019092919050505050600460009054906101000a900473ffffffffffffffffffffffffffffffffffffffff1673ffffffffffffffffffffffffffffffffffffffff1663a24835d133600460009054906101000a900473ffffffffffffffffffffffffffffffffffffffff1673ffffffffffffffffffffffffffffffffffffffff166370a08231336040518263ffffffff167c0100000000000000000000000000000000000000000000000000000000028152600401808273ffffffffffffffffffffffffffffffffffffffff1673ffffffffffffffffffffffffffffffffffffffff168152602001915050602060405180830381600087803b15801561418e57600080fd5b505af11580156141a2573d6000803e3d6000fd5b505050506040513d60208110156141b857600080fd5b81019080805190602001909291905050506040518363ffffffff167c0100000000000000000000000000000000000000000000000000000000028152600401808373ffffffffffffffffffffffffffffffffffffffff1673ffffffffffffffffffffffffffffffffffffffff16815260200182815260200192505050600060405180830381600087803b15801561424e57600080fd5b505af1158015614262573d6000803e3d6000fd5b5050505050565b621baf80635ae17ff80181565b6000600860008373ffffffffffffffffffffffffffffffffffffffff1673ffffffffffffffffffffffffffffffffffffffff16815260200190815260200160002060009054906101000a900460ff16806143195750600960008373ffffffffffffffffffffffffffffffffffffffff1673ffffffffffffffffffffffffffffffffffffffff16815260200190815260200160002060009054906101000a900460ff165b806144185750600460009054906101000a900473ffffffffffffffffffffffffffffffffffffffff1673ffffffffffffffffffffffffffffffffffffffff16632e217405836040518263ffffffff167c0100000000000000000000000000000000000000000000000000000000028152600401808273ffffffffffffffffffffffffffffffffffffffff1673ffffffffffffffffffffffffffffffffffffffff168152602001915050602060405180830381600087803b1580156143dc57600080fd5b505af11580156143f0573d6000803e3d6000fd5b505050506040513d602081101561440657600080fd5b81019080805190602001909291905050505b9050919050565b6000809054906101000a900473ffffffffffffffffffffffffffffffffffffffff1673ffffffffffffffffffffffffffffffffffffffff163373ffffffffffffffffffffffffffffffffffffffff1614151561447a57600080fd5b600160149054906101000a900460ff1615151561449657600080fd5b60018060146101000a81548160ff0219169083151502179055507f6985a02210a168e66602d3235cb6db0e70f92b3ba4d376a33c0f3d9434bff62560405160405180910390a1565b62015180635ae17ff80181565b6000809054906101000a900473ffffffffffffffffffffffffffffffffffffffff1681565b600e60009054906101000a900473ffffffffffffffffffffffffffffffffffffffff1681565b601c5481565b601160009054906101000a900473ffffffffffffffffffffffffffffffffffffffff1681565b60195481565b6702c68af0bb14000081565b600a6020528060005260406000206000915054906101000a900460ff1681565b68056bc75e2d6310000081565b6000809054906101000a900473ffffffffffffffffffffffffffffffffffffffff1673ffffffffffffffffffffffffffffffffffffffff163373ffffffffffffffffffffffffffffffffffffffff161415156145fc57600080fd5b80600760006101000a81548173ffffffffffffffffffffffffffffffffffffffff021916908373ffffffffffffffffffffffffffffffffffffffff16021790555050565b600381565b60135481565b600560009054906101000a900473ffffffffffffffffffffffffffffffffffffffff1681565b600660009054906101000a900473ffffffffffffffffffffffffffffffffffffffff1681565b600d60009054906101000a900473ffffffffffffffffffffffffffffffffffffffff1681565b60025481565b601260009054906101000a900473ffffffffffffffffffffffffffffffffffffffff1681565b6000809054906101000a900473ffffffffffffffffffffffffffffffffffffffff1673ffffffffffffffffffffffffffffffffffffffff163373ffffffffffffffffffffffffffffffffffffffff1614151561474457600080fd5b6000601b5414151561475557600080fd5b80601b8190555050565b600160009054906101000a900473ffffffffffffffffffffffffffffffffffffffff1681565b6000809054906101000a900473ffffffffffffffffffffffffffffffffffffffff1673ffffffffffffffffffffffffffffffffffffffff163373ffffffffffffffffffffffffffffffffffffffff161415156147e057600080fd5b6000601c541415156147f157600080fd5b80601c8190555050565b600160009054906101000a900473ffffffffffffffffffffffffffffffffffffffff1673ffffffffffffffffffffffffffffffffffffffff163373ffffffffffffffffffffffffffffffffffffffff1614151561485757600080fd5b7f8be0079c531659141344cd1fd0a4f28419497f9722a3daafe3b4186f6b6457e06000809054906101000a900473ffffffffffffffffffffffffffffffffffffffff16600160009054906101000a900473ffffffffffffffffffffffffffffffffffffffff16604051808373ffffffffffffffffffffffffffffffffffffffff1673ffffffffffffffffffffffffffffffffffffffff1681526020018273ffffffffffffffffffffffffffffffffffffffff1673ffffffffffffffffffffffffffffffffffffffff1681526020019250505060405180910390a1600160009054906101000a900473ffffffffffffffffffffffffffffffffffffffff166000806101000a81548173ffffffffffffffffffffffffffffffffffffffff021916908373ffffffffffffffffffffffffffffffffffffffff1602179055506000600160006101000a81548173ffffffffffffffffffffffffffffffffffffffff021916908373ffffffffffffffffffffffffffffffffffffffff160217905550565b62093a80635ae17ff80181565b6202a300635ae17ff80181565b60175481565b600f60009054906101000a900473ffffffffffffffffffffffffffffffffffffffff1681565b6801158e460913d0000081565b600b6020528060005260406000206000915090505481565b6000809054906101000a900473ffffffffffffffffffffffffffffffffffffffff1673ffffffffffffffffffffffffffffffffffffffff163373ffffffffffffffffffffffffffffffffffffffff16141515614a9d57600080fd5b6000600254148015614ab157506000600354145b1515614abc57600080fd5b600082118015614acc5750600081115b1515614ad757600080fd5b81600281905550806003819055505050565b601d60009054906101000a900460ff1681565b601060009054906101000a900473ffffffffffffffffffffffffffffffffffffffff1681565b6000809054906101000a900473ffffffffffffffffffffffffffffffffffffffff1673ffffffffffffffffffffffffffffffffffffffff163373ffffffffffffffffffffffffffffffffffffffff16141515614b7d57600080fd5b6000809054906101000a900473ffffffffffffffffffffffffffffffffffffffff1673ffffffffffffffffffffffffffffffffffffffff168173ffffffffffffffffffffffffffffffffffffffff1614151515614bd957600080fd5b80600160006101000a81548173ffffffffffffffffffffffffffffffffffffffff021916908373ffffffffffffffffffffffffffffffffffffffff16021790555050565b6801158e460913d0000081565b60035481565b62127500635ae17ff80181565b601b5481565b600460009054906101000a900473ffffffffffffffffffffffffffffffffffffffff1681565b600080614cb534600b60003373ffffffffffffffffffffffffffffffffffffffff1673ffffffffffffffffffffffffffffffffffffffff16815260200190815260200160002054615047565b9050600860003373ffffffffffffffffffffffffffffffffffffffff1673ffffffffffffffffffffffffffffffffffffffff16815260200190815260200160002060009054906101000a900460ff168015614d1857506702c68af0bb1400003410155b15614d555762015180635ae17ff8014211158015614d3e57506801158e460913d0000081115b15614d4c5760009150614f42565b60019150614f42565b600960003373ffffffffffffffffffffffffffffffffffffffff1673ffffffffffffffffffffffffffffffffffffffff16815260200190815260200160002060009054906101000a900460ff168015614db7575068056bc75e2d631000003410155b15614df45762015180635ae17ff8014211158015614ddd575068a2a15d09519be0000081115b15614deb5760009150614f42565b60019150614f42565b600460009054906101000a900473ffffffffffffffffffffffffffffffffffffffff1673ffffffffffffffffffffffffffffffffffffffff16632e217405336040518263ffffffff167c0100000000000000000000000000000000000000000000000000000000028152600401808273ffffffffffffffffffffffffffffffffffffffff1673ffffffffffffffffffffffffffffffffffffffff168152602001915050602060405180830381600087803b158015614eb157600080fd5b505af1158015614ec5573d6000803e3d6000fd5b505050506040513d6020811015614edb57600080fd5b81019080805190602001909291905050508015614f0057506702c68af0bb1400003410155b15614f3d5762015180635ae17ff8014211158015614f2657506801158e460913d0000081115b15614f345760009150614f42565b60019150614f42565b600091505b5090565b6000614f56601b5460135461535b565b34111515614f675760019050614f6c565b600090505b90565b60008060008060009150606490506202a300635ae17ff801421015614f975760199150614fed565b62093a80635ae17ff801421015614fb157600f9150614fec565b62127500635ae17ff801421015614fcb57600a9150614feb565b621baf80635ae17ff801421015614fe55760059150614fea565b600091505b5b5b5b81819350935050509091565b6000808284029050600084148061501a575082848281151561501757fe5b04145b151561502257fe5b8091505092915050565b600080828481151561503a57fe5b0490508091505092915050565b600080828401905083811015151561505b57fe5b8091505092915050565b60006150718484615047565b9050600460009054906101000a900473ffffffffffffffffffffffffffffffffffffffff1673ffffffffffffffffffffffffffffffffffffffff1663867904b487836040518363ffffffff167c0100000000000000000000000000000000000000000000000000000000028152600401808373ffffffffffffffffffffffffffffffffffffffff1673ffffffffffffffffffffffffffffffffffffffff16815260200182815260200192505050600060405180830381600087803b15801561513857600080fd5b505af115801561514c573d6000803e3d6000fd5b50505050600560009054906101000a900473ffffffffffffffffffffffffffffffffffffffff1673ffffffffffffffffffffffffffffffffffffffff1663a78a651a86886040518363ffffffff167c0100000000000000000000000000000000000000000000000000000000028152600401808273ffffffffffffffffffffffffffffffffffffffff1673ffffffffffffffffffffffffffffffffffffffff1681526020019150506000604051808303818588803b15801561520d57600080fd5b505af1158015615221573d6000803e3d6000fd5b505050505061523260135486615047565b601381905550615281600b60008873ffffffffffffffffffffffffffffffffffffffff1673ffffffffffffffffffffffffffffffffffffffff1681526020019081526020016000205486615047565b600b60008873ffffffffffffffffffffffffffffffffffffffff1673ffffffffffffffffffffffffffffffffffffffff168152602001908152602001600020819055507f77cbff9b281bbc6839ce326b536ee9d11c49c42e936fe518d7c47d7296f73424868686868642604051808773ffffffffffffffffffffffffffffffffffffffff1673ffffffffffffffffffffffffffffffffffffffff16815260200186815260200185815260200184815260200183151515158152602001828152602001965050505050505060405180910390a1505050505050565b600081831015151561536957fe5b818303905092915050565b600080600460009054906101000a900473ffffffffffffffffffffffffffffffffffffffff1673ffffffffffffffffffffffffffffffffffffffff16632e217405336040518263ffffffff167c0100000000000000000000000000000000000000000000000000000000028152600401808273ffffffffffffffffffffffffffffffffffffffff1673ffffffffffffffffffffffffffffffffffffffff168152602001915050602060405180830381600087803b15801561543457600080fd5b505af1158015615448573d6000803e3d6000fd5b505050506040513d602081101561545e57600080fd5b81019080805190602001909291905050501561547d576000915061568c565b600860003373ffffffffffffffffffffffffffffffffffffffff1673ffffffffffffffffffffffffffffffffffffffff16815260200190815260200160002060009054906101000a900460ff161580156155215750600960003373ffffffffffffffffffffffffffffffffffffffff1673ffffffffffffffffffffffffffffffffffffffff16815260200190815260200160002060009054906101000a900460ff16155b1561552f576000915061568c565b601560009054906101000a900473ffffffffffffffffffffffffffffffffffffffff1673ffffffffffffffffffffffffffffffffffffffff1663dd62ed3e33306040518363ffffffff167c0100000000000000000000000000000000000000000000000000000000028152600401808373ffffffffffffffffffffffffffffffffffffffff1673ffffffffffffffffffffffffffffffffffffffff1681526020018273ffffffffffffffffffffffffffffffffffffffff1673ffffffffffffffffffffffffffffffffffffffff16815260200192505050602060405180830381600087803b15801561562057600080fd5b505af1158015615634573d6000803e3d6000fd5b505050506040513d602081101561564a57600080fd5b81019080805190602001909291905050509050601754811080615679575060165461567760195483615047565b115b15615687576000915061568c565b600191505b50905600a165627a7a72305820cb95be9e6aef2a292341b84bd4f3bc48b98dc8f8cb8580c7a184b77a3fedfd5e0029",
  "source": "pragma solidity ^0.4.21;\n\nimport './fund/ICrowdsaleFund.sol';\nimport './fund/ICrowdsaleReservationFund.sol';\nimport './token/IERC20Token.sol';\nimport './token/TransferLimitedToken.sol';\nimport './token/LockedTokens.sol';\nimport './ownership/Ownable.sol';\nimport './Pausable.sol';\nimport './ISimpleCrowdsale.sol';\n\n\ncontract TheAbyssDAICO is Ownable, SafeMath, Pausable, ISimpleCrowdsale {\n    enum AdditionalBonusState {\n        Unavailable,\n        Active,\n        Applied\n    }\n\n    uint256 public constant ADDITIONAL_BONUS_NUM = 3;\n    uint256 public constant ADDITIONAL_BONUS_DENOM = 100;\n\n    uint256 public constant ETHER_MIN_CONTRIB = 0.2 ether;\n    uint256 public constant ETHER_MAX_CONTRIB = 20 ether;\n\n    uint256 public constant ETHER_MIN_CONTRIB_PRIVATE = 100 ether;\n    uint256 public constant ETHER_MAX_CONTRIB_PRIVATE = 3000 ether;\n\n    uint256 public constant ETHER_MIN_CONTRIB_USA = 0.2 ether;\n    uint256 public constant ETHER_MAX_CONTRIB_USA = 20 ether;\n\n    uint256 public constant SALE_START_TIME = 1524727800; // Thu, 26 Apr 2018 09:30:00 +0200\n    uint256 public constant SALE_END_TIME = 1526904933; // Mon, 21 May 2018 14:15:33 +0200\n\n    uint256 public constant BONUS_WINDOW_1_END_TIME = SALE_START_TIME + 2 days;\n    uint256 public constant BONUS_WINDOW_2_END_TIME = SALE_START_TIME + 7 days;\n    uint256 public constant BONUS_WINDOW_3_END_TIME = SALE_START_TIME + 14 days;\n    uint256 public constant BONUS_WINDOW_4_END_TIME = SALE_START_TIME + 21 days;\n\n    uint256 public constant MAX_CONTRIB_CHECK_END_TIME = SALE_START_TIME + 1 days;\n\n    uint256 public constant BNB_TOKEN_PRICE_NUM = 169;\n    uint256 public constant BNB_TOKEN_PRICE_DENOM = 1;\n\n    uint256 public tokenPriceNum = 0;\n    uint256 public tokenPriceDenom = 0;\n    \n    TransferLimitedToken public token;\n    ICrowdsaleFund public fund;\n    ICrowdsaleReservationFund public reservationFund;\n    LockedTokens public lockedTokens;\n\n    mapping(address => bool) public whiteList;\n    mapping(address => bool) public privilegedList;\n    mapping(address => AdditionalBonusState) public additionalBonusOwnerState;\n    mapping(address => uint256) public userTotalContributed;\n\n    address public bnbTokenWallet;\n    address public referralTokenWallet;\n    address public foundationTokenWallet;\n    address public advisorsTokenWallet;\n    address public companyTokenWallet;\n    address public reserveTokenWallet;\n    address public bountyTokenWallet;\n\n    uint256 public totalEtherContributed = 0;\n    uint256 public rawTokenSupply = 0;\n\n    // BNB\n    IERC20Token public bnbToken;\n    uint256 public BNB_HARD_CAP = 300000 ether; // 300K BNB\n    uint256 public BNB_MIN_CONTRIB = 1000 ether; // 1K BNB\n    mapping(address => uint256) public bnbContributions;\n    uint256 public totalBNBContributed = 0;\n    bool public bnbWithdrawEnabled = false;\n\n    uint256 public hardCap = 34615 ether; // World hard cap will be set right before Token Sale\n    uint256 public softCap = 11538 ether; // World soft cap will be set right before Token Sale\n\n    bool public bnbRefundEnabled = false;\n\n    event LogContribution(address contributor, uint256 amountWei, uint256 tokenAmount, uint256 tokenBonus, bool additionalBonusApplied, uint256 timestamp);\n    event ReservationFundContribution(address contributor, uint256 amountWei, uint256 tokensToIssue, uint256 bonusTokensToIssue, uint256 timestamp);\n    event LogBNBContribution(address contributor, uint256 amountBNB, uint256 tokenAmount, uint256 tokenBonus, bool additionalBonusApplied, uint256 timestamp);\n\n    modifier checkContribution() {\n        require(isValidContribution());\n        _;\n    }\n\n    modifier checkBNBContribution() {\n        require(isValidBNBContribution());\n        _;\n    }\n\n    modifier checkCap() {\n        require(validateCap());\n        _;\n    }\n\n    modifier checkTime() {\n        require(now >= SALE_START_TIME && now <= SALE_END_TIME);\n        _;\n    }\n\n    function TheAbyssDAICO(\n        address bnbTokenAddress,\n        address tokenAddress,\n        address fundAddress,\n        address reservationFundAddress,\n        address _bnbTokenWallet,\n        address _referralTokenWallet,\n        address _foundationTokenWallet,\n        address _advisorsTokenWallet,\n        address _companyTokenWallet,\n        address _reserveTokenWallet,\n        address _bountyTokenWallet,\n        address _owner\n    ) public\n        Ownable(_owner)\n    {\n        require(tokenAddress != address(0));\n\n        bnbToken = IERC20Token(bnbTokenAddress);\n        token = TransferLimitedToken(tokenAddress);\n        fund = ICrowdsaleFund(fundAddress);\n        reservationFund = ICrowdsaleReservationFund(reservationFundAddress);\n\n        bnbTokenWallet = _bnbTokenWallet;\n        referralTokenWallet = _referralTokenWallet;\n        foundationTokenWallet = _foundationTokenWallet;\n        advisorsTokenWallet = _advisorsTokenWallet;\n        companyTokenWallet = _companyTokenWallet;\n        reserveTokenWallet = _reserveTokenWallet;\n        bountyTokenWallet = _bountyTokenWallet;\n    }\n\n    /**\n     * @dev check if address can contribute\n     */\n    function isContributorInLists(address contributor) external view returns(bool) {\n        return whiteList[contributor] || privilegedList[contributor] || token.limitedWallets(contributor);\n    }\n\n    /**\n     * @dev check contribution amount and time\n     */\n    function isValidContribution() internal view returns(bool) {\n        uint256 currentUserContribution = safeAdd(msg.value, userTotalContributed[msg.sender]);\n        if(whiteList[msg.sender] && msg.value >= ETHER_MIN_CONTRIB) {\n            if(now <= MAX_CONTRIB_CHECK_END_TIME && currentUserContribution > ETHER_MAX_CONTRIB ) {\n                    return false;\n            }\n            return true;\n\n        }\n        if(privilegedList[msg.sender] && msg.value >= ETHER_MIN_CONTRIB_PRIVATE) {\n            if(now <= MAX_CONTRIB_CHECK_END_TIME && currentUserContribution > ETHER_MAX_CONTRIB_PRIVATE ) {\n                    return false;\n            }\n            return true;\n        }\n\n        if(token.limitedWallets(msg.sender) && msg.value >= ETHER_MIN_CONTRIB_USA) {\n            if(now <= MAX_CONTRIB_CHECK_END_TIME && currentUserContribution > ETHER_MAX_CONTRIB_USA) {\n                    return false;\n            }\n            return true;\n        }\n\n        return false;\n    }\n\n    /**\n     * @dev Check hard cap overflow\n     */\n    function validateCap() internal view returns(bool){\n        if(msg.value <= safeSub(hardCap, totalEtherContributed)) {\n            return true;\n        }\n        return false;\n    }\n\n    /**\n     * @dev Set token price once before start of crowdsale\n     */\n    function setTokenPrice(uint256 _tokenPriceNum, uint256 _tokenPriceDenom) public onlyOwner {\n        require(tokenPriceNum == 0 && tokenPriceDenom == 0);\n        require(_tokenPriceNum > 0 && _tokenPriceDenom > 0);\n        tokenPriceNum = _tokenPriceNum;\n        tokenPriceDenom = _tokenPriceDenom;\n    }\n\n    /**\n     * @dev Set hard cap.\n     * @param _hardCap - Hard cap value\n     */\n    function setHardCap(uint256 _hardCap) public onlyOwner {\n        require(hardCap == 0);\n        hardCap = _hardCap;\n    }\n\n    /**\n     * @dev Set soft cap.\n     * @param _softCap - Soft cap value\n     */\n    function setSoftCap(uint256 _softCap) public onlyOwner {\n        require(softCap == 0);\n        softCap = _softCap;\n    }\n\n    /**\n     * @dev Get soft cap amount\n     **/\n    function getSoftCap() external view returns(uint256) {\n        return softCap;\n    }\n\n    /**\n     * @dev Check bnb contribution time, amount and hard cap overflow\n     */\n    function isValidBNBContribution() internal view returns(bool) {\n        if(token.limitedWallets(msg.sender)) {\n            return false;\n        }\n        if(!whiteList[msg.sender] && !privilegedList[msg.sender]) {\n            return false;\n        }\n        uint256 amount = bnbToken.allowance(msg.sender, address(this));\n        if(amount < BNB_MIN_CONTRIB || safeAdd(totalBNBContributed, amount) > BNB_HARD_CAP) {\n            return false;\n        }\n        return true;\n\n    }\n\n    /**\n     * @dev Calc bonus amount by contribution time\n     */\n    function getBonus() internal constant returns (uint256, uint256) {\n        uint256 numerator = 0;\n        uint256 denominator = 100;\n\n        if(now < BONUS_WINDOW_1_END_TIME) {\n            numerator = 25;\n        } else if(now < BONUS_WINDOW_2_END_TIME) {\n            numerator = 15;\n        } else if(now < BONUS_WINDOW_3_END_TIME) {\n            numerator = 10;\n        } else if(now < BONUS_WINDOW_4_END_TIME) {\n            numerator = 5;\n        } else {\n            numerator = 0;\n        }\n\n        return (numerator, denominator);\n    }\n\n    function addToLists(\n        address _wallet,\n        bool isInWhiteList,\n        bool isInPrivilegedList,\n        bool isInLimitedList,\n        bool hasAdditionalBonus\n    ) public onlyOwner {\n        if(isInWhiteList) {\n            whiteList[_wallet] = true;\n        }\n        if(isInPrivilegedList) {\n            privilegedList[_wallet] = true;\n        }\n        if(isInLimitedList) {\n            token.addLimitedWalletAddress(_wallet);\n        }\n        if(hasAdditionalBonus) {\n            additionalBonusOwnerState[_wallet] = AdditionalBonusState.Active;\n        }\n        if(reservationFund.canCompleteContribution(_wallet)) {\n            reservationFund.completeContribution(_wallet);\n        }\n    }\n\n    /**\n     * @dev Add wallet to whitelist. For contract owner only.\n     */\n    function addToWhiteList(address _wallet) public onlyOwner {\n        whiteList[_wallet] = true;\n    }\n\n    /**\n     * @dev Add wallet to additional bonus members. For contract owner only.\n     */\n    function addAdditionalBonusMember(address _wallet) public onlyOwner {\n        additionalBonusOwnerState[_wallet] = AdditionalBonusState.Active;\n    }\n\n    /**\n     * @dev Add wallet to privileged list. For contract owner only.\n     */\n    function addToPrivilegedList(address _wallet) public onlyOwner {\n        privilegedList[_wallet] = true;\n    }\n\n    /**\n     * @dev Set LockedTokens contract address\n     */\n    function setLockedTokens(address lockedTokensAddress) public onlyOwner {\n        lockedTokens = LockedTokens(lockedTokensAddress);\n    }\n\n    /**\n     * @dev Fallback function to receive ether contributions\n     */\n    function () payable public whenNotPaused {\n        if(whiteList[msg.sender] || privilegedList[msg.sender] || token.limitedWallets(msg.sender)) {\n            processContribution(msg.sender, msg.value);\n        } else {\n            processReservationContribution(msg.sender, msg.value);\n        }\n    }\n\n    function processReservationContribution(address contributor, uint256 amount) private checkTime checkCap {\n        require(amount >= ETHER_MIN_CONTRIB);\n\n        if(now <= MAX_CONTRIB_CHECK_END_TIME) {\n            uint256 currentUserContribution = safeAdd(amount, reservationFund.contributionsOf(contributor));\n            require(currentUserContribution <= ETHER_MAX_CONTRIB);\n        }\n        uint256 bonusNum = 0;\n        uint256 bonusDenom = 100;\n        (bonusNum, bonusDenom) = getBonus();\n        uint256 tokenBonusAmount = 0;\n        uint256 tokenAmount = safeDiv(safeMul(amount, tokenPriceNum), tokenPriceDenom);\n\n        if(bonusNum > 0) {\n            tokenBonusAmount = safeDiv(safeMul(tokenAmount, bonusNum), bonusDenom);\n        }\n\n        reservationFund.processContribution.value(amount)(\n            contributor,\n            tokenAmount,\n            tokenBonusAmount\n        );\n        ReservationFundContribution(contributor, amount, tokenAmount, tokenBonusAmount, now);\n    }\n\n    /**\n     * @dev Process BNB token contribution\n     * Transfer all amount of tokens approved by sender. Calc bonuses and issue tokens to contributor.\n     */\n    function processBNBContribution() public whenNotPaused checkTime checkBNBContribution {\n        bool additionalBonusApplied = false;\n        uint256 bonusNum = 0;\n        uint256 bonusDenom = 100;\n        (bonusNum, bonusDenom) = getBonus();\n        uint256 amountBNB = bnbToken.allowance(msg.sender, address(this));\n        bnbToken.transferFrom(msg.sender, address(this), amountBNB);\n        bnbContributions[msg.sender] = safeAdd(bnbContributions[msg.sender], amountBNB);\n\n        uint256 tokenBonusAmount = 0;\n        uint256 tokenAmount = safeDiv(safeMul(amountBNB, BNB_TOKEN_PRICE_NUM), BNB_TOKEN_PRICE_DENOM);\n        rawTokenSupply = safeAdd(rawTokenSupply, tokenAmount);\n        if(bonusNum > 0) {\n            tokenBonusAmount = safeDiv(safeMul(tokenAmount, bonusNum), bonusDenom);\n        }\n\n        if(additionalBonusOwnerState[msg.sender] ==  AdditionalBonusState.Active) {\n            additionalBonusOwnerState[msg.sender] = AdditionalBonusState.Applied;\n            uint256 additionalBonus = safeDiv(safeMul(tokenAmount, ADDITIONAL_BONUS_NUM), ADDITIONAL_BONUS_DENOM);\n            tokenBonusAmount = safeAdd(tokenBonusAmount, additionalBonus);\n            additionalBonusApplied = true;\n        }\n\n        uint256 tokenTotalAmount = safeAdd(tokenAmount, tokenBonusAmount);\n        token.issue(msg.sender, tokenTotalAmount);\n        totalBNBContributed = safeAdd(totalBNBContributed, amountBNB);\n\n        LogBNBContribution(msg.sender, amountBNB, tokenAmount, tokenBonusAmount, additionalBonusApplied, now);\n    }\n\n    /**\n     * @dev Process ether contribution. Calc bonuses and issue tokens to contributor.\n     */\n    function processContribution(address contributor, uint256 amount) private checkTime checkContribution checkCap {\n        bool additionalBonusApplied = false;\n        uint256 bonusNum = 0;\n        uint256 bonusDenom = 100;\n        (bonusNum, bonusDenom) = getBonus();\n        uint256 tokenBonusAmount = 0;\n\n        uint256 tokenAmount = safeDiv(safeMul(amount, tokenPriceNum), tokenPriceDenom);\n        rawTokenSupply = safeAdd(rawTokenSupply, tokenAmount);\n\n        if(bonusNum > 0) {\n            tokenBonusAmount = safeDiv(safeMul(tokenAmount, bonusNum), bonusDenom);\n        }\n\n        if(additionalBonusOwnerState[contributor] ==  AdditionalBonusState.Active) {\n            additionalBonusOwnerState[contributor] = AdditionalBonusState.Applied;\n            uint256 additionalBonus = safeDiv(safeMul(tokenAmount, ADDITIONAL_BONUS_NUM), ADDITIONAL_BONUS_DENOM);\n            tokenBonusAmount = safeAdd(tokenBonusAmount, additionalBonus);\n            additionalBonusApplied = true;\n        }\n\n        processPayment(contributor, amount, tokenAmount, tokenBonusAmount, additionalBonusApplied);\n    }\n\n    /**\n     * @dev Process ether contribution before KYC. Calc bonuses and tokens to issue after KYC.\n     */\n    function processReservationFundContribution(\n        address contributor,\n        uint256 tokenAmount,\n        uint256 tokenBonusAmount\n    ) external payable checkCap {\n        require(msg.sender == address(reservationFund));\n        require(msg.value > 0);\n        rawTokenSupply = safeAdd(rawTokenSupply, tokenAmount);\n        processPayment(contributor, msg.value, tokenAmount, tokenBonusAmount, false);\n    }\n\n    function processPayment(address contributor, uint256 etherAmount, uint256 tokenAmount, uint256 tokenBonusAmount, bool additionalBonusApplied) internal {\n        uint256 tokenTotalAmount = safeAdd(tokenAmount, tokenBonusAmount);\n\n        token.issue(contributor, tokenTotalAmount);\n        fund.processContribution.value(etherAmount)(contributor);\n        totalEtherContributed = safeAdd(totalEtherContributed, etherAmount);\n        userTotalContributed[contributor] = safeAdd(userTotalContributed[contributor], etherAmount);\n        LogContribution(contributor, etherAmount, tokenAmount, tokenBonusAmount, additionalBonusApplied, now);\n    }\n\n    /**\n     * @dev Force crowdsale refund\n     */\n    function forceCrowdsaleRefund() public onlyOwner {\n        pause();\n        fund.enableCrowdsaleRefund();\n        reservationFund.onCrowdsaleEnd();\n        token.finishIssuance();\n        bnbRefundEnabled = true;\n    }\n\n    /**\n     * @dev Finalize crowdsale if we reached hard cap or current time > SALE_END_TIME\n     */\n    function finalizeCrowdsale() public onlyOwner {\n        if(\n            totalEtherContributed >= safeSub(hardCap, 1000 ether) ||\n            (now >= SALE_END_TIME && totalEtherContributed >= softCap)\n        ) {\n            fund.onCrowdsaleEnd();\n            reservationFund.onCrowdsaleEnd();\n            bnbWithdrawEnabled = true;\n\n            // Referral\n            uint256 referralTokenAmount = safeDiv(rawTokenSupply, 10);\n            token.issue(referralTokenWallet, referralTokenAmount);\n\n            // Foundation\n            uint256 foundationTokenAmount = safeDiv(token.totalSupply(), 2); // 20%\n            token.issue(address(lockedTokens), foundationTokenAmount);\n            lockedTokens.addTokens(foundationTokenWallet, foundationTokenAmount, now + 365 days);\n            uint256 suppliedTokenAmount = token.totalSupply();\n\n            // Reserve\n            uint256 reservedTokenAmount = safeDiv(safeMul(suppliedTokenAmount, 3), 10); // 18%\n            token.issue(address(lockedTokens), reservedTokenAmount);\n            lockedTokens.addTokens(reserveTokenWallet, reservedTokenAmount, now + 183 days);\n\n            // Advisors\n            uint256 advisorsTokenAmount = safeDiv(suppliedTokenAmount, 10); // 6%\n            token.issue(advisorsTokenWallet, advisorsTokenAmount);\n\n            // Company\n            uint256 companyTokenAmount = safeDiv(suppliedTokenAmount, 4); // 15%\n            token.issue(address(lockedTokens), companyTokenAmount);\n            lockedTokens.addTokens(companyTokenWallet, companyTokenAmount, now + 730 days);\n\n            // Bounty\n            uint256 bountyTokenAmount = safeDiv(suppliedTokenAmount, 60); // 1%\n            token.issue(bountyTokenWallet, bountyTokenAmount);\n            token.finishIssuance();\n        } else if(now >= SALE_END_TIME) {\n            // Enable fund`s crowdsale refund if soft cap is not reached\n            fund.enableCrowdsaleRefund();\n            reservationFund.onCrowdsaleEnd();\n            token.finishIssuance();\n            bnbRefundEnabled = true;\n        }\n    }\n\n    /**\n     * @dev Withdraw bnb after crowdsale if crowdsale is not in refund mode\n     */\n    function withdrawBNB() public onlyOwner {\n        require(bnbWithdrawEnabled);\n        // BNB transfer\n        if(bnbToken.balanceOf(address(this)) > 0) {\n            bnbToken.transfer(bnbTokenWallet, bnbToken.balanceOf(address(this)));\n        }\n    }\n\n    /**\n     * @dev Function is called by contributor to refund BNB token payments if crowdsale failed to reach soft cap\n     */\n    function refundBNBContributor() public {\n        require(bnbRefundEnabled);\n        require(bnbContributions[msg.sender] > 0);\n        uint256 amount = bnbContributions[msg.sender];\n        bnbContributions[msg.sender] = 0;\n        bnbToken.transfer(msg.sender, amount);\n        token.destroy(msg.sender, token.balanceOf(msg.sender));\n    }\n}\n",
  "sourcePath": "/Users/peterpolman/Sites/daico/contracts/Crowdsale.sol",
  "compiler": {
    "name": "solc",
    "version": "0.4.23+commit.124ca40d.Emscripten.clang"
  },
  "schemaVersion": "2.0.0",
  "updatedAt": "2018-04-28T15:10:38.427Z"
}